{
	"SimpleStorage.sol": {
		"SimpleStorage": {
			"abi": [
				{
					"inputs": [],
					"name": "retrive",
					"outputs": [
						{
							"internalType": "uint256",
							"name": "",
							"type": "uint256"
						}
					],
					"stateMutability": "view",
					"type": "function"
				},
				{
					"inputs": [],
					"name": "retriveList",
					"outputs": [
						{
							"internalType": "uint256[]",
							"name": "",
							"type": "uint256[]"
						}
					],
					"stateMutability": "view",
					"type": "function"
				},
				{
					"inputs": [
						{
							"internalType": "uint256",
							"name": "_favouriteNumber",
							"type": "uint256"
						}
					],
					"name": "store",
					"outputs": [],
					"stateMutability": "nonpayable",
					"type": "function"
				},
				{
					"inputs": [
						{
							"internalType": "uint256[]",
							"name": "_listOfFavouriteNumbers",
							"type": "uint256[]"
						}
					],
					"name": "storeList",
					"outputs": [],
					"stateMutability": "nonpayable",
					"type": "function"
				}
			],
			"devdoc": {
				"kind": "dev",
				"methods": {},
				"version": 1
			},
			"evm": {
				"assembly": "    /* \"SimpleStorage.sol\":90:836  contract SimpleStorage {... */\n  mstore(0x40, 0x80)\n  callvalue\n  dup1\n  iszero\n  tag_1\n  jumpi\n  0x00\n  dup1\n  revert\ntag_1:\n  pop\n  dataSize(sub_0)\n  dup1\n  dataOffset(sub_0)\n  0x00\n  codecopy\n  0x00\n  return\nstop\n\nsub_0: assembly {\n        /* \"SimpleStorage.sol\":90:836  contract SimpleStorage {... */\n      mstore(0x40, 0x80)\n      callvalue\n      dup1\n      iszero\n      tag_1\n      jumpi\n      0x00\n      dup1\n      revert\n    tag_1:\n      pop\n      jumpi(tag_2, lt(calldatasize, 0x04))\n      shr(0xe0, calldataload(0x00))\n      dup1\n      0x34bc938d\n      eq\n      tag_3\n      jumpi\n      dup1\n      0x6057361d\n      eq\n      tag_4\n      jumpi\n      dup1\n      0x75575446\n      eq\n      tag_5\n      jumpi\n      dup1\n      0xa6b7fc5b\n      eq\n      tag_6\n      jumpi\n    tag_2:\n      0x00\n      dup1\n      revert\n        /* \"SimpleStorage.sol\":726:834  function retriveList() public view returns (uint256[] memory) {... */\n    tag_3:\n      tag_7\n      tag_8\n      jump\t// in\n    tag_7:\n      mload(0x40)\n      tag_9\n      swap2\n      swap1\n      tag_10\n      jump\t// in\n    tag_9:\n      mload(0x40)\n      dup1\n      swap2\n      sub\n      swap1\n      return\n        /* \"SimpleStorage.sol\":378:486  function store(uint256 _favouriteNumber) public virtual {... */\n    tag_4:\n      tag_11\n      0x04\n      dup1\n      calldatasize\n      sub\n      dup2\n      add\n      swap1\n      tag_12\n      swap2\n      swap1\n      tag_13\n      jump\t// in\n    tag_12:\n      tag_14\n      jump\t// in\n    tag_11:\n      stop\n        /* \"SimpleStorage.sol\":587:720  function storeList(uint256[] memory _listOfFavouriteNumbers) public {... */\n    tag_5:\n      tag_15\n      0x04\n      dup1\n      calldatasize\n      sub\n      dup2\n      add\n      swap1\n      tag_16\n      swap2\n      swap1\n      tag_17\n      jump\t// in\n    tag_16:\n      tag_18\n      jump\t// in\n    tag_15:\n      stop\n        /* \"SimpleStorage.sol\":492:581  function retrive() public view returns (uint256) {... */\n    tag_6:\n      tag_19\n      tag_20\n      jump\t// in\n    tag_19:\n      mload(0x40)\n      tag_21\n      swap2\n      swap1\n      tag_22\n      jump\t// in\n    tag_21:\n      mload(0x40)\n      dup1\n      swap2\n      sub\n      swap1\n      return\n        /* \"SimpleStorage.sol\":726:834  function retriveList() public view returns (uint256[] memory) {... */\n    tag_8:\n        /* \"SimpleStorage.sol\":770:786  uint256[] memory */\n      0x60\n        /* \"SimpleStorage.sol\":805:827  listOfFavouriteNumbers */\n      0x01\n        /* \"SimpleStorage.sol\":798:827  return listOfFavouriteNumbers */\n      dup1\n      sload\n      dup1\n      0x20\n      mul\n      0x20\n      add\n      mload(0x40)\n      swap1\n      dup2\n      add\n      0x40\n      mstore\n      dup1\n      swap3\n      swap2\n      swap1\n      dup2\n      dup2\n      mstore\n      0x20\n      add\n      dup3\n      dup1\n      sload\n      dup1\n      iszero\n      tag_24\n      jumpi\n      0x20\n      mul\n      dup3\n      add\n      swap2\n      swap1\n      0x00\n      mstore\n      keccak256(0x00, 0x20)\n      swap1\n    tag_25:\n      dup2\n      sload\n      dup2\n      mstore\n      0x20\n      add\n      swap1\n      0x01\n      add\n      swap1\n      dup1\n      dup4\n      gt\n      tag_25\n      jumpi\n    tag_24:\n      pop\n      pop\n      pop\n      pop\n      pop\n      swap1\n      pop\n        /* \"SimpleStorage.sol\":726:834  function retriveList() public view returns (uint256[] memory) {... */\n      swap1\n      jump\t// out\n        /* \"SimpleStorage.sol\":378:486  function store(uint256 _favouriteNumber) public virtual {... */\n    tag_14:\n        /* \"SimpleStorage.sol\":463:479  _favouriteNumber */\n      dup1\n        /* \"SimpleStorage.sol\":444:460  myFavoriteNumber */\n      0x00\n        /* \"SimpleStorage.sol\":444:479  myFavoriteNumber = _favouriteNumber */\n      dup2\n      swap1\n      sstore\n      pop\n        /* \"SimpleStorage.sol\":378:486  function store(uint256 _favouriteNumber) public virtual {... */\n      pop\n      jump\t// out\n        /* \"SimpleStorage.sol\":587:720  function storeList(uint256[] memory _listOfFavouriteNumbers) public {... */\n    tag_18:\n        /* \"SimpleStorage.sol\":690:713  _listOfFavouriteNumbers */\n      dup1\n        /* \"SimpleStorage.sol\":665:687  listOfFavouriteNumbers */\n      0x01\n        /* \"SimpleStorage.sol\":665:713  listOfFavouriteNumbers = _listOfFavouriteNumbers */\n      swap1\n      dup1\n      mload\n      swap1\n      0x20\n      add\n      swap1\n      tag_28\n      swap3\n      swap2\n      swap1\n      tag_29\n      jump\t// in\n    tag_28:\n      pop\n        /* \"SimpleStorage.sol\":587:720  function storeList(uint256[] memory _listOfFavouriteNumbers) public {... */\n      pop\n      jump\t// out\n        /* \"SimpleStorage.sol\":492:581  function retrive() public view returns (uint256) {... */\n    tag_20:\n        /* \"SimpleStorage.sol\":532:539  uint256 */\n      0x00\n        /* \"SimpleStorage.sol\":558:574  myFavoriteNumber */\n      dup1\n      sload\n        /* \"SimpleStorage.sol\":551:574  return myFavoriteNumber */\n      swap1\n      pop\n        /* \"SimpleStorage.sol\":492:581  function retrive() public view returns (uint256) {... */\n      swap1\n      jump\t// out\n    tag_29:\n      dup3\n      dup1\n      sload\n      dup3\n      dup3\n      sstore\n      swap1\n      0x00\n      mstore\n      keccak256(0x00, 0x20)\n      swap1\n      dup2\n      add\n      swap3\n      dup3\n      iszero\n      tag_31\n      jumpi\n      swap2\n      0x20\n      mul\n      dup3\n      add\n    tag_32:\n      dup3\n      dup2\n      gt\n      iszero\n      tag_33\n      jumpi\n      dup3\n      mload\n      dup3\n      sstore\n      swap2\n      0x20\n      add\n      swap2\n      swap1\n      0x01\n      add\n      swap1\n      jump(tag_32)\n    tag_33:\n    tag_31:\n      pop\n      swap1\n      pop\n      tag_34\n      swap2\n      swap1\n      tag_35\n      jump\t// in\n    tag_34:\n      pop\n      swap1\n      jump\t// out\n    tag_35:\n    tag_36:\n      dup1\n      dup3\n      gt\n      iszero\n      tag_37\n      jumpi\n      0x00\n      dup2\n      0x00\n      swap1\n      sstore\n      pop\n      0x01\n      add\n      jump(tag_36)\n    tag_37:\n      pop\n      swap1\n      jump\t// out\n        /* \"#utility.yul\":7:121   */\n    tag_38:\n        /* \"#utility.yul\":74:80   */\n      0x00\n        /* \"#utility.yul\":108:113   */\n      dup2\n        /* \"#utility.yul\":102:114   */\n      mload\n        /* \"#utility.yul\":92:114   */\n      swap1\n      pop\n        /* \"#utility.yul\":7:121   */\n      swap2\n      swap1\n      pop\n      jump\t// out\n        /* \"#utility.yul\":127:311   */\n    tag_39:\n        /* \"#utility.yul\":226:237   */\n      0x00\n        /* \"#utility.yul\":260:266   */\n      dup3\n        /* \"#utility.yul\":255:258   */\n      dup3\n        /* \"#utility.yul\":248:267   */\n      mstore\n        /* \"#utility.yul\":300:304   */\n      0x20\n        /* \"#utility.yul\":295:298   */\n      dup3\n        /* \"#utility.yul\":291:305   */\n      add\n        /* \"#utility.yul\":276:305   */\n      swap1\n      pop\n        /* \"#utility.yul\":127:311   */\n      swap3\n      swap2\n      pop\n      pop\n      jump\t// out\n        /* \"#utility.yul\":317:449   */\n    tag_40:\n        /* \"#utility.yul\":384:388   */\n      0x00\n        /* \"#utility.yul\":407:410   */\n      dup2\n        /* \"#utility.yul\":399:410   */\n      swap1\n      pop\n        /* \"#utility.yul\":437:441   */\n      0x20\n        /* \"#utility.yul\":432:435   */\n      dup3\n        /* \"#utility.yul\":428:442   */\n      add\n        /* \"#utility.yul\":420:442   */\n      swap1\n      pop\n        /* \"#utility.yul\":317:449   */\n      swap2\n      swap1\n      pop\n      jump\t// out\n        /* \"#utility.yul\":455:532   */\n    tag_41:\n        /* \"#utility.yul\":492:499   */\n      0x00\n        /* \"#utility.yul\":521:526   */\n      dup2\n        /* \"#utility.yul\":510:526   */\n      swap1\n      pop\n        /* \"#utility.yul\":455:532   */\n      swap2\n      swap1\n      pop\n      jump\t// out\n        /* \"#utility.yul\":538:646   */\n    tag_42:\n        /* \"#utility.yul\":615:639   */\n      tag_67\n        /* \"#utility.yul\":633:638   */\n      dup2\n        /* \"#utility.yul\":615:639   */\n      tag_41\n      jump\t// in\n    tag_67:\n        /* \"#utility.yul\":610:613   */\n      dup3\n        /* \"#utility.yul\":603:640   */\n      mstore\n        /* \"#utility.yul\":538:646   */\n      pop\n      pop\n      jump\t// out\n        /* \"#utility.yul\":652:831   */\n    tag_43:\n        /* \"#utility.yul\":721:731   */\n      0x00\n        /* \"#utility.yul\":742:788   */\n      tag_69\n        /* \"#utility.yul\":784:787   */\n      dup4\n        /* \"#utility.yul\":776:782   */\n      dup4\n        /* \"#utility.yul\":742:788   */\n      tag_42\n      jump\t// in\n    tag_69:\n        /* \"#utility.yul\":820:824   */\n      0x20\n        /* \"#utility.yul\":815:818   */\n      dup4\n        /* \"#utility.yul\":811:825   */\n      add\n        /* \"#utility.yul\":797:825   */\n      swap1\n      pop\n        /* \"#utility.yul\":652:831   */\n      swap3\n      swap2\n      pop\n      pop\n      jump\t// out\n        /* \"#utility.yul\":837:950   */\n    tag_44:\n        /* \"#utility.yul\":907:911   */\n      0x00\n        /* \"#utility.yul\":939:943   */\n      0x20\n        /* \"#utility.yul\":934:937   */\n      dup3\n        /* \"#utility.yul\":930:944   */\n      add\n        /* \"#utility.yul\":922:944   */\n      swap1\n      pop\n        /* \"#utility.yul\":837:950   */\n      swap2\n      swap1\n      pop\n      jump\t// out\n        /* \"#utility.yul\":986:1718   */\n    tag_45:\n        /* \"#utility.yul\":1105:1108   */\n      0x00\n        /* \"#utility.yul\":1134:1188   */\n      tag_72\n        /* \"#utility.yul\":1182:1187   */\n      dup3\n        /* \"#utility.yul\":1134:1188   */\n      tag_38\n      jump\t// in\n    tag_72:\n        /* \"#utility.yul\":1204:1290   */\n      tag_73\n        /* \"#utility.yul\":1283:1289   */\n      dup2\n        /* \"#utility.yul\":1278:1281   */\n      dup6\n        /* \"#utility.yul\":1204:1290   */\n      tag_39\n      jump\t// in\n    tag_73:\n        /* \"#utility.yul\":1197:1290   */\n      swap4\n      pop\n        /* \"#utility.yul\":1314:1370   */\n      tag_74\n        /* \"#utility.yul\":1364:1369   */\n      dup4\n        /* \"#utility.yul\":1314:1370   */\n      tag_40\n      jump\t// in\n    tag_74:\n        /* \"#utility.yul\":1393:1400   */\n      dup1\n        /* \"#utility.yul\":1424:1425   */\n      0x00\n        /* \"#utility.yul\":1409:1693   */\n    tag_75:\n        /* \"#utility.yul\":1434:1440   */\n      dup4\n        /* \"#utility.yul\":1431:1432   */\n      dup2\n        /* \"#utility.yul\":1428:1441   */\n      lt\n        /* \"#utility.yul\":1409:1693   */\n      iszero\n      tag_77\n      jumpi\n        /* \"#utility.yul\":1510:1516   */\n      dup2\n        /* \"#utility.yul\":1504:1517   */\n      mload\n        /* \"#utility.yul\":1537:1600   */\n      tag_78\n        /* \"#utility.yul\":1596:1599   */\n      dup9\n        /* \"#utility.yul\":1581:1594   */\n      dup3\n        /* \"#utility.yul\":1537:1600   */\n      tag_43\n      jump\t// in\n    tag_78:\n        /* \"#utility.yul\":1530:1600   */\n      swap8\n      pop\n        /* \"#utility.yul\":1623:1683   */\n      tag_79\n        /* \"#utility.yul\":1676:1682   */\n      dup4\n        /* \"#utility.yul\":1623:1683   */\n      tag_44\n      jump\t// in\n    tag_79:\n        /* \"#utility.yul\":1613:1683   */\n      swap3\n      pop\n        /* \"#utility.yul\":1469:1693   */\n      pop\n        /* \"#utility.yul\":1456:1457   */\n      0x01\n        /* \"#utility.yul\":1453:1454   */\n      dup2\n        /* \"#utility.yul\":1449:1458   */\n      add\n        /* \"#utility.yul\":1444:1458   */\n      swap1\n      pop\n        /* \"#utility.yul\":1409:1693   */\n      jump(tag_75)\n    tag_77:\n        /* \"#utility.yul\":1413:1427   */\n      pop\n        /* \"#utility.yul\":1709:1712   */\n      dup6\n        /* \"#utility.yul\":1702:1712   */\n      swap4\n      pop\n        /* \"#utility.yul\":1110:1718   */\n      pop\n      pop\n      pop\n        /* \"#utility.yul\":986:1718   */\n      swap3\n      swap2\n      pop\n      pop\n      jump\t// out\n        /* \"#utility.yul\":1724:2097   */\n    tag_10:\n        /* \"#utility.yul\":1867:1871   */\n      0x00\n        /* \"#utility.yul\":1905:1907   */\n      0x20\n        /* \"#utility.yul\":1894:1903   */\n      dup3\n        /* \"#utility.yul\":1890:1908   */\n      add\n        /* \"#utility.yul\":1882:1908   */\n      swap1\n      pop\n        /* \"#utility.yul\":1954:1963   */\n      dup2\n        /* \"#utility.yul\":1948:1952   */\n      dup2\n        /* \"#utility.yul\":1944:1964   */\n      sub\n        /* \"#utility.yul\":1940:1941   */\n      0x00\n        /* \"#utility.yul\":1929:1938   */\n      dup4\n        /* \"#utility.yul\":1925:1942   */\n      add\n        /* \"#utility.yul\":1918:1965   */\n      mstore\n        /* \"#utility.yul\":1982:2090   */\n      tag_81\n        /* \"#utility.yul\":2085:2089   */\n      dup2\n        /* \"#utility.yul\":2076:2082   */\n      dup5\n        /* \"#utility.yul\":1982:2090   */\n      tag_45\n      jump\t// in\n    tag_81:\n        /* \"#utility.yul\":1974:2090   */\n      swap1\n      pop\n        /* \"#utility.yul\":1724:2097   */\n      swap3\n      swap2\n      pop\n      pop\n      jump\t// out\n        /* \"#utility.yul\":2103:2178   */\n    tag_46:\n        /* \"#utility.yul\":2136:2142   */\n      0x00\n        /* \"#utility.yul\":2169:2171   */\n      0x40\n        /* \"#utility.yul\":2163:2172   */\n      mload\n        /* \"#utility.yul\":2153:2172   */\n      swap1\n      pop\n        /* \"#utility.yul\":2103:2178   */\n      swap1\n      jump\t// out\n        /* \"#utility.yul\":2184:2301   */\n    tag_47:\n        /* \"#utility.yul\":2293:2294   */\n      0x00\n        /* \"#utility.yul\":2290:2291   */\n      dup1\n        /* \"#utility.yul\":2283:2295   */\n      revert\n        /* \"#utility.yul\":2307:2424   */\n    tag_48:\n        /* \"#utility.yul\":2416:2417   */\n      0x00\n        /* \"#utility.yul\":2413:2414   */\n      dup1\n        /* \"#utility.yul\":2406:2418   */\n      revert\n        /* \"#utility.yul\":2430:2552   */\n    tag_49:\n        /* \"#utility.yul\":2503:2527   */\n      tag_86\n        /* \"#utility.yul\":2521:2526   */\n      dup2\n        /* \"#utility.yul\":2503:2527   */\n      tag_41\n      jump\t// in\n    tag_86:\n        /* \"#utility.yul\":2496:2501   */\n      dup2\n        /* \"#utility.yul\":2493:2528   */\n      eq\n        /* \"#utility.yul\":2483:2546   */\n      tag_87\n      jumpi\n        /* \"#utility.yul\":2542:2543   */\n      0x00\n        /* \"#utility.yul\":2539:2540   */\n      dup1\n        /* \"#utility.yul\":2532:2544   */\n      revert\n        /* \"#utility.yul\":2483:2546   */\n    tag_87:\n        /* \"#utility.yul\":2430:2552   */\n      pop\n      jump\t// out\n        /* \"#utility.yul\":2558:2697   */\n    tag_50:\n        /* \"#utility.yul\":2604:2609   */\n      0x00\n        /* \"#utility.yul\":2642:2648   */\n      dup2\n        /* \"#utility.yul\":2629:2649   */\n      calldataload\n        /* \"#utility.yul\":2620:2649   */\n      swap1\n      pop\n        /* \"#utility.yul\":2658:2691   */\n      tag_89\n        /* \"#utility.yul\":2685:2690   */\n      dup2\n        /* \"#utility.yul\":2658:2691   */\n      tag_49\n      jump\t// in\n    tag_89:\n        /* \"#utility.yul\":2558:2697   */\n      swap3\n      swap2\n      pop\n      pop\n      jump\t// out\n        /* \"#utility.yul\":2703:3032   */\n    tag_13:\n        /* \"#utility.yul\":2762:2768   */\n      0x00\n        /* \"#utility.yul\":2811:2813   */\n      0x20\n        /* \"#utility.yul\":2799:2808   */\n      dup3\n        /* \"#utility.yul\":2790:2797   */\n      dup5\n        /* \"#utility.yul\":2786:2809   */\n      sub\n        /* \"#utility.yul\":2782:2814   */\n      slt\n        /* \"#utility.yul\":2779:2898   */\n      iszero\n      tag_91\n      jumpi\n        /* \"#utility.yul\":2817:2896   */\n      tag_92\n      tag_47\n      jump\t// in\n    tag_92:\n        /* \"#utility.yul\":2779:2898   */\n    tag_91:\n        /* \"#utility.yul\":2937:2938   */\n      0x00\n        /* \"#utility.yul\":2962:3015   */\n      tag_93\n        /* \"#utility.yul\":3007:3014   */\n      dup5\n        /* \"#utility.yul\":2998:3004   */\n      dup3\n        /* \"#utility.yul\":2987:2996   */\n      dup6\n        /* \"#utility.yul\":2983:3005   */\n      add\n        /* \"#utility.yul\":2962:3015   */\n      tag_50\n      jump\t// in\n    tag_93:\n        /* \"#utility.yul\":2952:3015   */\n      swap2\n      pop\n        /* \"#utility.yul\":2908:3025   */\n      pop\n        /* \"#utility.yul\":2703:3032   */\n      swap3\n      swap2\n      pop\n      pop\n      jump\t// out\n        /* \"#utility.yul\":3038:3155   */\n    tag_51:\n        /* \"#utility.yul\":3147:3148   */\n      0x00\n        /* \"#utility.yul\":3144:3145   */\n      dup1\n        /* \"#utility.yul\":3137:3149   */\n      revert\n        /* \"#utility.yul\":3161:3263   */\n    tag_52:\n        /* \"#utility.yul\":3202:3208   */\n      0x00\n        /* \"#utility.yul\":3253:3255   */\n      0x1f\n        /* \"#utility.yul\":3249:3256   */\n      not\n        /* \"#utility.yul\":3244:3246   */\n      0x1f\n        /* \"#utility.yul\":3237:3242   */\n      dup4\n        /* \"#utility.yul\":3233:3247   */\n      add\n        /* \"#utility.yul\":3229:3257   */\n      and\n        /* \"#utility.yul\":3219:3257   */\n      swap1\n      pop\n        /* \"#utility.yul\":3161:3263   */\n      swap2\n      swap1\n      pop\n      jump\t// out\n        /* \"#utility.yul\":3269:3449   */\n    tag_53:\n        /* \"#utility.yul\":3317:3394   */\n      0x4e487b7100000000000000000000000000000000000000000000000000000000\n        /* \"#utility.yul\":3314:3315   */\n      0x00\n        /* \"#utility.yul\":3307:3395   */\n      mstore\n        /* \"#utility.yul\":3414:3418   */\n      0x41\n        /* \"#utility.yul\":3411:3412   */\n      0x04\n        /* \"#utility.yul\":3404:3419   */\n      mstore\n        /* \"#utility.yul\":3438:3442   */\n      0x24\n        /* \"#utility.yul\":3435:3436   */\n      0x00\n        /* \"#utility.yul\":3428:3443   */\n      revert\n        /* \"#utility.yul\":3455:3736   */\n    tag_54:\n        /* \"#utility.yul\":3538:3565   */\n      tag_98\n        /* \"#utility.yul\":3560:3564   */\n      dup3\n        /* \"#utility.yul\":3538:3565   */\n      tag_52\n      jump\t// in\n    tag_98:\n        /* \"#utility.yul\":3530:3536   */\n      dup2\n        /* \"#utility.yul\":3526:3566   */\n      add\n        /* \"#utility.yul\":3668:3674   */\n      dup2\n        /* \"#utility.yul\":3656:3666   */\n      dup2\n        /* \"#utility.yul\":3653:3675   */\n      lt\n        /* \"#utility.yul\":3632:3650   */\n      0xffffffffffffffff\n        /* \"#utility.yul\":3620:3630   */\n      dup3\n        /* \"#utility.yul\":3617:3651   */\n      gt\n        /* \"#utility.yul\":3614:3676   */\n      or\n        /* \"#utility.yul\":3611:3699   */\n      iszero\n      tag_99\n      jumpi\n        /* \"#utility.yul\":3679:3697   */\n      tag_100\n      tag_53\n      jump\t// in\n    tag_100:\n        /* \"#utility.yul\":3611:3699   */\n    tag_99:\n        /* \"#utility.yul\":3719:3729   */\n      dup1\n        /* \"#utility.yul\":3715:3717   */\n      0x40\n        /* \"#utility.yul\":3708:3730   */\n      mstore\n        /* \"#utility.yul\":3498:3736   */\n      pop\n        /* \"#utility.yul\":3455:3736   */\n      pop\n      pop\n      jump\t// out\n        /* \"#utility.yul\":3742:3871   */\n    tag_55:\n        /* \"#utility.yul\":3776:3782   */\n      0x00\n        /* \"#utility.yul\":3803:3823   */\n      tag_102\n      tag_46\n      jump\t// in\n    tag_102:\n        /* \"#utility.yul\":3793:3823   */\n      swap1\n      pop\n        /* \"#utility.yul\":3832:3865   */\n      tag_103\n        /* \"#utility.yul\":3860:3864   */\n      dup3\n        /* \"#utility.yul\":3852:3858   */\n      dup3\n        /* \"#utility.yul\":3832:3865   */\n      tag_54\n      jump\t// in\n    tag_103:\n        /* \"#utility.yul\":3742:3871   */\n      swap2\n      swap1\n      pop\n      jump\t// out\n        /* \"#utility.yul\":3877:4188   */\n    tag_56:\n        /* \"#utility.yul\":3954:3958   */\n      0x00\n        /* \"#utility.yul\":4044:4062   */\n      0xffffffffffffffff\n        /* \"#utility.yul\":4036:4042   */\n      dup3\n        /* \"#utility.yul\":4033:4063   */\n      gt\n        /* \"#utility.yul\":4030:4086   */\n      iszero\n      tag_105\n      jumpi\n        /* \"#utility.yul\":4066:4084   */\n      tag_106\n      tag_53\n      jump\t// in\n    tag_106:\n        /* \"#utility.yul\":4030:4086   */\n    tag_105:\n        /* \"#utility.yul\":4116:4120   */\n      0x20\n        /* \"#utility.yul\":4108:4114   */\n      dup3\n        /* \"#utility.yul\":4104:4121   */\n      mul\n        /* \"#utility.yul\":4096:4121   */\n      swap1\n      pop\n        /* \"#utility.yul\":4176:4180   */\n      0x20\n        /* \"#utility.yul\":4170:4174   */\n      dup2\n        /* \"#utility.yul\":4166:4181   */\n      add\n        /* \"#utility.yul\":4158:4181   */\n      swap1\n      pop\n        /* \"#utility.yul\":3877:4188   */\n      swap2\n      swap1\n      pop\n      jump\t// out\n        /* \"#utility.yul\":4194:4311   */\n    tag_57:\n        /* \"#utility.yul\":4303:4304   */\n      0x00\n        /* \"#utility.yul\":4300:4301   */\n      dup1\n        /* \"#utility.yul\":4293:4305   */\n      revert\n        /* \"#utility.yul\":4334:5044   */\n    tag_58:\n        /* \"#utility.yul\":4430:4435   */\n      0x00\n        /* \"#utility.yul\":4455:4536   */\n      tag_109\n        /* \"#utility.yul\":4471:4535   */\n      tag_110\n        /* \"#utility.yul\":4528:4534   */\n      dup5\n        /* \"#utility.yul\":4471:4535   */\n      tag_56\n      jump\t// in\n    tag_110:\n        /* \"#utility.yul\":4455:4536   */\n      tag_55\n      jump\t// in\n    tag_109:\n        /* \"#utility.yul\":4446:4536   */\n      swap1\n      pop\n        /* \"#utility.yul\":4556:4561   */\n      dup1\n        /* \"#utility.yul\":4585:4591   */\n      dup4\n        /* \"#utility.yul\":4578:4583   */\n      dup3\n        /* \"#utility.yul\":4571:4592   */\n      mstore\n        /* \"#utility.yul\":4619:4623   */\n      0x20\n        /* \"#utility.yul\":4612:4617   */\n      dup3\n        /* \"#utility.yul\":4608:4624   */\n      add\n        /* \"#utility.yul\":4601:4624   */\n      swap1\n      pop\n        /* \"#utility.yul\":4672:4676   */\n      0x20\n        /* \"#utility.yul\":4664:4670   */\n      dup5\n        /* \"#utility.yul\":4660:4677   */\n      mul\n        /* \"#utility.yul\":4652:4658   */\n      dup4\n        /* \"#utility.yul\":4648:4678   */\n      add\n        /* \"#utility.yul\":4701:4704   */\n      dup6\n        /* \"#utility.yul\":4693:4699   */\n      dup2\n        /* \"#utility.yul\":4690:4705   */\n      gt\n        /* \"#utility.yul\":4687:4809   */\n      iszero\n      tag_111\n      jumpi\n        /* \"#utility.yul\":4720:4799   */\n      tag_112\n      tag_57\n      jump\t// in\n    tag_112:\n        /* \"#utility.yul\":4687:4809   */\n    tag_111:\n        /* \"#utility.yul\":4835:4841   */\n      dup4\n        /* \"#utility.yul\":4818:5038   */\n    tag_113:\n        /* \"#utility.yul\":4852:4858   */\n      dup2\n        /* \"#utility.yul\":4847:4850   */\n      dup2\n        /* \"#utility.yul\":4844:4859   */\n      lt\n        /* \"#utility.yul\":4818:5038   */\n      iszero\n      tag_115\n      jumpi\n        /* \"#utility.yul\":4927:4930   */\n      dup1\n        /* \"#utility.yul\":4956:4993   */\n      tag_116\n        /* \"#utility.yul\":4989:4992   */\n      dup9\n        /* \"#utility.yul\":4977:4987   */\n      dup3\n        /* \"#utility.yul\":4956:4993   */\n      tag_50\n      jump\t// in\n    tag_116:\n        /* \"#utility.yul\":4951:4954   */\n      dup5\n        /* \"#utility.yul\":4944:4994   */\n      mstore\n        /* \"#utility.yul\":5023:5027   */\n      0x20\n        /* \"#utility.yul\":5018:5021   */\n      dup5\n        /* \"#utility.yul\":5014:5028   */\n      add\n        /* \"#utility.yul\":5007:5028   */\n      swap4\n      pop\n        /* \"#utility.yul\":4894:5038   */\n      pop\n        /* \"#utility.yul\":4878:4882   */\n      0x20\n        /* \"#utility.yul\":4873:4876   */\n      dup2\n        /* \"#utility.yul\":4869:4883   */\n      add\n        /* \"#utility.yul\":4862:4883   */\n      swap1\n      pop\n        /* \"#utility.yul\":4818:5038   */\n      jump(tag_113)\n    tag_115:\n        /* \"#utility.yul\":4822:4843   */\n      pop\n        /* \"#utility.yul\":4436:5044   */\n      pop\n      pop\n        /* \"#utility.yul\":4334:5044   */\n      swap4\n      swap3\n      pop\n      pop\n      pop\n      jump\t// out\n        /* \"#utility.yul\":5067:5437   */\n    tag_59:\n        /* \"#utility.yul\":5138:5143   */\n      0x00\n        /* \"#utility.yul\":5187:5190   */\n      dup3\n        /* \"#utility.yul\":5180:5184   */\n      0x1f\n        /* \"#utility.yul\":5172:5178   */\n      dup4\n        /* \"#utility.yul\":5168:5185   */\n      add\n        /* \"#utility.yul\":5164:5191   */\n      slt\n        /* \"#utility.yul\":5154:5276   */\n      tag_118\n      jumpi\n        /* \"#utility.yul\":5195:5274   */\n      tag_119\n      tag_51\n      jump\t// in\n    tag_119:\n        /* \"#utility.yul\":5154:5276   */\n    tag_118:\n        /* \"#utility.yul\":5312:5318   */\n      dup2\n        /* \"#utility.yul\":5299:5319   */\n      calldataload\n        /* \"#utility.yul\":5337:5431   */\n      tag_120\n        /* \"#utility.yul\":5427:5430   */\n      dup5\n        /* \"#utility.yul\":5419:5425   */\n      dup3\n        /* \"#utility.yul\":5412:5416   */\n      0x20\n        /* \"#utility.yul\":5404:5410   */\n      dup7\n        /* \"#utility.yul\":5400:5417   */\n      add\n        /* \"#utility.yul\":5337:5431   */\n      tag_58\n      jump\t// in\n    tag_120:\n        /* \"#utility.yul\":5328:5431   */\n      swap2\n      pop\n        /* \"#utility.yul\":5144:5437   */\n      pop\n        /* \"#utility.yul\":5067:5437   */\n      swap3\n      swap2\n      pop\n      pop\n      jump\t// out\n        /* \"#utility.yul\":5443:5982   */\n    tag_17:\n        /* \"#utility.yul\":5527:5533   */\n      0x00\n        /* \"#utility.yul\":5576:5578   */\n      0x20\n        /* \"#utility.yul\":5564:5573   */\n      dup3\n        /* \"#utility.yul\":5555:5562   */\n      dup5\n        /* \"#utility.yul\":5551:5574   */\n      sub\n        /* \"#utility.yul\":5547:5579   */\n      slt\n        /* \"#utility.yul\":5544:5663   */\n      iszero\n      tag_122\n      jumpi\n        /* \"#utility.yul\":5582:5661   */\n      tag_123\n      tag_47\n      jump\t// in\n    tag_123:\n        /* \"#utility.yul\":5544:5663   */\n    tag_122:\n        /* \"#utility.yul\":5730:5731   */\n      0x00\n        /* \"#utility.yul\":5719:5728   */\n      dup3\n        /* \"#utility.yul\":5715:5732   */\n      add\n        /* \"#utility.yul\":5702:5733   */\n      calldataload\n        /* \"#utility.yul\":5760:5778   */\n      0xffffffffffffffff\n        /* \"#utility.yul\":5752:5758   */\n      dup2\n        /* \"#utility.yul\":5749:5779   */\n      gt\n        /* \"#utility.yul\":5746:5863   */\n      iszero\n      tag_124\n      jumpi\n        /* \"#utility.yul\":5782:5861   */\n      tag_125\n      tag_48\n      jump\t// in\n    tag_125:\n        /* \"#utility.yul\":5746:5863   */\n    tag_124:\n        /* \"#utility.yul\":5887:5965   */\n      tag_126\n        /* \"#utility.yul\":5957:5964   */\n      dup5\n        /* \"#utility.yul\":5948:5954   */\n      dup3\n        /* \"#utility.yul\":5937:5946   */\n      dup6\n        /* \"#utility.yul\":5933:5955   */\n      add\n        /* \"#utility.yul\":5887:5965   */\n      tag_59\n      jump\t// in\n    tag_126:\n        /* \"#utility.yul\":5877:5965   */\n      swap2\n      pop\n        /* \"#utility.yul\":5673:5975   */\n      pop\n        /* \"#utility.yul\":5443:5982   */\n      swap3\n      swap2\n      pop\n      pop\n      jump\t// out\n        /* \"#utility.yul\":5988:6106   */\n    tag_60:\n        /* \"#utility.yul\":6075:6099   */\n      tag_128\n        /* \"#utility.yul\":6093:6098   */\n      dup2\n        /* \"#utility.yul\":6075:6099   */\n      tag_41\n      jump\t// in\n    tag_128:\n        /* \"#utility.yul\":6070:6073   */\n      dup3\n        /* \"#utility.yul\":6063:6100   */\n      mstore\n        /* \"#utility.yul\":5988:6106   */\n      pop\n      pop\n      jump\t// out\n        /* \"#utility.yul\":6112:6334   */\n    tag_22:\n        /* \"#utility.yul\":6205:6209   */\n      0x00\n        /* \"#utility.yul\":6243:6245   */\n      0x20\n        /* \"#utility.yul\":6232:6241   */\n      dup3\n        /* \"#utility.yul\":6228:6246   */\n      add\n        /* \"#utility.yul\":6220:6246   */\n      swap1\n      pop\n        /* \"#utility.yul\":6256:6327   */\n      tag_130\n        /* \"#utility.yul\":6324:6325   */\n      0x00\n        /* \"#utility.yul\":6313:6322   */\n      dup4\n        /* \"#utility.yul\":6309:6326   */\n      add\n        /* \"#utility.yul\":6300:6306   */\n      dup5\n        /* \"#utility.yul\":6256:6327   */\n      tag_60\n      jump\t// in\n    tag_130:\n        /* \"#utility.yul\":6112:6334   */\n      swap3\n      swap2\n      pop\n      pop\n      jump\t// out\n\n    auxdata: 0xa2646970667358221220d5a2cee651a52f145f2e46b0043a5d9152a757aff57e1ec30e5612307982296c64736f6c634300081a0033\n}\n",
				"bytecode": {
					"linkReferences": {},
					"object": "6080604052348015600e575f80fd5b506104e48061001c5f395ff3fe608060405234801561000f575f80fd5b506004361061004a575f3560e01c806334bc938d1461004e5780636057361d1461006c5780637557544614610088578063a6b7fc5b146100a4575b5f80fd5b6100566100c2565b6040516100639190610269565b60405180910390f35b610086600480360381019061008191906102c4565b610118565b005b6100a2600480360381019061009d919061043f565b610121565b005b6100ac61013b565b6040516100b99190610495565b60405180910390f35b6060600180548060200260200160405190810160405280929190818152602001828054801561010e57602002820191905f5260205f20905b8154815260200190600101908083116100fa575b5050505050905090565b805f8190555050565b8060019080519060200190610137929190610143565b5050565b5f8054905090565b828054828255905f5260205f2090810192821561017d579160200282015b8281111561017c578251825591602001919060010190610161565b5b50905061018a919061018e565b5090565b5b808211156101a5575f815f90555060010161018f565b5090565b5f81519050919050565b5f82825260208201905092915050565b5f819050602082019050919050565b5f819050919050565b6101e4816101d2565b82525050565b5f6101f583836101db565b60208301905092915050565b5f602082019050919050565b5f610217826101a9565b61022181856101b3565b935061022c836101c3565b805f5b8381101561025c57815161024388826101ea565b975061024e83610201565b92505060018101905061022f565b5085935050505092915050565b5f6020820190508181035f830152610281818461020d565b905092915050565b5f604051905090565b5f80fd5b5f80fd5b6102a3816101d2565b81146102ad575f80fd5b50565b5f813590506102be8161029a565b92915050565b5f602082840312156102d9576102d8610292565b5b5f6102e6848285016102b0565b91505092915050565b5f80fd5b5f601f19601f8301169050919050565b7f4e487b71000000000000000000000000000000000000000000000000000000005f52604160045260245ffd5b610339826102f3565b810181811067ffffffffffffffff8211171561035857610357610303565b5b80604052505050565b5f61036a610289565b90506103768282610330565b919050565b5f67ffffffffffffffff82111561039557610394610303565b5b602082029050602081019050919050565b5f80fd5b5f6103bc6103b78461037b565b610361565b905080838252602082019050602084028301858111156103df576103de6103a6565b5b835b8181101561040857806103f488826102b0565b8452602084019350506020810190506103e1565b5050509392505050565b5f82601f830112610426576104256102ef565b5b81356104368482602086016103aa565b91505092915050565b5f6020828403121561045457610453610292565b5b5f82013567ffffffffffffffff81111561047157610470610296565b5b61047d84828501610412565b91505092915050565b61048f816101d2565b82525050565b5f6020820190506104a85f830184610486565b9291505056fea2646970667358221220d5a2cee651a52f145f2e46b0043a5d9152a757aff57e1ec30e5612307982296c64736f6c634300081a0033",
					"opcodes": "PUSH1 0x80 PUSH1 0x40 MSTORE CALLVALUE DUP1 ISZERO PUSH1 0xE JUMPI PUSH0 DUP1 REVERT JUMPDEST POP PUSH2 0x4E4 DUP1 PUSH2 0x1C PUSH0 CODECOPY PUSH0 RETURN INVALID PUSH1 0x80 PUSH1 0x40 MSTORE CALLVALUE DUP1 ISZERO PUSH2 0xF JUMPI PUSH0 DUP1 REVERT JUMPDEST POP PUSH1 0x4 CALLDATASIZE LT PUSH2 0x4A JUMPI PUSH0 CALLDATALOAD PUSH1 0xE0 SHR DUP1 PUSH4 0x34BC938D EQ PUSH2 0x4E JUMPI DUP1 PUSH4 0x6057361D EQ PUSH2 0x6C JUMPI DUP1 PUSH4 0x75575446 EQ PUSH2 0x88 JUMPI DUP1 PUSH4 0xA6B7FC5B EQ PUSH2 0xA4 JUMPI JUMPDEST PUSH0 DUP1 REVERT JUMPDEST PUSH2 0x56 PUSH2 0xC2 JUMP JUMPDEST PUSH1 0x40 MLOAD PUSH2 0x63 SWAP2 SWAP1 PUSH2 0x269 JUMP JUMPDEST PUSH1 0x40 MLOAD DUP1 SWAP2 SUB SWAP1 RETURN JUMPDEST PUSH2 0x86 PUSH1 0x4 DUP1 CALLDATASIZE SUB DUP2 ADD SWAP1 PUSH2 0x81 SWAP2 SWAP1 PUSH2 0x2C4 JUMP JUMPDEST PUSH2 0x118 JUMP JUMPDEST STOP JUMPDEST PUSH2 0xA2 PUSH1 0x4 DUP1 CALLDATASIZE SUB DUP2 ADD SWAP1 PUSH2 0x9D SWAP2 SWAP1 PUSH2 0x43F JUMP JUMPDEST PUSH2 0x121 JUMP JUMPDEST STOP JUMPDEST PUSH2 0xAC PUSH2 0x13B JUMP JUMPDEST PUSH1 0x40 MLOAD PUSH2 0xB9 SWAP2 SWAP1 PUSH2 0x495 JUMP JUMPDEST PUSH1 0x40 MLOAD DUP1 SWAP2 SUB SWAP1 RETURN JUMPDEST PUSH1 0x60 PUSH1 0x1 DUP1 SLOAD DUP1 PUSH1 0x20 MUL PUSH1 0x20 ADD PUSH1 0x40 MLOAD SWAP1 DUP2 ADD PUSH1 0x40 MSTORE DUP1 SWAP3 SWAP2 SWAP1 DUP2 DUP2 MSTORE PUSH1 0x20 ADD DUP3 DUP1 SLOAD DUP1 ISZERO PUSH2 0x10E JUMPI PUSH1 0x20 MUL DUP3 ADD SWAP2 SWAP1 PUSH0 MSTORE PUSH1 0x20 PUSH0 KECCAK256 SWAP1 JUMPDEST DUP2 SLOAD DUP2 MSTORE PUSH1 0x20 ADD SWAP1 PUSH1 0x1 ADD SWAP1 DUP1 DUP4 GT PUSH2 0xFA JUMPI JUMPDEST POP POP POP POP POP SWAP1 POP SWAP1 JUMP JUMPDEST DUP1 PUSH0 DUP2 SWAP1 SSTORE POP POP JUMP JUMPDEST DUP1 PUSH1 0x1 SWAP1 DUP1 MLOAD SWAP1 PUSH1 0x20 ADD SWAP1 PUSH2 0x137 SWAP3 SWAP2 SWAP1 PUSH2 0x143 JUMP JUMPDEST POP POP JUMP JUMPDEST PUSH0 DUP1 SLOAD SWAP1 POP SWAP1 JUMP JUMPDEST DUP3 DUP1 SLOAD DUP3 DUP3 SSTORE SWAP1 PUSH0 MSTORE PUSH1 0x20 PUSH0 KECCAK256 SWAP1 DUP2 ADD SWAP3 DUP3 ISZERO PUSH2 0x17D JUMPI SWAP2 PUSH1 0x20 MUL DUP3 ADD JUMPDEST DUP3 DUP2 GT ISZERO PUSH2 0x17C JUMPI DUP3 MLOAD DUP3 SSTORE SWAP2 PUSH1 0x20 ADD SWAP2 SWAP1 PUSH1 0x1 ADD SWAP1 PUSH2 0x161 JUMP JUMPDEST JUMPDEST POP SWAP1 POP PUSH2 0x18A SWAP2 SWAP1 PUSH2 0x18E JUMP JUMPDEST POP SWAP1 JUMP JUMPDEST JUMPDEST DUP1 DUP3 GT ISZERO PUSH2 0x1A5 JUMPI PUSH0 DUP2 PUSH0 SWAP1 SSTORE POP PUSH1 0x1 ADD PUSH2 0x18F JUMP JUMPDEST POP SWAP1 JUMP JUMPDEST PUSH0 DUP2 MLOAD SWAP1 POP SWAP2 SWAP1 POP JUMP JUMPDEST PUSH0 DUP3 DUP3 MSTORE PUSH1 0x20 DUP3 ADD SWAP1 POP SWAP3 SWAP2 POP POP JUMP JUMPDEST PUSH0 DUP2 SWAP1 POP PUSH1 0x20 DUP3 ADD SWAP1 POP SWAP2 SWAP1 POP JUMP JUMPDEST PUSH0 DUP2 SWAP1 POP SWAP2 SWAP1 POP JUMP JUMPDEST PUSH2 0x1E4 DUP2 PUSH2 0x1D2 JUMP JUMPDEST DUP3 MSTORE POP POP JUMP JUMPDEST PUSH0 PUSH2 0x1F5 DUP4 DUP4 PUSH2 0x1DB JUMP JUMPDEST PUSH1 0x20 DUP4 ADD SWAP1 POP SWAP3 SWAP2 POP POP JUMP JUMPDEST PUSH0 PUSH1 0x20 DUP3 ADD SWAP1 POP SWAP2 SWAP1 POP JUMP JUMPDEST PUSH0 PUSH2 0x217 DUP3 PUSH2 0x1A9 JUMP JUMPDEST PUSH2 0x221 DUP2 DUP6 PUSH2 0x1B3 JUMP JUMPDEST SWAP4 POP PUSH2 0x22C DUP4 PUSH2 0x1C3 JUMP JUMPDEST DUP1 PUSH0 JUMPDEST DUP4 DUP2 LT ISZERO PUSH2 0x25C JUMPI DUP2 MLOAD PUSH2 0x243 DUP9 DUP3 PUSH2 0x1EA JUMP JUMPDEST SWAP8 POP PUSH2 0x24E DUP4 PUSH2 0x201 JUMP JUMPDEST SWAP3 POP POP PUSH1 0x1 DUP2 ADD SWAP1 POP PUSH2 0x22F JUMP JUMPDEST POP DUP6 SWAP4 POP POP POP POP SWAP3 SWAP2 POP POP JUMP JUMPDEST PUSH0 PUSH1 0x20 DUP3 ADD SWAP1 POP DUP2 DUP2 SUB PUSH0 DUP4 ADD MSTORE PUSH2 0x281 DUP2 DUP5 PUSH2 0x20D JUMP JUMPDEST SWAP1 POP SWAP3 SWAP2 POP POP JUMP JUMPDEST PUSH0 PUSH1 0x40 MLOAD SWAP1 POP SWAP1 JUMP JUMPDEST PUSH0 DUP1 REVERT JUMPDEST PUSH0 DUP1 REVERT JUMPDEST PUSH2 0x2A3 DUP2 PUSH2 0x1D2 JUMP JUMPDEST DUP2 EQ PUSH2 0x2AD JUMPI PUSH0 DUP1 REVERT JUMPDEST POP JUMP JUMPDEST PUSH0 DUP2 CALLDATALOAD SWAP1 POP PUSH2 0x2BE DUP2 PUSH2 0x29A JUMP JUMPDEST SWAP3 SWAP2 POP POP JUMP JUMPDEST PUSH0 PUSH1 0x20 DUP3 DUP5 SUB SLT ISZERO PUSH2 0x2D9 JUMPI PUSH2 0x2D8 PUSH2 0x292 JUMP JUMPDEST JUMPDEST PUSH0 PUSH2 0x2E6 DUP5 DUP3 DUP6 ADD PUSH2 0x2B0 JUMP JUMPDEST SWAP2 POP POP SWAP3 SWAP2 POP POP JUMP JUMPDEST PUSH0 DUP1 REVERT JUMPDEST PUSH0 PUSH1 0x1F NOT PUSH1 0x1F DUP4 ADD AND SWAP1 POP SWAP2 SWAP1 POP JUMP JUMPDEST PUSH32 0x4E487B7100000000000000000000000000000000000000000000000000000000 PUSH0 MSTORE PUSH1 0x41 PUSH1 0x4 MSTORE PUSH1 0x24 PUSH0 REVERT JUMPDEST PUSH2 0x339 DUP3 PUSH2 0x2F3 JUMP JUMPDEST DUP2 ADD DUP2 DUP2 LT PUSH8 0xFFFFFFFFFFFFFFFF DUP3 GT OR ISZERO PUSH2 0x358 JUMPI PUSH2 0x357 PUSH2 0x303 JUMP JUMPDEST JUMPDEST DUP1 PUSH1 0x40 MSTORE POP POP POP JUMP JUMPDEST PUSH0 PUSH2 0x36A PUSH2 0x289 JUMP JUMPDEST SWAP1 POP PUSH2 0x376 DUP3 DUP3 PUSH2 0x330 JUMP JUMPDEST SWAP2 SWAP1 POP JUMP JUMPDEST PUSH0 PUSH8 0xFFFFFFFFFFFFFFFF DUP3 GT ISZERO PUSH2 0x395 JUMPI PUSH2 0x394 PUSH2 0x303 JUMP JUMPDEST JUMPDEST PUSH1 0x20 DUP3 MUL SWAP1 POP PUSH1 0x20 DUP2 ADD SWAP1 POP SWAP2 SWAP1 POP JUMP JUMPDEST PUSH0 DUP1 REVERT JUMPDEST PUSH0 PUSH2 0x3BC PUSH2 0x3B7 DUP5 PUSH2 0x37B JUMP JUMPDEST PUSH2 0x361 JUMP JUMPDEST SWAP1 POP DUP1 DUP4 DUP3 MSTORE PUSH1 0x20 DUP3 ADD SWAP1 POP PUSH1 0x20 DUP5 MUL DUP4 ADD DUP6 DUP2 GT ISZERO PUSH2 0x3DF JUMPI PUSH2 0x3DE PUSH2 0x3A6 JUMP JUMPDEST JUMPDEST DUP4 JUMPDEST DUP2 DUP2 LT ISZERO PUSH2 0x408 JUMPI DUP1 PUSH2 0x3F4 DUP9 DUP3 PUSH2 0x2B0 JUMP JUMPDEST DUP5 MSTORE PUSH1 0x20 DUP5 ADD SWAP4 POP POP PUSH1 0x20 DUP2 ADD SWAP1 POP PUSH2 0x3E1 JUMP JUMPDEST POP POP POP SWAP4 SWAP3 POP POP POP JUMP JUMPDEST PUSH0 DUP3 PUSH1 0x1F DUP4 ADD SLT PUSH2 0x426 JUMPI PUSH2 0x425 PUSH2 0x2EF JUMP JUMPDEST JUMPDEST DUP2 CALLDATALOAD PUSH2 0x436 DUP5 DUP3 PUSH1 0x20 DUP7 ADD PUSH2 0x3AA JUMP JUMPDEST SWAP2 POP POP SWAP3 SWAP2 POP POP JUMP JUMPDEST PUSH0 PUSH1 0x20 DUP3 DUP5 SUB SLT ISZERO PUSH2 0x454 JUMPI PUSH2 0x453 PUSH2 0x292 JUMP JUMPDEST JUMPDEST PUSH0 DUP3 ADD CALLDATALOAD PUSH8 0xFFFFFFFFFFFFFFFF DUP2 GT ISZERO PUSH2 0x471 JUMPI PUSH2 0x470 PUSH2 0x296 JUMP JUMPDEST JUMPDEST PUSH2 0x47D DUP5 DUP3 DUP6 ADD PUSH2 0x412 JUMP JUMPDEST SWAP2 POP POP SWAP3 SWAP2 POP POP JUMP JUMPDEST PUSH2 0x48F DUP2 PUSH2 0x1D2 JUMP JUMPDEST DUP3 MSTORE POP POP JUMP JUMPDEST PUSH0 PUSH1 0x20 DUP3 ADD SWAP1 POP PUSH2 0x4A8 PUSH0 DUP4 ADD DUP5 PUSH2 0x486 JUMP JUMPDEST SWAP3 SWAP2 POP POP JUMP INVALID LOG2 PUSH5 0x6970667358 0x22 SLT KECCAK256 0xD5 LOG2 0xCE 0xE6 MLOAD 0xA5 0x2F EQ PUSH0 0x2E CHAINID 0xB0 DIV GASPRICE TSTORE SWAP2 MSTORE 0xA7 JUMPI 0xAF CREATE2 PUSH31 0x1EC30E5612307982296C64736F6C634300081A003300000000000000000000 "
				},
				"gasEstimates": {
					"creation": {
						"codeDepositCost": "250400",
						"executionCost": "292",
						"totalCost": "250692"
					},
					"external": {
						"retrive()": "2476",
						"retriveList()": "infinite",
						"store(uint256)": "22514",
						"storeList(uint256[])": "infinite"
					}
				},
				"methodIdentifiers": {
					"retrive()": "a6b7fc5b",
					"retriveList()": "34bc938d",
					"store(uint256)": "6057361d",
					"storeList(uint256[])": "75575446"
				}
			},
			"storageLayout": {
				"storage": [
					{
						"astId": 3,
						"contract": "SimpleStorage.sol:SimpleStorage",
						"label": "myFavoriteNumber",
						"offset": 0,
						"slot": "0",
						"type": "t_uint256"
					},
					{
						"astId": 6,
						"contract": "SimpleStorage.sol:SimpleStorage",
						"label": "listOfFavouriteNumbers",
						"offset": 0,
						"slot": "1",
						"type": "t_array(t_uint256)dyn_storage"
					}
				],
				"types": {
					"t_array(t_uint256)dyn_storage": {
						"base": "t_uint256",
						"encoding": "dynamic_array",
						"label": "uint256[]",
						"numberOfBytes": "32"
					},
					"t_uint256": {
						"encoding": "inplace",
						"label": "uint256",
						"numberOfBytes": "32"
					}
				}
			},
			"userdoc": {
				"kind": "user",
				"methods": {},
				"version": 1
			}
		}
	}
}