{
	"BankFactory.sol": {
		"BankFactory": {
			"abi": [
				{
					"inputs": [],
					"name": "BankContract",
					"outputs": [
						{
							"internalType": "contract BankDetails",
							"name": "",
							"type": "address"
						}
					],
					"stateMutability": "view",
					"type": "function"
				},
				{
					"inputs": [
						{
							"internalType": "uint256",
							"name": "_accountNo",
							"type": "uint256"
						},
						{
							"internalType": "uint256",
							"name": "_depositAmount",
							"type": "uint256"
						}
					],
					"name": "bfDepositFund",
					"outputs": [],
					"stateMutability": "nonpayable",
					"type": "function"
				},
				{
					"inputs": [
						{
							"internalType": "uint256",
							"name": "_accountNo",
							"type": "uint256"
						}
					],
					"name": "bfGet",
					"outputs": [
						{
							"components": [
								{
									"internalType": "string",
									"name": "name",
									"type": "string"
								},
								{
									"internalType": "uint256",
									"name": "accountNo",
									"type": "uint256"
								},
								{
									"internalType": "uint256",
									"name": "accountBalance",
									"type": "uint256"
								}
							],
							"internalType": "struct BankDetails.Customer",
							"name": "",
							"type": "tuple"
						}
					],
					"stateMutability": "view",
					"type": "function"
				},
				{
					"inputs": [
						{
							"internalType": "string",
							"name": "_name",
							"type": "string"
						},
						{
							"internalType": "uint256",
							"name": "_accountNo",
							"type": "uint256"
						},
						{
							"internalType": "uint256",
							"name": "_accountBalance",
							"type": "uint256"
						}
					],
					"name": "bfStoreDetails",
					"outputs": [],
					"stateMutability": "nonpayable",
					"type": "function"
				},
				{
					"inputs": [],
					"name": "deployBankContract",
					"outputs": [],
					"stateMutability": "nonpayable",
					"type": "function"
				}
			],
			"devdoc": {
				"kind": "dev",
				"methods": {},
				"version": 1
			},
			"evm": {
				"assembly": "    /* \"BankFactory.sol\":107:752  contract BankFactory {... */\n  mstore(0x40, 0x80)\n  callvalue\n  dup1\n  iszero\n  tag_1\n  jumpi\n  0x00\n  dup1\n  revert\ntag_1:\n  pop\n  dataSize(sub_0)\n  dup1\n  dataOffset(sub_0)\n  0x00\n  codecopy\n  0x00\n  return\nstop\n\nsub_0: assembly {\n        /* \"BankFactory.sol\":107:752  contract BankFactory {... */\n      mstore(0x40, 0x80)\n      callvalue\n      dup1\n      iszero\n      tag_1\n      jumpi\n      0x00\n      dup1\n      revert\n    tag_1:\n      pop\n      jumpi(tag_2, lt(calldatasize, 0x04))\n      shr(0xe0, calldataload(0x00))\n      dup1\n      0x1d5d3679\n      eq\n      tag_3\n      jumpi\n      dup1\n      0x81deb00d\n      eq\n      tag_4\n      jumpi\n      dup1\n      0x93312ff0\n      eq\n      tag_5\n      jumpi\n      dup1\n      0xdee01b05\n      eq\n      tag_6\n      jumpi\n      dup1\n      0xe1a7e3de\n      eq\n      tag_7\n      jumpi\n    tag_2:\n      0x00\n      dup1\n      revert\n        /* \"BankFactory.sol\":598:750  function bfGet(uint256 _accountNo) public view returns (BankDetails.Customer memory) {... */\n    tag_3:\n      tag_8\n      0x04\n      dup1\n      calldatasize\n      sub\n      dup2\n      add\n      swap1\n      tag_9\n      swap2\n      swap1\n      tag_10\n      jump\t// in\n    tag_9:\n      tag_11\n      jump\t// in\n    tag_8:\n      mload(0x40)\n      tag_12\n      swap2\n      swap1\n      tag_13\n      jump\t// in\n    tag_12:\n      mload(0x40)\n      dup1\n      swap2\n      sub\n      swap1\n      return\n        /* \"BankFactory.sol\":172:258  function deployBankContract() public {... */\n    tag_4:\n      tag_14\n      tag_15\n      jump\t// in\n    tag_14:\n      stop\n        /* \"BankFactory.sol\":453:592  function bfDepositFund(uint256 _accountNo, uint256 _depositAmount) public {... */\n    tag_5:\n      tag_16\n      0x04\n      dup1\n      calldatasize\n      sub\n      dup2\n      add\n      swap1\n      tag_17\n      swap2\n      swap1\n      tag_18\n      jump\t// in\n    tag_17:\n      tag_19\n      jump\t// in\n    tag_16:\n      stop\n        /* \"BankFactory.sol\":134:165  BankDetails public BankContract */\n    tag_6:\n      tag_20\n      tag_21\n      jump\t// in\n    tag_20:\n      mload(0x40)\n      tag_22\n      swap2\n      swap1\n      tag_23\n      jump\t// in\n    tag_22:\n      mload(0x40)\n      dup1\n      swap2\n      sub\n      swap1\n      return\n        /* \"BankFactory.sol\":264:447  function bfStoreDetails(string memory _name, uint256 _accountNo, uint256 _accountBalance) public {... */\n    tag_7:\n      tag_24\n      0x04\n      dup1\n      calldatasize\n      sub\n      dup2\n      add\n      swap1\n      tag_25\n      swap2\n      swap1\n      tag_26\n      jump\t// in\n    tag_25:\n      tag_27\n      jump\t// in\n    tag_24:\n      stop\n        /* \"BankFactory.sol\":598:750  function bfGet(uint256 _accountNo) public view returns (BankDetails.Customer memory) {... */\n    tag_11:\n        /* \"BankFactory.sol\":654:681  BankDetails.Customer memory */\n      tag_28\n      tag_29\n      jump\t// in\n    tag_28:\n        /* \"BankFactory.sol\":700:712  BankContract */\n      0x00\n      dup1\n      sload\n      swap1\n      0x0100\n      exp\n      swap1\n      div\n      0xffffffffffffffffffffffffffffffffffffffff\n      and\n        /* \"BankFactory.sol\":700:731  BankContract.getCustomerDetails */\n      0xffffffffffffffffffffffffffffffffffffffff\n      and\n      0x2c4ae716\n        /* \"BankFactory.sol\":732:742  _accountNo */\n      dup4\n        /* \"BankFactory.sol\":700:743  BankContract.getCustomerDetails(_accountNo) */\n      mload(0x40)\n      dup3\n      0xffffffff\n      and\n      0xe0\n      shl\n      dup2\n      mstore\n      0x04\n      add\n      tag_31\n      swap2\n      swap1\n      tag_32\n      jump\t// in\n    tag_31:\n      0x00\n      mload(0x40)\n      dup1\n      dup4\n      sub\n      dup2\n      dup7\n      gas\n      staticcall\n      iszero\n      dup1\n      iszero\n      tag_34\n      jumpi\n      returndatasize\n      0x00\n      dup1\n      returndatacopy\n      revert(0x00, returndatasize)\n    tag_34:\n      pop\n      pop\n      pop\n      pop\n      mload(0x40)\n      returndatasize\n      0x00\n      dup3\n      returndatacopy\n      returndatasize\n      not(0x1f)\n      0x1f\n      dup3\n      add\n      and\n      dup3\n      add\n      dup1\n      0x40\n      mstore\n      pop\n      dup2\n      add\n      swap1\n      tag_35\n      swap2\n      swap1\n      tag_36\n      jump\t// in\n    tag_35:\n        /* \"BankFactory.sol\":693:743  return BankContract.getCustomerDetails(_accountNo) */\n      swap1\n      pop\n        /* \"BankFactory.sol\":598:750  function bfGet(uint256 _accountNo) public view returns (BankDetails.Customer memory) {... */\n      swap2\n      swap1\n      pop\n      jump\t// out\n        /* \"BankFactory.sol\":172:258  function deployBankContract() public {... */\n    tag_15:\n        /* \"BankFactory.sol\":234:251  new BankDetails() */\n      mload(0x40)\n      tag_38\n      swap1\n      tag_39\n      jump\t// in\n    tag_38:\n      mload(0x40)\n      dup1\n      swap2\n      sub\n      swap1\n      0x00\n      create\n      dup1\n      iszero\n      dup1\n      iszero\n      tag_40\n      jumpi\n      returndatasize\n      0x00\n      dup1\n      returndatacopy\n      revert(0x00, returndatasize)\n    tag_40:\n      pop\n        /* \"BankFactory.sol\":219:231  BankContract */\n      0x00\n      dup1\n        /* \"BankFactory.sol\":219:251  BankContract = new BankDetails() */\n      0x0100\n      exp\n      dup2\n      sload\n      dup2\n      0xffffffffffffffffffffffffffffffffffffffff\n      mul\n      not\n      and\n      swap1\n      dup4\n      0xffffffffffffffffffffffffffffffffffffffff\n      and\n      mul\n      or\n      swap1\n      sstore\n      pop\n        /* \"BankFactory.sol\":172:258  function deployBankContract() public {... */\n      jump\t// out\n        /* \"BankFactory.sol\":453:592  function bfDepositFund(uint256 _accountNo, uint256 _depositAmount) public {... */\n    tag_19:\n        /* \"BankFactory.sol\":537:549  BankContract */\n      0x00\n      dup1\n      sload\n      swap1\n      0x0100\n      exp\n      swap1\n      div\n      0xffffffffffffffffffffffffffffffffffffffff\n      and\n        /* \"BankFactory.sol\":537:557  BankContract.deposit */\n      0xffffffffffffffffffffffffffffffffffffffff\n      and\n      0xe2bbb158\n        /* \"BankFactory.sol\":558:568  _accountNo */\n      dup4\n        /* \"BankFactory.sol\":570:584  _depositAmount */\n      dup4\n        /* \"BankFactory.sol\":537:585  BankContract.deposit(_accountNo, _depositAmount) */\n      mload(0x40)\n      dup4\n      0xffffffff\n      and\n      0xe0\n      shl\n      dup2\n      mstore\n      0x04\n      add\n      tag_42\n      swap3\n      swap2\n      swap1\n      tag_43\n      jump\t// in\n    tag_42:\n      0x00\n      mload(0x40)\n      dup1\n      dup4\n      sub\n      dup2\n      0x00\n      dup8\n      dup1\n      extcodesize\n      iszero\n      dup1\n      iszero\n      tag_44\n      jumpi\n      0x00\n      dup1\n      revert\n    tag_44:\n      pop\n      gas\n      call\n      iszero\n      dup1\n      iszero\n      tag_46\n      jumpi\n      returndatasize\n      0x00\n      dup1\n      returndatacopy\n      revert(0x00, returndatasize)\n    tag_46:\n      pop\n      pop\n      pop\n      pop\n        /* \"BankFactory.sol\":453:592  function bfDepositFund(uint256 _accountNo, uint256 _depositAmount) public {... */\n      pop\n      pop\n      jump\t// out\n        /* \"BankFactory.sol\":134:165  BankDetails public BankContract */\n    tag_21:\n      0x00\n      dup1\n      sload\n      swap1\n      0x0100\n      exp\n      swap1\n      div\n      0xffffffffffffffffffffffffffffffffffffffff\n      and\n      dup2\n      jump\t// out\n        /* \"BankFactory.sol\":264:447  function bfStoreDetails(string memory _name, uint256 _accountNo, uint256 _accountBalance) public {... */\n    tag_27:\n        /* \"BankFactory.sol\":371:383  BankContract */\n      0x00\n      dup1\n      sload\n      swap1\n      0x0100\n      exp\n      swap1\n      div\n      0xffffffffffffffffffffffffffffffffffffffff\n      and\n        /* \"BankFactory.sol\":371:404  BankContract.storeCustomerDetails */\n      0xffffffffffffffffffffffffffffffffffffffff\n      and\n      0x8b16652e\n        /* \"BankFactory.sol\":405:410  _name */\n      dup5\n        /* \"BankFactory.sol\":412:422  _accountNo */\n      dup5\n        /* \"BankFactory.sol\":424:439  _accountBalance */\n      dup5\n        /* \"BankFactory.sol\":371:440  BankContract.storeCustomerDetails(_name, _accountNo, _accountBalance) */\n      mload(0x40)\n      dup5\n      0xffffffff\n      and\n      0xe0\n      shl\n      dup2\n      mstore\n      0x04\n      add\n      tag_48\n      swap4\n      swap3\n      swap2\n      swap1\n      tag_49\n      jump\t// in\n    tag_48:\n      0x00\n      mload(0x40)\n      dup1\n      dup4\n      sub\n      dup2\n      0x00\n      dup8\n      dup1\n      extcodesize\n      iszero\n      dup1\n      iszero\n      tag_50\n      jumpi\n      0x00\n      dup1\n      revert\n    tag_50:\n      pop\n      gas\n      call\n      iszero\n      dup1\n      iszero\n      tag_52\n      jumpi\n      returndatasize\n      0x00\n      dup1\n      returndatacopy\n      revert(0x00, returndatasize)\n    tag_52:\n      pop\n      pop\n      pop\n      pop\n        /* \"BankFactory.sol\":264:447  function bfStoreDetails(string memory _name, uint256 _accountNo, uint256 _accountBalance) public {... */\n      pop\n      pop\n      pop\n      jump\t// out\n    tag_29:\n      mload(0x40)\n      dup1\n      0x60\n      add\n      0x40\n      mstore\n      dup1\n      0x60\n      dup2\n      mstore\n      0x20\n      add\n      0x00\n      dup2\n      mstore\n      0x20\n      add\n      0x00\n      dup2\n      mstore\n      pop\n      swap1\n      jump\t// out\n    tag_39:\n      dataSize(sub_0)\n      dup1\n      dataOffset(sub_0)\n      dup4\n      codecopy\n      add\n      swap1\n      jump\t// out\n        /* \"#utility.yul\":7:82   */\n    tag_53:\n        /* \"#utility.yul\":40:46   */\n      0x00\n        /* \"#utility.yul\":73:75   */\n      0x40\n        /* \"#utility.yul\":67:76   */\n      mload\n        /* \"#utility.yul\":57:76   */\n      swap1\n      pop\n        /* \"#utility.yul\":7:82   */\n      swap1\n      jump\t// out\n        /* \"#utility.yul\":88:205   */\n    tag_54:\n        /* \"#utility.yul\":197:198   */\n      0x00\n        /* \"#utility.yul\":194:195   */\n      dup1\n        /* \"#utility.yul\":187:199   */\n      revert\n        /* \"#utility.yul\":211:328   */\n    tag_55:\n        /* \"#utility.yul\":320:321   */\n      0x00\n        /* \"#utility.yul\":317:318   */\n      dup1\n        /* \"#utility.yul\":310:322   */\n      revert\n        /* \"#utility.yul\":334:411   */\n    tag_56:\n        /* \"#utility.yul\":371:378   */\n      0x00\n        /* \"#utility.yul\":400:405   */\n      dup2\n        /* \"#utility.yul\":389:405   */\n      swap1\n      pop\n        /* \"#utility.yul\":334:411   */\n      swap2\n      swap1\n      pop\n      jump\t// out\n        /* \"#utility.yul\":417:539   */\n    tag_57:\n        /* \"#utility.yul\":490:514   */\n      tag_96\n        /* \"#utility.yul\":508:513   */\n      dup2\n        /* \"#utility.yul\":490:514   */\n      tag_56\n      jump\t// in\n    tag_96:\n        /* \"#utility.yul\":483:488   */\n      dup2\n        /* \"#utility.yul\":480:515   */\n      eq\n        /* \"#utility.yul\":470:533   */\n      tag_97\n      jumpi\n        /* \"#utility.yul\":529:530   */\n      0x00\n        /* \"#utility.yul\":526:527   */\n      dup1\n        /* \"#utility.yul\":519:531   */\n      revert\n        /* \"#utility.yul\":470:533   */\n    tag_97:\n        /* \"#utility.yul\":417:539   */\n      pop\n      jump\t// out\n        /* \"#utility.yul\":545:684   */\n    tag_58:\n        /* \"#utility.yul\":591:596   */\n      0x00\n        /* \"#utility.yul\":629:635   */\n      dup2\n        /* \"#utility.yul\":616:636   */\n      calldataload\n        /* \"#utility.yul\":607:636   */\n      swap1\n      pop\n        /* \"#utility.yul\":645:678   */\n      tag_99\n        /* \"#utility.yul\":672:677   */\n      dup2\n        /* \"#utility.yul\":645:678   */\n      tag_57\n      jump\t// in\n    tag_99:\n        /* \"#utility.yul\":545:684   */\n      swap3\n      swap2\n      pop\n      pop\n      jump\t// out\n        /* \"#utility.yul\":690:1019   */\n    tag_10:\n        /* \"#utility.yul\":749:755   */\n      0x00\n        /* \"#utility.yul\":798:800   */\n      0x20\n        /* \"#utility.yul\":786:795   */\n      dup3\n        /* \"#utility.yul\":777:784   */\n      dup5\n        /* \"#utility.yul\":773:796   */\n      sub\n        /* \"#utility.yul\":769:801   */\n      slt\n        /* \"#utility.yul\":766:885   */\n      iszero\n      tag_101\n      jumpi\n        /* \"#utility.yul\":804:883   */\n      tag_102\n      tag_54\n      jump\t// in\n    tag_102:\n        /* \"#utility.yul\":766:885   */\n    tag_101:\n        /* \"#utility.yul\":924:925   */\n      0x00\n        /* \"#utility.yul\":949:1002   */\n      tag_103\n        /* \"#utility.yul\":994:1001   */\n      dup5\n        /* \"#utility.yul\":985:991   */\n      dup3\n        /* \"#utility.yul\":974:983   */\n      dup6\n        /* \"#utility.yul\":970:992   */\n      add\n        /* \"#utility.yul\":949:1002   */\n      tag_58\n      jump\t// in\n    tag_103:\n        /* \"#utility.yul\":939:1002   */\n      swap2\n      pop\n        /* \"#utility.yul\":895:1012   */\n      pop\n        /* \"#utility.yul\":690:1019   */\n      swap3\n      swap2\n      pop\n      pop\n      jump\t// out\n        /* \"#utility.yul\":1025:1124   */\n    tag_59:\n        /* \"#utility.yul\":1077:1083   */\n      0x00\n        /* \"#utility.yul\":1111:1116   */\n      dup2\n        /* \"#utility.yul\":1105:1117   */\n      mload\n        /* \"#utility.yul\":1095:1117   */\n      swap1\n      pop\n        /* \"#utility.yul\":1025:1124   */\n      swap2\n      swap1\n      pop\n      jump\t// out\n        /* \"#utility.yul\":1130:1289   */\n    tag_60:\n        /* \"#utility.yul\":1204:1215   */\n      0x00\n        /* \"#utility.yul\":1238:1244   */\n      dup3\n        /* \"#utility.yul\":1233:1236   */\n      dup3\n        /* \"#utility.yul\":1226:1245   */\n      mstore\n        /* \"#utility.yul\":1278:1282   */\n      0x20\n        /* \"#utility.yul\":1273:1276   */\n      dup3\n        /* \"#utility.yul\":1269:1283   */\n      add\n        /* \"#utility.yul\":1254:1283   */\n      swap1\n      pop\n        /* \"#utility.yul\":1130:1289   */\n      swap3\n      swap2\n      pop\n      pop\n      jump\t// out\n        /* \"#utility.yul\":1295:1434   */\n    tag_61:\n        /* \"#utility.yul\":1384:1390   */\n      dup3\n        /* \"#utility.yul\":1379:1382   */\n      dup2\n        /* \"#utility.yul\":1374:1377   */\n      dup4\n        /* \"#utility.yul\":1368:1391   */\n      mcopy\n        /* \"#utility.yul\":1425:1426   */\n      0x00\n        /* \"#utility.yul\":1416:1422   */\n      dup4\n        /* \"#utility.yul\":1411:1414   */\n      dup4\n        /* \"#utility.yul\":1407:1423   */\n      add\n        /* \"#utility.yul\":1400:1427   */\n      mstore\n        /* \"#utility.yul\":1295:1434   */\n      pop\n      pop\n      pop\n      jump\t// out\n        /* \"#utility.yul\":1440:1542   */\n    tag_62:\n        /* \"#utility.yul\":1481:1487   */\n      0x00\n        /* \"#utility.yul\":1532:1534   */\n      0x1f\n        /* \"#utility.yul\":1528:1535   */\n      not\n        /* \"#utility.yul\":1523:1525   */\n      0x1f\n        /* \"#utility.yul\":1516:1521   */\n      dup4\n        /* \"#utility.yul\":1512:1526   */\n      add\n        /* \"#utility.yul\":1508:1536   */\n      and\n        /* \"#utility.yul\":1498:1536   */\n      swap1\n      pop\n        /* \"#utility.yul\":1440:1542   */\n      swap2\n      swap1\n      pop\n      jump\t// out\n        /* \"#utility.yul\":1548:1905   */\n    tag_63:\n        /* \"#utility.yul\":1626:1629   */\n      0x00\n        /* \"#utility.yul\":1654:1693   */\n      tag_109\n        /* \"#utility.yul\":1687:1692   */\n      dup3\n        /* \"#utility.yul\":1654:1693   */\n      tag_59\n      jump\t// in\n    tag_109:\n        /* \"#utility.yul\":1709:1770   */\n      tag_110\n        /* \"#utility.yul\":1763:1769   */\n      dup2\n        /* \"#utility.yul\":1758:1761   */\n      dup6\n        /* \"#utility.yul\":1709:1770   */\n      tag_60\n      jump\t// in\n    tag_110:\n        /* \"#utility.yul\":1702:1770   */\n      swap4\n      pop\n        /* \"#utility.yul\":1779:1844   */\n      tag_111\n        /* \"#utility.yul\":1837:1843   */\n      dup2\n        /* \"#utility.yul\":1832:1835   */\n      dup6\n        /* \"#utility.yul\":1825:1829   */\n      0x20\n        /* \"#utility.yul\":1818:1823   */\n      dup7\n        /* \"#utility.yul\":1814:1830   */\n      add\n        /* \"#utility.yul\":1779:1844   */\n      tag_61\n      jump\t// in\n    tag_111:\n        /* \"#utility.yul\":1869:1898   */\n      tag_112\n        /* \"#utility.yul\":1891:1897   */\n      dup2\n        /* \"#utility.yul\":1869:1898   */\n      tag_62\n      jump\t// in\n    tag_112:\n        /* \"#utility.yul\":1864:1867   */\n      dup5\n        /* \"#utility.yul\":1860:1899   */\n      add\n        /* \"#utility.yul\":1853:1899   */\n      swap2\n      pop\n        /* \"#utility.yul\":1630:1905   */\n      pop\n        /* \"#utility.yul\":1548:1905   */\n      swap3\n      swap2\n      pop\n      pop\n      jump\t// out\n        /* \"#utility.yul\":1911:2019   */\n    tag_64:\n        /* \"#utility.yul\":1988:2012   */\n      tag_114\n        /* \"#utility.yul\":2006:2011   */\n      dup2\n        /* \"#utility.yul\":1988:2012   */\n      tag_56\n      jump\t// in\n    tag_114:\n        /* \"#utility.yul\":1983:1986   */\n      dup3\n        /* \"#utility.yul\":1976:2013   */\n      mstore\n        /* \"#utility.yul\":1911:2019   */\n      pop\n      pop\n      jump\t// out\n        /* \"#utility.yul\":2091:2882   */\n    tag_65:\n        /* \"#utility.yul\":2206:2209   */\n      0x00\n        /* \"#utility.yul\":2242:2246   */\n      0x60\n        /* \"#utility.yul\":2237:2240   */\n      dup4\n        /* \"#utility.yul\":2233:2247   */\n      add\n        /* \"#utility.yul\":2329:2333   */\n      0x00\n        /* \"#utility.yul\":2322:2327   */\n      dup4\n        /* \"#utility.yul\":2318:2334   */\n      add\n        /* \"#utility.yul\":2312:2335   */\n      mload\n        /* \"#utility.yul\":2382:2385   */\n      dup5\n        /* \"#utility.yul\":2376:2380   */\n      dup3\n        /* \"#utility.yul\":2372:2386   */\n      sub\n        /* \"#utility.yul\":2365:2369   */\n      0x00\n        /* \"#utility.yul\":2360:2363   */\n      dup7\n        /* \"#utility.yul\":2356:2370   */\n      add\n        /* \"#utility.yul\":2349:2387   */\n      mstore\n        /* \"#utility.yul\":2408:2481   */\n      tag_116\n        /* \"#utility.yul\":2476:2480   */\n      dup3\n        /* \"#utility.yul\":2462:2474   */\n      dup3\n        /* \"#utility.yul\":2408:2481   */\n      tag_63\n      jump\t// in\n    tag_116:\n        /* \"#utility.yul\":2400:2481   */\n      swap2\n      pop\n        /* \"#utility.yul\":2257:2492   */\n      pop\n        /* \"#utility.yul\":2579:2583   */\n      0x20\n        /* \"#utility.yul\":2572:2577   */\n      dup4\n        /* \"#utility.yul\":2568:2584   */\n      add\n        /* \"#utility.yul\":2562:2585   */\n      mload\n        /* \"#utility.yul\":2598:2661   */\n      tag_117\n        /* \"#utility.yul\":2655:2659   */\n      0x20\n        /* \"#utility.yul\":2650:2653   */\n      dup7\n        /* \"#utility.yul\":2646:2660   */\n      add\n        /* \"#utility.yul\":2632:2644   */\n      dup3\n        /* \"#utility.yul\":2598:2661   */\n      tag_64\n      jump\t// in\n    tag_117:\n        /* \"#utility.yul\":2502:2671   */\n      pop\n        /* \"#utility.yul\":2763:2767   */\n      0x40\n        /* \"#utility.yul\":2756:2761   */\n      dup4\n        /* \"#utility.yul\":2752:2768   */\n      add\n        /* \"#utility.yul\":2746:2769   */\n      mload\n        /* \"#utility.yul\":2782:2845   */\n      tag_118\n        /* \"#utility.yul\":2839:2843   */\n      0x40\n        /* \"#utility.yul\":2834:2837   */\n      dup7\n        /* \"#utility.yul\":2830:2844   */\n      add\n        /* \"#utility.yul\":2816:2828   */\n      dup3\n        /* \"#utility.yul\":2782:2845   */\n      tag_64\n      jump\t// in\n    tag_118:\n        /* \"#utility.yul\":2681:2855   */\n      pop\n        /* \"#utility.yul\":2872:2876   */\n      dup1\n        /* \"#utility.yul\":2865:2876   */\n      swap2\n      pop\n        /* \"#utility.yul\":2211:2882   */\n      pop\n        /* \"#utility.yul\":2091:2882   */\n      swap3\n      swap2\n      pop\n      pop\n      jump\t// out\n        /* \"#utility.yul\":2888:3253   */\n    tag_13:\n        /* \"#utility.yul\":3027:3031   */\n      0x00\n        /* \"#utility.yul\":3065:3067   */\n      0x20\n        /* \"#utility.yul\":3054:3063   */\n      dup3\n        /* \"#utility.yul\":3050:3068   */\n      add\n        /* \"#utility.yul\":3042:3068   */\n      swap1\n      pop\n        /* \"#utility.yul\":3114:3123   */\n      dup2\n        /* \"#utility.yul\":3108:3112   */\n      dup2\n        /* \"#utility.yul\":3104:3124   */\n      sub\n        /* \"#utility.yul\":3100:3101   */\n      0x00\n        /* \"#utility.yul\":3089:3098   */\n      dup4\n        /* \"#utility.yul\":3085:3102   */\n      add\n        /* \"#utility.yul\":3078:3125   */\n      mstore\n        /* \"#utility.yul\":3142:3246   */\n      tag_120\n        /* \"#utility.yul\":3241:3245   */\n      dup2\n        /* \"#utility.yul\":3232:3238   */\n      dup5\n        /* \"#utility.yul\":3142:3246   */\n      tag_65\n      jump\t// in\n    tag_120:\n        /* \"#utility.yul\":3134:3246   */\n      swap1\n      pop\n        /* \"#utility.yul\":2888:3253   */\n      swap3\n      swap2\n      pop\n      pop\n      jump\t// out\n        /* \"#utility.yul\":3259:3733   */\n    tag_18:\n        /* \"#utility.yul\":3327:3333   */\n      0x00\n        /* \"#utility.yul\":3335:3341   */\n      dup1\n        /* \"#utility.yul\":3384:3386   */\n      0x40\n        /* \"#utility.yul\":3372:3381   */\n      dup4\n        /* \"#utility.yul\":3363:3370   */\n      dup6\n        /* \"#utility.yul\":3359:3382   */\n      sub\n        /* \"#utility.yul\":3355:3387   */\n      slt\n        /* \"#utility.yul\":3352:3471   */\n      iszero\n      tag_122\n      jumpi\n        /* \"#utility.yul\":3390:3469   */\n      tag_123\n      tag_54\n      jump\t// in\n    tag_123:\n        /* \"#utility.yul\":3352:3471   */\n    tag_122:\n        /* \"#utility.yul\":3510:3511   */\n      0x00\n        /* \"#utility.yul\":3535:3588   */\n      tag_124\n        /* \"#utility.yul\":3580:3587   */\n      dup6\n        /* \"#utility.yul\":3571:3577   */\n      dup3\n        /* \"#utility.yul\":3560:3569   */\n      dup7\n        /* \"#utility.yul\":3556:3578   */\n      add\n        /* \"#utility.yul\":3535:3588   */\n      tag_58\n      jump\t// in\n    tag_124:\n        /* \"#utility.yul\":3525:3588   */\n      swap3\n      pop\n        /* \"#utility.yul\":3481:3598   */\n      pop\n        /* \"#utility.yul\":3637:3639   */\n      0x20\n        /* \"#utility.yul\":3663:3716   */\n      tag_125\n        /* \"#utility.yul\":3708:3715   */\n      dup6\n        /* \"#utility.yul\":3699:3705   */\n      dup3\n        /* \"#utility.yul\":3688:3697   */\n      dup7\n        /* \"#utility.yul\":3684:3706   */\n      add\n        /* \"#utility.yul\":3663:3716   */\n      tag_58\n      jump\t// in\n    tag_125:\n        /* \"#utility.yul\":3653:3716   */\n      swap2\n      pop\n        /* \"#utility.yul\":3608:3726   */\n      pop\n        /* \"#utility.yul\":3259:3733   */\n      swap3\n      pop\n      swap3\n      swap1\n      pop\n      jump\t// out\n        /* \"#utility.yul\":3739:3865   */\n    tag_66:\n        /* \"#utility.yul\":3776:3783   */\n      0x00\n        /* \"#utility.yul\":3816:3858   */\n      0xffffffffffffffffffffffffffffffffffffffff\n        /* \"#utility.yul\":3809:3814   */\n      dup3\n        /* \"#utility.yul\":3805:3859   */\n      and\n        /* \"#utility.yul\":3794:3859   */\n      swap1\n      pop\n        /* \"#utility.yul\":3739:3865   */\n      swap2\n      swap1\n      pop\n      jump\t// out\n        /* \"#utility.yul\":3871:3931   */\n    tag_67:\n        /* \"#utility.yul\":3899:3902   */\n      0x00\n        /* \"#utility.yul\":3920:3925   */\n      dup2\n        /* \"#utility.yul\":3913:3925   */\n      swap1\n      pop\n        /* \"#utility.yul\":3871:3931   */\n      swap2\n      swap1\n      pop\n      jump\t// out\n        /* \"#utility.yul\":3937:4079   */\n    tag_68:\n        /* \"#utility.yul\":3987:3996   */\n      0x00\n        /* \"#utility.yul\":4020:4073   */\n      tag_129\n        /* \"#utility.yul\":4038:4072   */\n      tag_130\n        /* \"#utility.yul\":4047:4071   */\n      tag_131\n        /* \"#utility.yul\":4065:4070   */\n      dup5\n        /* \"#utility.yul\":4047:4071   */\n      tag_66\n      jump\t// in\n    tag_131:\n        /* \"#utility.yul\":4038:4072   */\n      tag_67\n      jump\t// in\n    tag_130:\n        /* \"#utility.yul\":4020:4073   */\n      tag_66\n      jump\t// in\n    tag_129:\n        /* \"#utility.yul\":4007:4073   */\n      swap1\n      pop\n        /* \"#utility.yul\":3937:4079   */\n      swap2\n      swap1\n      pop\n      jump\t// out\n        /* \"#utility.yul\":4085:4211   */\n    tag_69:\n        /* \"#utility.yul\":4135:4144   */\n      0x00\n        /* \"#utility.yul\":4168:4205   */\n      tag_133\n        /* \"#utility.yul\":4199:4204   */\n      dup3\n        /* \"#utility.yul\":4168:4205   */\n      tag_68\n      jump\t// in\n    tag_133:\n        /* \"#utility.yul\":4155:4205   */\n      swap1\n      pop\n        /* \"#utility.yul\":4085:4211   */\n      swap2\n      swap1\n      pop\n      jump\t// out\n        /* \"#utility.yul\":4217:4362   */\n    tag_70:\n        /* \"#utility.yul\":4286:4295   */\n      0x00\n        /* \"#utility.yul\":4319:4356   */\n      tag_135\n        /* \"#utility.yul\":4350:4355   */\n      dup3\n        /* \"#utility.yul\":4319:4356   */\n      tag_69\n      jump\t// in\n    tag_135:\n        /* \"#utility.yul\":4306:4356   */\n      swap1\n      pop\n        /* \"#utility.yul\":4217:4362   */\n      swap2\n      swap1\n      pop\n      jump\t// out\n        /* \"#utility.yul\":4368:4537   */\n    tag_71:\n        /* \"#utility.yul\":4474:4530   */\n      tag_137\n        /* \"#utility.yul\":4524:4529   */\n      dup2\n        /* \"#utility.yul\":4474:4530   */\n      tag_70\n      jump\t// in\n    tag_137:\n        /* \"#utility.yul\":4469:4472   */\n      dup3\n        /* \"#utility.yul\":4462:4531   */\n      mstore\n        /* \"#utility.yul\":4368:4537   */\n      pop\n      pop\n      jump\t// out\n        /* \"#utility.yul\":4543:4803   */\n    tag_23:\n        /* \"#utility.yul\":4655:4659   */\n      0x00\n        /* \"#utility.yul\":4693:4695   */\n      0x20\n        /* \"#utility.yul\":4682:4691   */\n      dup3\n        /* \"#utility.yul\":4678:4696   */\n      add\n        /* \"#utility.yul\":4670:4696   */\n      swap1\n      pop\n        /* \"#utility.yul\":4706:4796   */\n      tag_139\n        /* \"#utility.yul\":4793:4794   */\n      0x00\n        /* \"#utility.yul\":4782:4791   */\n      dup4\n        /* \"#utility.yul\":4778:4795   */\n      add\n        /* \"#utility.yul\":4769:4775   */\n      dup5\n        /* \"#utility.yul\":4706:4796   */\n      tag_71\n      jump\t// in\n    tag_139:\n        /* \"#utility.yul\":4543:4803   */\n      swap3\n      swap2\n      pop\n      pop\n      jump\t// out\n        /* \"#utility.yul\":4809:4926   */\n    tag_72:\n        /* \"#utility.yul\":4918:4919   */\n      0x00\n        /* \"#utility.yul\":4915:4916   */\n      dup1\n        /* \"#utility.yul\":4908:4920   */\n      revert\n        /* \"#utility.yul\":4932:5049   */\n    tag_73:\n        /* \"#utility.yul\":5041:5042   */\n      0x00\n        /* \"#utility.yul\":5038:5039   */\n      dup1\n        /* \"#utility.yul\":5031:5043   */\n      revert\n        /* \"#utility.yul\":5055:5235   */\n    tag_74:\n        /* \"#utility.yul\":5103:5180   */\n      0x4e487b7100000000000000000000000000000000000000000000000000000000\n        /* \"#utility.yul\":5100:5101   */\n      0x00\n        /* \"#utility.yul\":5093:5181   */\n      mstore\n        /* \"#utility.yul\":5200:5204   */\n      0x41\n        /* \"#utility.yul\":5197:5198   */\n      0x04\n        /* \"#utility.yul\":5190:5205   */\n      mstore\n        /* \"#utility.yul\":5224:5228   */\n      0x24\n        /* \"#utility.yul\":5221:5222   */\n      0x00\n        /* \"#utility.yul\":5214:5229   */\n      revert\n        /* \"#utility.yul\":5241:5522   */\n    tag_75:\n        /* \"#utility.yul\":5324:5351   */\n      tag_144\n        /* \"#utility.yul\":5346:5350   */\n      dup3\n        /* \"#utility.yul\":5324:5351   */\n      tag_62\n      jump\t// in\n    tag_144:\n        /* \"#utility.yul\":5316:5322   */\n      dup2\n        /* \"#utility.yul\":5312:5352   */\n      add\n        /* \"#utility.yul\":5454:5460   */\n      dup2\n        /* \"#utility.yul\":5442:5452   */\n      dup2\n        /* \"#utility.yul\":5439:5461   */\n      lt\n        /* \"#utility.yul\":5418:5436   */\n      0xffffffffffffffff\n        /* \"#utility.yul\":5406:5416   */\n      dup3\n        /* \"#utility.yul\":5403:5437   */\n      gt\n        /* \"#utility.yul\":5400:5462   */\n      or\n        /* \"#utility.yul\":5397:5485   */\n      iszero\n      tag_145\n      jumpi\n        /* \"#utility.yul\":5465:5483   */\n      tag_146\n      tag_74\n      jump\t// in\n    tag_146:\n        /* \"#utility.yul\":5397:5485   */\n    tag_145:\n        /* \"#utility.yul\":5505:5515   */\n      dup1\n        /* \"#utility.yul\":5501:5503   */\n      0x40\n        /* \"#utility.yul\":5494:5516   */\n      mstore\n        /* \"#utility.yul\":5284:5522   */\n      pop\n        /* \"#utility.yul\":5241:5522   */\n      pop\n      pop\n      jump\t// out\n        /* \"#utility.yul\":5528:5657   */\n    tag_76:\n        /* \"#utility.yul\":5562:5568   */\n      0x00\n        /* \"#utility.yul\":5589:5609   */\n      tag_148\n      tag_53\n      jump\t// in\n    tag_148:\n        /* \"#utility.yul\":5579:5609   */\n      swap1\n      pop\n        /* \"#utility.yul\":5618:5651   */\n      tag_149\n        /* \"#utility.yul\":5646:5650   */\n      dup3\n        /* \"#utility.yul\":5638:5644   */\n      dup3\n        /* \"#utility.yul\":5618:5651   */\n      tag_75\n      jump\t// in\n    tag_149:\n        /* \"#utility.yul\":5528:5657   */\n      swap2\n      swap1\n      pop\n      jump\t// out\n        /* \"#utility.yul\":5663:5971   */\n    tag_77:\n        /* \"#utility.yul\":5725:5729   */\n      0x00\n        /* \"#utility.yul\":5815:5833   */\n      0xffffffffffffffff\n        /* \"#utility.yul\":5807:5813   */\n      dup3\n        /* \"#utility.yul\":5804:5834   */\n      gt\n        /* \"#utility.yul\":5801:5857   */\n      iszero\n      tag_151\n      jumpi\n        /* \"#utility.yul\":5837:5855   */\n      tag_152\n      tag_74\n      jump\t// in\n    tag_152:\n        /* \"#utility.yul\":5801:5857   */\n    tag_151:\n        /* \"#utility.yul\":5875:5904   */\n      tag_153\n        /* \"#utility.yul\":5897:5903   */\n      dup3\n        /* \"#utility.yul\":5875:5904   */\n      tag_62\n      jump\t// in\n    tag_153:\n        /* \"#utility.yul\":5867:5904   */\n      swap1\n      pop\n        /* \"#utility.yul\":5959:5963   */\n      0x20\n        /* \"#utility.yul\":5953:5957   */\n      dup2\n        /* \"#utility.yul\":5949:5964   */\n      add\n        /* \"#utility.yul\":5941:5964   */\n      swap1\n      pop\n        /* \"#utility.yul\":5663:5971   */\n      swap2\n      swap1\n      pop\n      jump\t// out\n        /* \"#utility.yul\":5977:6125   */\n    tag_78:\n        /* \"#utility.yul\":6075:6081   */\n      dup3\n        /* \"#utility.yul\":6070:6073   */\n      dup2\n        /* \"#utility.yul\":6065:6068   */\n      dup4\n        /* \"#utility.yul\":6052:6082   */\n      calldatacopy\n        /* \"#utility.yul\":6116:6117   */\n      0x00\n        /* \"#utility.yul\":6107:6113   */\n      dup4\n        /* \"#utility.yul\":6102:6105   */\n      dup4\n        /* \"#utility.yul\":6098:6114   */\n      add\n        /* \"#utility.yul\":6091:6118   */\n      mstore\n        /* \"#utility.yul\":5977:6125   */\n      pop\n      pop\n      pop\n      jump\t// out\n        /* \"#utility.yul\":6131:6556   */\n    tag_79:\n        /* \"#utility.yul\":6209:6214   */\n      0x00\n        /* \"#utility.yul\":6234:6300   */\n      tag_156\n        /* \"#utility.yul\":6250:6299   */\n      tag_157\n        /* \"#utility.yul\":6292:6298   */\n      dup5\n        /* \"#utility.yul\":6250:6299   */\n      tag_77\n      jump\t// in\n    tag_157:\n        /* \"#utility.yul\":6234:6300   */\n      tag_76\n      jump\t// in\n    tag_156:\n        /* \"#utility.yul\":6225:6300   */\n      swap1\n      pop\n        /* \"#utility.yul\":6323:6329   */\n      dup3\n        /* \"#utility.yul\":6316:6321   */\n      dup2\n        /* \"#utility.yul\":6309:6330   */\n      mstore\n        /* \"#utility.yul\":6361:6365   */\n      0x20\n        /* \"#utility.yul\":6354:6359   */\n      dup2\n        /* \"#utility.yul\":6350:6366   */\n      add\n        /* \"#utility.yul\":6399:6402   */\n      dup5\n        /* \"#utility.yul\":6390:6396   */\n      dup5\n        /* \"#utility.yul\":6385:6388   */\n      dup5\n        /* \"#utility.yul\":6381:6397   */\n      add\n        /* \"#utility.yul\":6378:6403   */\n      gt\n        /* \"#utility.yul\":6375:6487   */\n      iszero\n      tag_158\n      jumpi\n        /* \"#utility.yul\":6406:6485   */\n      tag_159\n      tag_73\n      jump\t// in\n    tag_159:\n        /* \"#utility.yul\":6375:6487   */\n    tag_158:\n        /* \"#utility.yul\":6496:6550   */\n      tag_160\n        /* \"#utility.yul\":6543:6549   */\n      dup5\n        /* \"#utility.yul\":6538:6541   */\n      dup3\n        /* \"#utility.yul\":6533:6536   */\n      dup6\n        /* \"#utility.yul\":6496:6550   */\n      tag_78\n      jump\t// in\n    tag_160:\n        /* \"#utility.yul\":6215:6556   */\n      pop\n        /* \"#utility.yul\":6131:6556   */\n      swap4\n      swap3\n      pop\n      pop\n      pop\n      jump\t// out\n        /* \"#utility.yul\":6576:6916   */\n    tag_80:\n        /* \"#utility.yul\":6632:6637   */\n      0x00\n        /* \"#utility.yul\":6681:6684   */\n      dup3\n        /* \"#utility.yul\":6674:6678   */\n      0x1f\n        /* \"#utility.yul\":6666:6672   */\n      dup4\n        /* \"#utility.yul\":6662:6679   */\n      add\n        /* \"#utility.yul\":6658:6685   */\n      slt\n        /* \"#utility.yul\":6648:6770   */\n      tag_162\n      jumpi\n        /* \"#utility.yul\":6689:6768   */\n      tag_163\n      tag_72\n      jump\t// in\n    tag_163:\n        /* \"#utility.yul\":6648:6770   */\n    tag_162:\n        /* \"#utility.yul\":6806:6812   */\n      dup2\n        /* \"#utility.yul\":6793:6813   */\n      calldataload\n        /* \"#utility.yul\":6831:6910   */\n      tag_164\n        /* \"#utility.yul\":6906:6909   */\n      dup5\n        /* \"#utility.yul\":6898:6904   */\n      dup3\n        /* \"#utility.yul\":6891:6895   */\n      0x20\n        /* \"#utility.yul\":6883:6889   */\n      dup7\n        /* \"#utility.yul\":6879:6896   */\n      add\n        /* \"#utility.yul\":6831:6910   */\n      tag_79\n      jump\t// in\n    tag_164:\n        /* \"#utility.yul\":6822:6910   */\n      swap2\n      pop\n        /* \"#utility.yul\":6638:6916   */\n      pop\n        /* \"#utility.yul\":6576:6916   */\n      swap3\n      swap2\n      pop\n      pop\n      jump\t// out\n        /* \"#utility.yul\":6922:7721   */\n    tag_26:\n        /* \"#utility.yul\":7009:7015   */\n      0x00\n        /* \"#utility.yul\":7017:7023   */\n      dup1\n        /* \"#utility.yul\":7025:7031   */\n      0x00\n        /* \"#utility.yul\":7074:7076   */\n      0x60\n        /* \"#utility.yul\":7062:7071   */\n      dup5\n        /* \"#utility.yul\":7053:7060   */\n      dup7\n        /* \"#utility.yul\":7049:7072   */\n      sub\n        /* \"#utility.yul\":7045:7077   */\n      slt\n        /* \"#utility.yul\":7042:7161   */\n      iszero\n      tag_166\n      jumpi\n        /* \"#utility.yul\":7080:7159   */\n      tag_167\n      tag_54\n      jump\t// in\n    tag_167:\n        /* \"#utility.yul\":7042:7161   */\n    tag_166:\n        /* \"#utility.yul\":7228:7229   */\n      0x00\n        /* \"#utility.yul\":7217:7226   */\n      dup5\n        /* \"#utility.yul\":7213:7230   */\n      add\n        /* \"#utility.yul\":7200:7231   */\n      calldataload\n        /* \"#utility.yul\":7258:7276   */\n      0xffffffffffffffff\n        /* \"#utility.yul\":7250:7256   */\n      dup2\n        /* \"#utility.yul\":7247:7277   */\n      gt\n        /* \"#utility.yul\":7244:7361   */\n      iszero\n      tag_168\n      jumpi\n        /* \"#utility.yul\":7280:7359   */\n      tag_169\n      tag_55\n      jump\t// in\n    tag_169:\n        /* \"#utility.yul\":7244:7361   */\n    tag_168:\n        /* \"#utility.yul\":7385:7448   */\n      tag_170\n        /* \"#utility.yul\":7440:7447   */\n      dup7\n        /* \"#utility.yul\":7431:7437   */\n      dup3\n        /* \"#utility.yul\":7420:7429   */\n      dup8\n        /* \"#utility.yul\":7416:7438   */\n      add\n        /* \"#utility.yul\":7385:7448   */\n      tag_80\n      jump\t// in\n    tag_170:\n        /* \"#utility.yul\":7375:7448   */\n      swap4\n      pop\n        /* \"#utility.yul\":7171:7458   */\n      pop\n        /* \"#utility.yul\":7497:7499   */\n      0x20\n        /* \"#utility.yul\":7523:7576   */\n      tag_171\n        /* \"#utility.yul\":7568:7575   */\n      dup7\n        /* \"#utility.yul\":7559:7565   */\n      dup3\n        /* \"#utility.yul\":7548:7557   */\n      dup8\n        /* \"#utility.yul\":7544:7566   */\n      add\n        /* \"#utility.yul\":7523:7576   */\n      tag_58\n      jump\t// in\n    tag_171:\n        /* \"#utility.yul\":7513:7576   */\n      swap3\n      pop\n        /* \"#utility.yul\":7468:7586   */\n      pop\n        /* \"#utility.yul\":7625:7627   */\n      0x40\n        /* \"#utility.yul\":7651:7704   */\n      tag_172\n        /* \"#utility.yul\":7696:7703   */\n      dup7\n        /* \"#utility.yul\":7687:7693   */\n      dup3\n        /* \"#utility.yul\":7676:7685   */\n      dup8\n        /* \"#utility.yul\":7672:7694   */\n      add\n        /* \"#utility.yul\":7651:7704   */\n      tag_58\n      jump\t// in\n    tag_172:\n        /* \"#utility.yul\":7641:7704   */\n      swap2\n      pop\n        /* \"#utility.yul\":7596:7714   */\n      pop\n        /* \"#utility.yul\":6922:7721   */\n      swap3\n      pop\n      swap3\n      pop\n      swap3\n      jump\t// out\n        /* \"#utility.yul\":7727:7845   */\n    tag_81:\n        /* \"#utility.yul\":7814:7838   */\n      tag_174\n        /* \"#utility.yul\":7832:7837   */\n      dup2\n        /* \"#utility.yul\":7814:7838   */\n      tag_56\n      jump\t// in\n    tag_174:\n        /* \"#utility.yul\":7809:7812   */\n      dup3\n        /* \"#utility.yul\":7802:7839   */\n      mstore\n        /* \"#utility.yul\":7727:7845   */\n      pop\n      pop\n      jump\t// out\n        /* \"#utility.yul\":7851:8073   */\n    tag_32:\n        /* \"#utility.yul\":7944:7948   */\n      0x00\n        /* \"#utility.yul\":7982:7984   */\n      0x20\n        /* \"#utility.yul\":7971:7980   */\n      dup3\n        /* \"#utility.yul\":7967:7985   */\n      add\n        /* \"#utility.yul\":7959:7985   */\n      swap1\n      pop\n        /* \"#utility.yul\":7995:8066   */\n      tag_176\n        /* \"#utility.yul\":8063:8064   */\n      0x00\n        /* \"#utility.yul\":8052:8061   */\n      dup4\n        /* \"#utility.yul\":8048:8065   */\n      add\n        /* \"#utility.yul\":8039:8045   */\n      dup5\n        /* \"#utility.yul\":7995:8066   */\n      tag_81\n      jump\t// in\n    tag_176:\n        /* \"#utility.yul\":7851:8073   */\n      swap3\n      swap2\n      pop\n      pop\n      jump\t// out\n        /* \"#utility.yul\":8079:8196   */\n    tag_82:\n        /* \"#utility.yul\":8188:8189   */\n      0x00\n        /* \"#utility.yul\":8185:8186   */\n      dup1\n        /* \"#utility.yul\":8178:8190   */\n      revert\n        /* \"#utility.yul\":8202:8319   */\n    tag_83:\n        /* \"#utility.yul\":8311:8312   */\n      0x00\n        /* \"#utility.yul\":8308:8309   */\n      dup1\n        /* \"#utility.yul\":8301:8313   */\n      revert\n        /* \"#utility.yul\":8325:8759   */\n    tag_84:\n        /* \"#utility.yul\":8414:8419   */\n      0x00\n        /* \"#utility.yul\":8439:8505   */\n      tag_180\n        /* \"#utility.yul\":8455:8504   */\n      tag_181\n        /* \"#utility.yul\":8497:8503   */\n      dup5\n        /* \"#utility.yul\":8455:8504   */\n      tag_77\n      jump\t// in\n    tag_181:\n        /* \"#utility.yul\":8439:8505   */\n      tag_76\n      jump\t// in\n    tag_180:\n        /* \"#utility.yul\":8430:8505   */\n      swap1\n      pop\n        /* \"#utility.yul\":8528:8534   */\n      dup3\n        /* \"#utility.yul\":8521:8526   */\n      dup2\n        /* \"#utility.yul\":8514:8535   */\n      mstore\n        /* \"#utility.yul\":8566:8570   */\n      0x20\n        /* \"#utility.yul\":8559:8564   */\n      dup2\n        /* \"#utility.yul\":8555:8571   */\n      add\n        /* \"#utility.yul\":8604:8607   */\n      dup5\n        /* \"#utility.yul\":8595:8601   */\n      dup5\n        /* \"#utility.yul\":8590:8593   */\n      dup5\n        /* \"#utility.yul\":8586:8602   */\n      add\n        /* \"#utility.yul\":8583:8608   */\n      gt\n        /* \"#utility.yul\":8580:8692   */\n      iszero\n      tag_182\n      jumpi\n        /* \"#utility.yul\":8611:8690   */\n      tag_183\n      tag_73\n      jump\t// in\n    tag_183:\n        /* \"#utility.yul\":8580:8692   */\n    tag_182:\n        /* \"#utility.yul\":8701:8753   */\n      tag_184\n        /* \"#utility.yul\":8746:8752   */\n      dup5\n        /* \"#utility.yul\":8741:8744   */\n      dup3\n        /* \"#utility.yul\":8736:8739   */\n      dup6\n        /* \"#utility.yul\":8701:8753   */\n      tag_61\n      jump\t// in\n    tag_184:\n        /* \"#utility.yul\":8420:8759   */\n      pop\n        /* \"#utility.yul\":8325:8759   */\n      swap4\n      swap3\n      pop\n      pop\n      pop\n      jump\t// out\n        /* \"#utility.yul\":8779:9134   */\n    tag_85:\n        /* \"#utility.yul\":8846:8851   */\n      0x00\n        /* \"#utility.yul\":8895:8898   */\n      dup3\n        /* \"#utility.yul\":8888:8892   */\n      0x1f\n        /* \"#utility.yul\":8880:8886   */\n      dup4\n        /* \"#utility.yul\":8876:8893   */\n      add\n        /* \"#utility.yul\":8872:8899   */\n      slt\n        /* \"#utility.yul\":8862:8984   */\n      tag_186\n      jumpi\n        /* \"#utility.yul\":8903:8982   */\n      tag_187\n      tag_72\n      jump\t// in\n    tag_187:\n        /* \"#utility.yul\":8862:8984   */\n    tag_186:\n        /* \"#utility.yul\":9013:9019   */\n      dup2\n        /* \"#utility.yul\":9007:9020   */\n      mload\n        /* \"#utility.yul\":9038:9128   */\n      tag_188\n        /* \"#utility.yul\":9124:9127   */\n      dup5\n        /* \"#utility.yul\":9116:9122   */\n      dup3\n        /* \"#utility.yul\":9109:9113   */\n      0x20\n        /* \"#utility.yul\":9101:9107   */\n      dup7\n        /* \"#utility.yul\":9097:9114   */\n      add\n        /* \"#utility.yul\":9038:9128   */\n      tag_84\n      jump\t// in\n    tag_188:\n        /* \"#utility.yul\":9029:9128   */\n      swap2\n      pop\n        /* \"#utility.yul\":8852:9134   */\n      pop\n        /* \"#utility.yul\":8779:9134   */\n      swap3\n      swap2\n      pop\n      pop\n      jump\t// out\n        /* \"#utility.yul\":9140:9283   */\n    tag_86:\n        /* \"#utility.yul\":9197:9202   */\n      0x00\n        /* \"#utility.yul\":9228:9234   */\n      dup2\n        /* \"#utility.yul\":9222:9235   */\n      mload\n        /* \"#utility.yul\":9213:9235   */\n      swap1\n      pop\n        /* \"#utility.yul\":9244:9277   */\n      tag_190\n        /* \"#utility.yul\":9271:9276   */\n      dup2\n        /* \"#utility.yul\":9244:9277   */\n      tag_57\n      jump\t// in\n    tag_190:\n        /* \"#utility.yul\":9140:9283   */\n      swap3\n      swap2\n      pop\n      pop\n      jump\t// out\n        /* \"#utility.yul\":9324:10279   */\n    tag_87:\n        /* \"#utility.yul\":9407:9412   */\n      0x00\n        /* \"#utility.yul\":9451:9455   */\n      0x60\n        /* \"#utility.yul\":9439:9448   */\n      dup3\n        /* \"#utility.yul\":9434:9437   */\n      dup5\n        /* \"#utility.yul\":9430:9449   */\n      sub\n        /* \"#utility.yul\":9426:9456   */\n      slt\n        /* \"#utility.yul\":9423:9540   */\n      iszero\n      tag_192\n      jumpi\n        /* \"#utility.yul\":9459:9538   */\n      tag_193\n      tag_82\n      jump\t// in\n    tag_193:\n        /* \"#utility.yul\":9423:9540   */\n    tag_192:\n        /* \"#utility.yul\":9558:9579   */\n      tag_194\n        /* \"#utility.yul\":9574:9578   */\n      0x60\n        /* \"#utility.yul\":9558:9579   */\n      tag_76\n      jump\t// in\n    tag_194:\n        /* \"#utility.yul\":9549:9579   */\n      swap1\n      pop\n        /* \"#utility.yul\":9659:9660   */\n      0x00\n        /* \"#utility.yul\":9648:9657   */\n      dup3\n        /* \"#utility.yul\":9644:9661   */\n      add\n        /* \"#utility.yul\":9638:9662   */\n      mload\n        /* \"#utility.yul\":9689:9707   */\n      0xffffffffffffffff\n        /* \"#utility.yul\":9681:9687   */\n      dup2\n        /* \"#utility.yul\":9678:9708   */\n      gt\n        /* \"#utility.yul\":9675:9792   */\n      iszero\n      tag_195\n      jumpi\n        /* \"#utility.yul\":9711:9790   */\n      tag_196\n      tag_83\n      jump\t// in\n    tag_196:\n        /* \"#utility.yul\":9675:9792   */\n    tag_195:\n        /* \"#utility.yul\":9831:9901   */\n      tag_197\n        /* \"#utility.yul\":9897:9900   */\n      dup5\n        /* \"#utility.yul\":9888:9894   */\n      dup3\n        /* \"#utility.yul\":9877:9886   */\n      dup6\n        /* \"#utility.yul\":9873:9895   */\n      add\n        /* \"#utility.yul\":9831:9901   */\n      tag_85\n      jump\t// in\n    tag_197:\n        /* \"#utility.yul\":9824:9828   */\n      0x00\n        /* \"#utility.yul\":9817:9822   */\n      dup4\n        /* \"#utility.yul\":9813:9829   */\n      add\n        /* \"#utility.yul\":9806:9902   */\n      mstore\n        /* \"#utility.yul\":9589:9913   */\n      pop\n        /* \"#utility.yul\":9977:9979   */\n      0x20\n        /* \"#utility.yul\":10018:10078   */\n      tag_198\n        /* \"#utility.yul\":10074:10077   */\n      dup5\n        /* \"#utility.yul\":10065:10071   */\n      dup3\n        /* \"#utility.yul\":10054:10063   */\n      dup6\n        /* \"#utility.yul\":10050:10072   */\n      add\n        /* \"#utility.yul\":10018:10078   */\n      tag_86\n      jump\t// in\n    tag_198:\n        /* \"#utility.yul\":10011:10015   */\n      0x20\n        /* \"#utility.yul\":10004:10009   */\n      dup4\n        /* \"#utility.yul\":10000:10016   */\n      add\n        /* \"#utility.yul\":9993:10079   */\n      mstore\n        /* \"#utility.yul\":9923:10090   */\n      pop\n        /* \"#utility.yul\":10159:10161   */\n      0x40\n        /* \"#utility.yul\":10200:10260   */\n      tag_199\n        /* \"#utility.yul\":10256:10259   */\n      dup5\n        /* \"#utility.yul\":10247:10253   */\n      dup3\n        /* \"#utility.yul\":10236:10245   */\n      dup6\n        /* \"#utility.yul\":10232:10254   */\n      add\n        /* \"#utility.yul\":10200:10260   */\n      tag_86\n      jump\t// in\n    tag_199:\n        /* \"#utility.yul\":10193:10197   */\n      0x40\n        /* \"#utility.yul\":10186:10191   */\n      dup4\n        /* \"#utility.yul\":10182:10198   */\n      add\n        /* \"#utility.yul\":10175:10261   */\n      mstore\n        /* \"#utility.yul\":10100:10272   */\n      pop\n        /* \"#utility.yul\":9324:10279   */\n      swap3\n      swap2\n      pop\n      pop\n      jump\t// out\n        /* \"#utility.yul\":10285:10835   */\n    tag_36:\n        /* \"#utility.yul\":10378:10384   */\n      0x00\n        /* \"#utility.yul\":10427:10429   */\n      0x20\n        /* \"#utility.yul\":10415:10424   */\n      dup3\n        /* \"#utility.yul\":10406:10413   */\n      dup5\n        /* \"#utility.yul\":10402:10425   */\n      sub\n        /* \"#utility.yul\":10398:10430   */\n      slt\n        /* \"#utility.yul\":10395:10514   */\n      iszero\n      tag_201\n      jumpi\n        /* \"#utility.yul\":10433:10512   */\n      tag_202\n      tag_54\n      jump\t// in\n    tag_202:\n        /* \"#utility.yul\":10395:10514   */\n    tag_201:\n        /* \"#utility.yul\":10574:10575   */\n      0x00\n        /* \"#utility.yul\":10563:10572   */\n      dup3\n        /* \"#utility.yul\":10559:10576   */\n      add\n        /* \"#utility.yul\":10553:10577   */\n      mload\n        /* \"#utility.yul\":10604:10622   */\n      0xffffffffffffffff\n        /* \"#utility.yul\":10596:10602   */\n      dup2\n        /* \"#utility.yul\":10593:10623   */\n      gt\n        /* \"#utility.yul\":10590:10707   */\n      iszero\n      tag_203\n      jumpi\n        /* \"#utility.yul\":10626:10705   */\n      tag_204\n      tag_55\n      jump\t// in\n    tag_204:\n        /* \"#utility.yul\":10590:10707   */\n    tag_203:\n        /* \"#utility.yul\":10731:10818   */\n      tag_205\n        /* \"#utility.yul\":10810:10817   */\n      dup5\n        /* \"#utility.yul\":10801:10807   */\n      dup3\n        /* \"#utility.yul\":10790:10799   */\n      dup6\n        /* \"#utility.yul\":10786:10808   */\n      add\n        /* \"#utility.yul\":10731:10818   */\n      tag_87\n      jump\t// in\n    tag_205:\n        /* \"#utility.yul\":10721:10818   */\n      swap2\n      pop\n        /* \"#utility.yul\":10524:10828   */\n      pop\n        /* \"#utility.yul\":10285:10835   */\n      swap3\n      swap2\n      pop\n      pop\n      jump\t// out\n        /* \"#utility.yul\":10841:11173   */\n    tag_43:\n        /* \"#utility.yul\":10962:10966   */\n      0x00\n        /* \"#utility.yul\":11000:11002   */\n      0x40\n        /* \"#utility.yul\":10989:10998   */\n      dup3\n        /* \"#utility.yul\":10985:11003   */\n      add\n        /* \"#utility.yul\":10977:11003   */\n      swap1\n      pop\n        /* \"#utility.yul\":11013:11084   */\n      tag_207\n        /* \"#utility.yul\":11081:11082   */\n      0x00\n        /* \"#utility.yul\":11070:11079   */\n      dup4\n        /* \"#utility.yul\":11066:11083   */\n      add\n        /* \"#utility.yul\":11057:11063   */\n      dup6\n        /* \"#utility.yul\":11013:11084   */\n      tag_81\n      jump\t// in\n    tag_207:\n        /* \"#utility.yul\":11094:11166   */\n      tag_208\n        /* \"#utility.yul\":11162:11164   */\n      0x20\n        /* \"#utility.yul\":11151:11160   */\n      dup4\n        /* \"#utility.yul\":11147:11165   */\n      add\n        /* \"#utility.yul\":11138:11144   */\n      dup5\n        /* \"#utility.yul\":11094:11166   */\n      tag_81\n      jump\t// in\n    tag_208:\n        /* \"#utility.yul\":10841:11173   */\n      swap4\n      swap3\n      pop\n      pop\n      pop\n      jump\t// out\n        /* \"#utility.yul\":11179:11348   */\n    tag_88:\n        /* \"#utility.yul\":11263:11274   */\n      0x00\n        /* \"#utility.yul\":11297:11303   */\n      dup3\n        /* \"#utility.yul\":11292:11295   */\n      dup3\n        /* \"#utility.yul\":11285:11304   */\n      mstore\n        /* \"#utility.yul\":11337:11341   */\n      0x20\n        /* \"#utility.yul\":11332:11335   */\n      dup3\n        /* \"#utility.yul\":11328:11342   */\n      add\n        /* \"#utility.yul\":11313:11342   */\n      swap1\n      pop\n        /* \"#utility.yul\":11179:11348   */\n      swap3\n      swap2\n      pop\n      pop\n      jump\t// out\n        /* \"#utility.yul\":11354:11731   */\n    tag_89:\n        /* \"#utility.yul\":11442:11445   */\n      0x00\n        /* \"#utility.yul\":11470:11509   */\n      tag_211\n        /* \"#utility.yul\":11503:11508   */\n      dup3\n        /* \"#utility.yul\":11470:11509   */\n      tag_59\n      jump\t// in\n    tag_211:\n        /* \"#utility.yul\":11525:11596   */\n      tag_212\n        /* \"#utility.yul\":11589:11595   */\n      dup2\n        /* \"#utility.yul\":11584:11587   */\n      dup6\n        /* \"#utility.yul\":11525:11596   */\n      tag_88\n      jump\t// in\n    tag_212:\n        /* \"#utility.yul\":11518:11596   */\n      swap4\n      pop\n        /* \"#utility.yul\":11605:11670   */\n      tag_213\n        /* \"#utility.yul\":11663:11669   */\n      dup2\n        /* \"#utility.yul\":11658:11661   */\n      dup6\n        /* \"#utility.yul\":11651:11655   */\n      0x20\n        /* \"#utility.yul\":11644:11649   */\n      dup7\n        /* \"#utility.yul\":11640:11656   */\n      add\n        /* \"#utility.yul\":11605:11670   */\n      tag_61\n      jump\t// in\n    tag_213:\n        /* \"#utility.yul\":11695:11724   */\n      tag_214\n        /* \"#utility.yul\":11717:11723   */\n      dup2\n        /* \"#utility.yul\":11695:11724   */\n      tag_62\n      jump\t// in\n    tag_214:\n        /* \"#utility.yul\":11690:11693   */\n      dup5\n        /* \"#utility.yul\":11686:11725   */\n      add\n        /* \"#utility.yul\":11679:11725   */\n      swap2\n      pop\n        /* \"#utility.yul\":11446:11731   */\n      pop\n        /* \"#utility.yul\":11354:11731   */\n      swap3\n      swap2\n      pop\n      pop\n      jump\t// out\n        /* \"#utility.yul\":11737:12270   */\n    tag_49:\n        /* \"#utility.yul\":11906:11910   */\n      0x00\n        /* \"#utility.yul\":11944:11946   */\n      0x60\n        /* \"#utility.yul\":11933:11942   */\n      dup3\n        /* \"#utility.yul\":11929:11947   */\n      add\n        /* \"#utility.yul\":11921:11947   */\n      swap1\n      pop\n        /* \"#utility.yul\":11993:12002   */\n      dup2\n        /* \"#utility.yul\":11987:11991   */\n      dup2\n        /* \"#utility.yul\":11983:12003   */\n      sub\n        /* \"#utility.yul\":11979:11980   */\n      0x00\n        /* \"#utility.yul\":11968:11977   */\n      dup4\n        /* \"#utility.yul\":11964:11981   */\n      add\n        /* \"#utility.yul\":11957:12004   */\n      mstore\n        /* \"#utility.yul\":12021:12099   */\n      tag_216\n        /* \"#utility.yul\":12094:12098   */\n      dup2\n        /* \"#utility.yul\":12085:12091   */\n      dup7\n        /* \"#utility.yul\":12021:12099   */\n      tag_89\n      jump\t// in\n    tag_216:\n        /* \"#utility.yul\":12013:12099   */\n      swap1\n      pop\n        /* \"#utility.yul\":12109:12181   */\n      tag_217\n        /* \"#utility.yul\":12177:12179   */\n      0x20\n        /* \"#utility.yul\":12166:12175   */\n      dup4\n        /* \"#utility.yul\":12162:12180   */\n      add\n        /* \"#utility.yul\":12153:12159   */\n      dup6\n        /* \"#utility.yul\":12109:12181   */\n      tag_81\n      jump\t// in\n    tag_217:\n        /* \"#utility.yul\":12191:12263   */\n      tag_218\n        /* \"#utility.yul\":12259:12261   */\n      0x40\n        /* \"#utility.yul\":12248:12257   */\n      dup4\n        /* \"#utility.yul\":12244:12262   */\n      add\n        /* \"#utility.yul\":12235:12241   */\n      dup5\n        /* \"#utility.yul\":12191:12263   */\n      tag_81\n      jump\t// in\n    tag_218:\n        /* \"#utility.yul\":11737:12270   */\n      swap5\n      swap4\n      pop\n      pop\n      pop\n      pop\n      jump\t// out\n    stop\n\n    sub_0: assembly {\n            /* \"BankDetails.sol\":59:1780  contract BankDetails {... */\n          mstore(0x40, 0x80)\n          callvalue\n          dup1\n          iszero\n          tag_1\n          jumpi\n          0x00\n          dup1\n          revert\n        tag_1:\n          pop\n          dataSize(sub_0)\n          dup1\n          dataOffset(sub_0)\n          0x00\n          codecopy\n          0x00\n          return\n        stop\n\n        sub_0: assembly {\n                /* \"BankDetails.sol\":59:1780  contract BankDetails {... */\n              mstore(0x40, 0x80)\n              callvalue\n              dup1\n              iszero\n              tag_1\n              jumpi\n              0x00\n              dup1\n              revert\n            tag_1:\n              pop\n              jumpi(tag_2, lt(calldatasize, 0x04))\n              shr(0xe0, calldataload(0x00))\n              dup1\n              0x83b9ae27\n              gt\n              tag_10\n              jumpi\n              dup1\n              0x83b9ae27\n              eq\n              tag_6\n              jumpi\n              dup1\n              0x8b16652e\n              eq\n              tag_7\n              jumpi\n              dup1\n              0xc219563f\n              eq\n              tag_8\n              jumpi\n              dup1\n              0xe2bbb158\n              eq\n              tag_9\n              jumpi\n              jump(tag_2)\n            tag_10:\n              dup1\n              0x28a404f3\n              eq\n              tag_3\n              jumpi\n              dup1\n              0x2c4ae716\n              eq\n              tag_4\n              jumpi\n              dup1\n              0x4445030d\n              eq\n              tag_5\n              jumpi\n            tag_2:\n              0x00\n              dup1\n              revert\n                /* \"BankDetails.sol\":195:228  Customer[] public customerDetails */\n            tag_3:\n              tag_11\n              0x04\n              dup1\n              calldatasize\n              sub\n              dup2\n              add\n              swap1\n              tag_12\n              swap2\n              swap1\n              tag_13\n              jump\t// in\n            tag_12:\n              tag_14\n              jump\t// in\n            tag_11:\n              mload(0x40)\n              tag_15\n              swap4\n              swap3\n              swap2\n              swap1\n              tag_16\n              jump\t// in\n            tag_15:\n              mload(0x40)\n              dup1\n              swap2\n              sub\n              swap1\n              return\n                /* \"BankDetails.sol\":1505:1778  function getCustomerDetails(uint256 _accountNo) public view returns (Customer memory) {... */\n            tag_4:\n              tag_17\n              0x04\n              dup1\n              calldatasize\n              sub\n              dup2\n              add\n              swap1\n              tag_18\n              swap2\n              swap1\n              tag_13\n              jump\t// in\n            tag_18:\n              tag_19\n              jump\t// in\n            tag_17:\n              mload(0x40)\n              tag_20\n              swap2\n              swap1\n              tag_21\n              jump\t// in\n            tag_20:\n              mload(0x40)\n              dup1\n              swap2\n              sub\n              swap1\n              return\n                /* \"BankDetails.sol\":234:283  mapping(uint256 => string) public accountNoToName */\n            tag_5:\n              tag_22\n              0x04\n              dup1\n              calldatasize\n              sub\n              dup2\n              add\n              swap1\n              tag_23\n              swap2\n              swap1\n              tag_13\n              jump\t// in\n            tag_23:\n              tag_24\n              jump\t// in\n            tag_22:\n              mload(0x40)\n              tag_25\n              swap2\n              swap1\n              tag_26\n              jump\t// in\n            tag_25:\n              mload(0x40)\n              dup1\n              swap2\n              sub\n              swap1\n              return\n                /* \"BankDetails.sol\":289:349  mapping(uint256 => uint256) public accountNoToAccountbalance */\n            tag_6:\n              tag_27\n              0x04\n              dup1\n              calldatasize\n              sub\n              dup2\n              add\n              swap1\n              tag_28\n              swap2\n              swap1\n              tag_13\n              jump\t// in\n            tag_28:\n              tag_29\n              jump\t// in\n            tag_27:\n              mload(0x40)\n              tag_30\n              swap2\n              swap1\n              tag_31\n              jump\t// in\n            tag_30:\n              mload(0x40)\n              dup1\n              swap2\n              sub\n              swap1\n              return\n                /* \"BankDetails.sol\":496:974  function storeCustomerDetails(string memory _name, uint256 _accountNo, uint256 _accountBalance) public {... */\n            tag_7:\n              tag_32\n              0x04\n              dup1\n              calldatasize\n              sub\n              dup2\n              add\n              swap1\n              tag_33\n              swap2\n              swap1\n              tag_34\n              jump\t// in\n            tag_33:\n              tag_35\n              jump\t// in\n            tag_32:\n              stop\n                /* \"BankDetails.sol\":355:400  mapping(uint256 => bool) public accountExists */\n            tag_8:\n              tag_36\n              0x04\n              dup1\n              calldatasize\n              sub\n              dup2\n              add\n              swap1\n              tag_37\n              swap2\n              swap1\n              tag_13\n              jump\t// in\n            tag_37:\n              tag_38\n              jump\t// in\n            tag_36:\n              mload(0x40)\n              tag_39\n              swap2\n              swap1\n              tag_40\n              jump\t// in\n            tag_39:\n              mload(0x40)\n              dup1\n              swap2\n              sub\n              swap1\n              return\n                /* \"BankDetails.sol\":1027:1469  function deposit(uint256 _accountNo, uint256 _depositAmount) public {... */\n            tag_9:\n              tag_41\n              0x04\n              dup1\n              calldatasize\n              sub\n              dup2\n              add\n              swap1\n              tag_42\n              swap2\n              swap1\n              tag_43\n              jump\t// in\n            tag_42:\n              tag_44\n              jump\t// in\n            tag_41:\n              stop\n                /* \"BankDetails.sol\":195:228  Customer[] public customerDetails */\n            tag_14:\n              0x00\n              dup2\n              dup2\n              sload\n              dup2\n              lt\n              tag_45\n              jumpi\n              0x00\n              dup1\n              revert\n            tag_45:\n              swap1\n              0x00\n              mstore\n              keccak256(0x00, 0x20)\n              swap1\n              0x03\n              mul\n              add\n              0x00\n              swap2\n              pop\n              swap1\n              pop\n              dup1\n              0x00\n              add\n              dup1\n              sload\n              tag_47\n              swap1\n              tag_48\n              jump\t// in\n            tag_47:\n              dup1\n              0x1f\n              add\n              0x20\n              dup1\n              swap2\n              div\n              mul\n              0x20\n              add\n              mload(0x40)\n              swap1\n              dup2\n              add\n              0x40\n              mstore\n              dup1\n              swap3\n              swap2\n              swap1\n              dup2\n              dup2\n              mstore\n              0x20\n              add\n              dup3\n              dup1\n              sload\n              tag_49\n              swap1\n              tag_48\n              jump\t// in\n            tag_49:\n              dup1\n              iszero\n              tag_50\n              jumpi\n              dup1\n              0x1f\n              lt\n              tag_51\n              jumpi\n              0x0100\n              dup1\n              dup4\n              sload\n              div\n              mul\n              dup4\n              mstore\n              swap2\n              0x20\n              add\n              swap2\n              jump(tag_50)\n            tag_51:\n              dup3\n              add\n              swap2\n              swap1\n              0x00\n              mstore\n              keccak256(0x00, 0x20)\n              swap1\n            tag_52:\n              dup2\n              sload\n              dup2\n              mstore\n              swap1\n              0x01\n              add\n              swap1\n              0x20\n              add\n              dup1\n              dup4\n              gt\n              tag_52\n              jumpi\n              dup3\n              swap1\n              sub\n              0x1f\n              and\n              dup3\n              add\n              swap2\n            tag_50:\n              pop\n              pop\n              pop\n              pop\n              pop\n              swap1\n              dup1\n              0x01\n              add\n              sload\n              swap1\n              dup1\n              0x02\n              add\n              sload\n              swap1\n              pop\n              dup4\n              jump\t// out\n                /* \"BankDetails.sol\":1505:1778  function getCustomerDetails(uint256 _accountNo) public view returns (Customer memory) {... */\n            tag_19:\n                /* \"BankDetails.sol\":1574:1589  Customer memory */\n              tag_53\n              tag_54\n              jump\t// in\n            tag_53:\n                /* \"BankDetails.sol\":1609:1622  accountExists */\n              0x03\n                /* \"BankDetails.sol\":1609:1634  accountExists[_accountNo] */\n              0x00\n                /* \"BankDetails.sol\":1623:1633  _accountNo */\n              dup4\n                /* \"BankDetails.sol\":1609:1634  accountExists[_accountNo] */\n              dup2\n              mstore\n              0x20\n              add\n              swap1\n              dup2\n              mstore\n              0x20\n              add\n              0x00\n              keccak256\n              0x00\n              swap1\n              sload\n              swap1\n              0x0100\n              exp\n              swap1\n              div\n              0xff\n              and\n                /* \"BankDetails.sol\":1601:1661  require(accountExists[_accountNo], \"Account does not exist\") */\n              tag_56\n              jumpi\n              mload(0x40)\n              0x08c379a000000000000000000000000000000000000000000000000000000000\n              dup2\n              mstore\n              0x04\n              add\n              tag_57\n              swap1\n              tag_58\n              jump\t// in\n            tag_57:\n              mload(0x40)\n              dup1\n              swap2\n              sub\n              swap1\n              revert\n            tag_56:\n                /* \"BankDetails.sol\":1672:1693  uint256 customerIndex */\n              0x00\n                /* \"BankDetails.sol\":1696:1712  accountNoToIndex */\n              0x04\n                /* \"BankDetails.sol\":1696:1724  accountNoToIndex[_accountNo] */\n              0x00\n                /* \"BankDetails.sol\":1713:1723  _accountNo */\n              dup5\n                /* \"BankDetails.sol\":1696:1724  accountNoToIndex[_accountNo] */\n              dup2\n              mstore\n              0x20\n              add\n              swap1\n              dup2\n              mstore\n              0x20\n              add\n              0x00\n              keccak256\n              sload\n                /* \"BankDetails.sol\":1672:1724  uint256 customerIndex = accountNoToIndex[_accountNo] */\n              swap1\n              pop\n                /* \"BankDetails.sol\":1741:1756  customerDetails */\n              0x00\n                /* \"BankDetails.sol\":1757:1770  customerIndex */\n              dup2\n                /* \"BankDetails.sol\":1741:1771  customerDetails[customerIndex] */\n              dup2\n              sload\n              dup2\n              lt\n              tag_59\n              jumpi\n              tag_60\n              tag_61\n              jump\t// in\n            tag_60:\n            tag_59:\n              swap1\n              0x00\n              mstore\n              keccak256(0x00, 0x20)\n              swap1\n              0x03\n              mul\n              add\n                /* \"BankDetails.sol\":1734:1771  return customerDetails[customerIndex] */\n              mload(0x40)\n              dup1\n              0x60\n              add\n              0x40\n              mstore\n              swap1\n              dup2\n              0x00\n              dup3\n              add\n              dup1\n              sload\n              tag_63\n              swap1\n              tag_48\n              jump\t// in\n            tag_63:\n              dup1\n              0x1f\n              add\n              0x20\n              dup1\n              swap2\n              div\n              mul\n              0x20\n              add\n              mload(0x40)\n              swap1\n              dup2\n              add\n              0x40\n              mstore\n              dup1\n              swap3\n              swap2\n              swap1\n              dup2\n              dup2\n              mstore\n              0x20\n              add\n              dup3\n              dup1\n              sload\n              tag_64\n              swap1\n              tag_48\n              jump\t// in\n            tag_64:\n              dup1\n              iszero\n              tag_65\n              jumpi\n              dup1\n              0x1f\n              lt\n              tag_66\n              jumpi\n              0x0100\n              dup1\n              dup4\n              sload\n              div\n              mul\n              dup4\n              mstore\n              swap2\n              0x20\n              add\n              swap2\n              jump(tag_65)\n            tag_66:\n              dup3\n              add\n              swap2\n              swap1\n              0x00\n              mstore\n              keccak256(0x00, 0x20)\n              swap1\n            tag_67:\n              dup2\n              sload\n              dup2\n              mstore\n              swap1\n              0x01\n              add\n              swap1\n              0x20\n              add\n              dup1\n              dup4\n              gt\n              tag_67\n              jumpi\n              dup3\n              swap1\n              sub\n              0x1f\n              and\n              dup3\n              add\n              swap2\n            tag_65:\n              pop\n              pop\n              pop\n              pop\n              pop\n              dup2\n              mstore\n              0x20\n              add\n              0x01\n              dup3\n              add\n              sload\n              dup2\n              mstore\n              0x20\n              add\n              0x02\n              dup3\n              add\n              sload\n              dup2\n              mstore\n              pop\n              pop\n              swap2\n              pop\n              pop\n                /* \"BankDetails.sol\":1505:1778  function getCustomerDetails(uint256 _accountNo) public view returns (Customer memory) {... */\n              swap2\n              swap1\n              pop\n              jump\t// out\n                /* \"BankDetails.sol\":234:283  mapping(uint256 => string) public accountNoToName */\n            tag_24:\n              mstore(0x20, 0x01)\n              dup1\n              0x00\n              mstore\n              keccak256(0x00, 0x40)\n              0x00\n              swap2\n              pop\n              swap1\n              pop\n              dup1\n              sload\n              tag_68\n              swap1\n              tag_48\n              jump\t// in\n            tag_68:\n              dup1\n              0x1f\n              add\n              0x20\n              dup1\n              swap2\n              div\n              mul\n              0x20\n              add\n              mload(0x40)\n              swap1\n              dup2\n              add\n              0x40\n              mstore\n              dup1\n              swap3\n              swap2\n              swap1\n              dup2\n              dup2\n              mstore\n              0x20\n              add\n              dup3\n              dup1\n              sload\n              tag_69\n              swap1\n              tag_48\n              jump\t// in\n            tag_69:\n              dup1\n              iszero\n              tag_70\n              jumpi\n              dup1\n              0x1f\n              lt\n              tag_71\n              jumpi\n              0x0100\n              dup1\n              dup4\n              sload\n              div\n              mul\n              dup4\n              mstore\n              swap2\n              0x20\n              add\n              swap2\n              jump(tag_70)\n            tag_71:\n              dup3\n              add\n              swap2\n              swap1\n              0x00\n              mstore\n              keccak256(0x00, 0x20)\n              swap1\n            tag_72:\n              dup2\n              sload\n              dup2\n              mstore\n              swap1\n              0x01\n              add\n              swap1\n              0x20\n              add\n              dup1\n              dup4\n              gt\n              tag_72\n              jumpi\n              dup3\n              swap1\n              sub\n              0x1f\n              and\n              dup3\n              add\n              swap2\n            tag_70:\n              pop\n              pop\n              pop\n              pop\n              pop\n              dup2\n              jump\t// out\n                /* \"BankDetails.sol\":289:349  mapping(uint256 => uint256) public accountNoToAccountbalance */\n            tag_29:\n              mstore(0x20, 0x02)\n              dup1\n              0x00\n              mstore\n              keccak256(0x00, 0x40)\n              0x00\n              swap2\n              pop\n              swap1\n              pop\n              sload\n              dup2\n              jump\t// out\n                /* \"BankDetails.sol\":496:974  function storeCustomerDetails(string memory _name, uint256 _accountNo, uint256 _accountBalance) public {... */\n            tag_35:\n                /* \"BankDetails.sol\":618:631  accountExists */\n              0x03\n                /* \"BankDetails.sol\":618:643  accountExists[_accountNo] */\n              0x00\n                /* \"BankDetails.sol\":632:642  _accountNo */\n              dup4\n                /* \"BankDetails.sol\":618:643  accountExists[_accountNo] */\n              dup2\n              mstore\n              0x20\n              add\n              swap1\n              dup2\n              mstore\n              0x20\n              add\n              0x00\n              keccak256\n              0x00\n              swap1\n              sload\n              swap1\n              0x0100\n              exp\n              swap1\n              div\n              0xff\n              and\n                /* \"BankDetails.sol\":617:643  !accountExists[_accountNo] */\n              iszero\n                /* \"BankDetails.sol\":609:670  require(!accountExists[_accountNo], \"Account already exists\") */\n              tag_74\n              jumpi\n              mload(0x40)\n              0x08c379a000000000000000000000000000000000000000000000000000000000\n              dup2\n              mstore\n              0x04\n              add\n              tag_75\n              swap1\n              tag_76\n              jump\t// in\n            tag_75:\n              mload(0x40)\n              dup1\n              swap2\n              sub\n              swap1\n              revert\n            tag_74:\n                /* \"BankDetails.sol\":681:696  customerDetails */\n              0x00\n                /* \"BankDetails.sol\":702:746  Customer(_name, _accountNo, _accountBalance) */\n              mload(0x40)\n              dup1\n              0x60\n              add\n              0x40\n              mstore\n              dup1\n                /* \"BankDetails.sol\":711:716  _name */\n              dup6\n                /* \"BankDetails.sol\":702:746  Customer(_name, _accountNo, _accountBalance) */\n              dup2\n              mstore\n              0x20\n              add\n                /* \"BankDetails.sol\":718:728  _accountNo */\n              dup5\n                /* \"BankDetails.sol\":702:746  Customer(_name, _accountNo, _accountBalance) */\n              dup2\n              mstore\n              0x20\n              add\n                /* \"BankDetails.sol\":730:745  _accountBalance */\n              dup4\n                /* \"BankDetails.sol\":702:746  Customer(_name, _accountNo, _accountBalance) */\n              dup2\n              mstore\n              pop\n                /* \"BankDetails.sol\":681:747  customerDetails.push(Customer(_name, _accountNo, _accountBalance)) */\n              swap1\n              dup1\n              0x01\n              dup2\n              sload\n              add\n              dup1\n              dup3\n              sstore\n              dup1\n              swap2\n              pop\n              pop\n              0x01\n              swap1\n              sub\n              swap1\n              0x00\n              mstore\n              keccak256(0x00, 0x20)\n              swap1\n              0x03\n              mul\n              add\n              0x00\n              swap1\n              swap2\n              swap1\n              swap2\n              swap1\n              swap2\n              pop\n              0x00\n              dup3\n              add\n              mload\n              dup2\n              0x00\n              add\n              swap1\n              dup2\n              tag_78\n              swap2\n              swap1\n              tag_79\n              jump\t// in\n            tag_78:\n              pop\n              0x20\n              dup3\n              add\n              mload\n              dup2\n              0x01\n              add\n              sstore\n              0x40\n              dup3\n              add\n              mload\n              dup2\n              0x02\n              add\n              sstore\n              pop\n              pop\n                /* \"BankDetails.sol\":787:792  _name */\n              dup3\n                /* \"BankDetails.sol\":757:772  accountNoToName */\n              0x01\n                /* \"BankDetails.sol\":757:784  accountNoToName[_accountNo] */\n              0x00\n                /* \"BankDetails.sol\":773:783  _accountNo */\n              dup5\n                /* \"BankDetails.sol\":757:784  accountNoToName[_accountNo] */\n              dup2\n              mstore\n              0x20\n              add\n              swap1\n              dup2\n              mstore\n              0x20\n              add\n              0x00\n              keccak256\n                /* \"BankDetails.sol\":757:792  accountNoToName[_accountNo] = _name */\n              swap1\n              dup2\n              tag_80\n              swap2\n              swap1\n              tag_79\n              jump\t// in\n            tag_80:\n              pop\n                /* \"BankDetails.sol\":842:857  _accountBalance */\n              dup1\n                /* \"BankDetails.sol\":802:827  accountNoToAccountbalance */\n              0x02\n                /* \"BankDetails.sol\":802:839  accountNoToAccountbalance[_accountNo] */\n              0x00\n                /* \"BankDetails.sol\":828:838  _accountNo */\n              dup5\n                /* \"BankDetails.sol\":802:839  accountNoToAccountbalance[_accountNo] */\n              dup2\n              mstore\n              0x20\n              add\n              swap1\n              dup2\n              mstore\n              0x20\n              add\n              0x00\n              keccak256\n                /* \"BankDetails.sol\":802:857  accountNoToAccountbalance[_accountNo] = _accountBalance */\n              dup2\n              swap1\n              sstore\n              pop\n                /* \"BankDetails.sol\":895:899  true */\n              0x01\n                /* \"BankDetails.sol\":867:880  accountExists */\n              0x03\n                /* \"BankDetails.sol\":867:892  accountExists[_accountNo] */\n              0x00\n                /* \"BankDetails.sol\":881:891  _accountNo */\n              dup5\n                /* \"BankDetails.sol\":867:892  accountExists[_accountNo] */\n              dup2\n              mstore\n              0x20\n              add\n              swap1\n              dup2\n              mstore\n              0x20\n              add\n              0x00\n              keccak256\n              0x00\n                /* \"BankDetails.sol\":867:899  accountExists[_accountNo] = true */\n              0x0100\n              exp\n              dup2\n              sload\n              dup2\n              0xff\n              mul\n              not\n              and\n              swap1\n              dup4\n              iszero\n              iszero\n              mul\n              or\n              swap1\n              sstore\n              pop\n                /* \"BankDetails.sol\":966:967  1 */\n              0x01\n                /* \"BankDetails.sol\":941:956  customerDetails */\n              0x00\n                /* \"BankDetails.sol\":941:963  customerDetails.length */\n              dup1\n              sload\n              swap1\n              pop\n                /* \"BankDetails.sol\":941:967  customerDetails.length - 1 */\n              tag_81\n              swap2\n              swap1\n              tag_82\n              jump\t// in\n            tag_81:\n                /* \"BankDetails.sol\":910:926  accountNoToIndex */\n              0x04\n                /* \"BankDetails.sol\":910:938  accountNoToIndex[_accountNo] */\n              0x00\n                /* \"BankDetails.sol\":927:937  _accountNo */\n              dup5\n                /* \"BankDetails.sol\":910:938  accountNoToIndex[_accountNo] */\n              dup2\n              mstore\n              0x20\n              add\n              swap1\n              dup2\n              mstore\n              0x20\n              add\n              0x00\n              keccak256\n                /* \"BankDetails.sol\":910:967  accountNoToIndex[_accountNo] = customerDetails.length - 1 */\n              dup2\n              swap1\n              sstore\n              pop\n                /* \"BankDetails.sol\":496:974  function storeCustomerDetails(string memory _name, uint256 _accountNo, uint256 _accountBalance) public {... */\n              pop\n              pop\n              pop\n              jump\t// out\n                /* \"BankDetails.sol\":355:400  mapping(uint256 => bool) public accountExists */\n            tag_38:\n              mstore(0x20, 0x03)\n              dup1\n              0x00\n              mstore\n              keccak256(0x00, 0x40)\n              0x00\n              swap2\n              pop\n              sload\n              swap1\n              0x0100\n              exp\n              swap1\n              div\n              0xff\n              and\n              dup2\n              jump\t// out\n                /* \"BankDetails.sol\":1027:1469  function deposit(uint256 _accountNo, uint256 _depositAmount) public {... */\n            tag_44:\n                /* \"BankDetails.sol\":1113:1126  accountExists */\n              0x03\n                /* \"BankDetails.sol\":1113:1138  accountExists[_accountNo] */\n              0x00\n                /* \"BankDetails.sol\":1127:1137  _accountNo */\n              dup4\n                /* \"BankDetails.sol\":1113:1138  accountExists[_accountNo] */\n              dup2\n              mstore\n              0x20\n              add\n              swap1\n              dup2\n              mstore\n              0x20\n              add\n              0x00\n              keccak256\n              0x00\n              swap1\n              sload\n              swap1\n              0x0100\n              exp\n              swap1\n              div\n              0xff\n              and\n                /* \"BankDetails.sol\":1105:1165  require(accountExists[_accountNo], \"Account does not exist\") */\n              tag_84\n              jumpi\n              mload(0x40)\n              0x08c379a000000000000000000000000000000000000000000000000000000000\n              dup2\n              mstore\n              0x04\n              add\n              tag_85\n              swap1\n              tag_58\n              jump\t// in\n            tag_85:\n              mload(0x40)\n              dup1\n              swap2\n              sub\n              swap1\n              revert\n            tag_84:\n                /* \"BankDetails.sol\":1247:1261  _depositAmount */\n              dup1\n                /* \"BankDetails.sol\":1206:1231  accountNoToAccountbalance */\n              0x02\n                /* \"BankDetails.sol\":1206:1243  accountNoToAccountbalance[_accountNo] */\n              0x00\n                /* \"BankDetails.sol\":1232:1242  _accountNo */\n              dup5\n                /* \"BankDetails.sol\":1206:1243  accountNoToAccountbalance[_accountNo] */\n              dup2\n              mstore\n              0x20\n              add\n              swap1\n              dup2\n              mstore\n              0x20\n              add\n              0x00\n              keccak256\n              0x00\n                /* \"BankDetails.sol\":1206:1261  accountNoToAccountbalance[_accountNo] += _depositAmount */\n              dup3\n              dup3\n              sload\n              tag_86\n              swap2\n              swap1\n              tag_87\n              jump\t// in\n            tag_86:\n              swap3\n              pop\n              pop\n              dup2\n              swap1\n              sstore\n              pop\n                /* \"BankDetails.sol\":1337:1358  uint256 customerIndex */\n              0x00\n                /* \"BankDetails.sol\":1361:1377  accountNoToIndex */\n              0x04\n                /* \"BankDetails.sol\":1361:1389  accountNoToIndex[_accountNo] */\n              0x00\n                /* \"BankDetails.sol\":1378:1388  _accountNo */\n              dup5\n                /* \"BankDetails.sol\":1361:1389  accountNoToIndex[_accountNo] */\n              dup2\n              mstore\n              0x20\n              add\n              swap1\n              dup2\n              mstore\n              0x20\n              add\n              0x00\n              keccak256\n              sload\n                /* \"BankDetails.sol\":1337:1389  uint256 customerIndex = accountNoToIndex[_accountNo] */\n              swap1\n              pop\n                /* \"BankDetails.sol\":1448:1462  _depositAmount */\n              dup2\n                /* \"BankDetails.sol\":1399:1414  customerDetails */\n              0x00\n                /* \"BankDetails.sol\":1415:1428  customerIndex */\n              dup3\n                /* \"BankDetails.sol\":1399:1429  customerDetails[customerIndex] */\n              dup2\n              sload\n              dup2\n              lt\n              tag_88\n              jumpi\n              tag_89\n              tag_61\n              jump\t// in\n            tag_89:\n            tag_88:\n              swap1\n              0x00\n              mstore\n              keccak256(0x00, 0x20)\n              swap1\n              0x03\n              mul\n              add\n                /* \"BankDetails.sol\":1399:1444  customerDetails[customerIndex].accountBalance */\n              0x02\n              add\n              0x00\n                /* \"BankDetails.sol\":1399:1462  customerDetails[customerIndex].accountBalance += _depositAmount */\n              dup3\n              dup3\n              sload\n              tag_91\n              swap2\n              swap1\n              tag_87\n              jump\t// in\n            tag_91:\n              swap3\n              pop\n              pop\n              dup2\n              swap1\n              sstore\n              pop\n                /* \"BankDetails.sol\":1095:1469  {... */\n              pop\n                /* \"BankDetails.sol\":1027:1469  function deposit(uint256 _accountNo, uint256 _depositAmount) public {... */\n              pop\n              pop\n              jump\t// out\n            tag_54:\n              mload(0x40)\n              dup1\n              0x60\n              add\n              0x40\n              mstore\n              dup1\n              0x60\n              dup2\n              mstore\n              0x20\n              add\n              0x00\n              dup2\n              mstore\n              0x20\n              add\n              0x00\n              dup2\n              mstore\n              pop\n              swap1\n              jump\t// out\n                /* \"#utility.yul\":7:82   */\n            tag_92:\n                /* \"#utility.yul\":40:46   */\n              0x00\n                /* \"#utility.yul\":73:75   */\n              0x40\n                /* \"#utility.yul\":67:76   */\n              mload\n                /* \"#utility.yul\":57:76   */\n              swap1\n              pop\n                /* \"#utility.yul\":7:82   */\n              swap1\n              jump\t// out\n                /* \"#utility.yul\":88:205   */\n            tag_93:\n                /* \"#utility.yul\":197:198   */\n              0x00\n                /* \"#utility.yul\":194:195   */\n              dup1\n                /* \"#utility.yul\":187:199   */\n              revert\n                /* \"#utility.yul\":211:328   */\n            tag_94:\n                /* \"#utility.yul\":320:321   */\n              0x00\n                /* \"#utility.yul\":317:318   */\n              dup1\n                /* \"#utility.yul\":310:322   */\n              revert\n                /* \"#utility.yul\":334:411   */\n            tag_95:\n                /* \"#utility.yul\":371:378   */\n              0x00\n                /* \"#utility.yul\":400:405   */\n              dup2\n                /* \"#utility.yul\":389:405   */\n              swap1\n              pop\n                /* \"#utility.yul\":334:411   */\n              swap2\n              swap1\n              pop\n              jump\t// out\n                /* \"#utility.yul\":417:539   */\n            tag_96:\n                /* \"#utility.yul\":490:514   */\n              tag_146\n                /* \"#utility.yul\":508:513   */\n              dup2\n                /* \"#utility.yul\":490:514   */\n              tag_95\n              jump\t// in\n            tag_146:\n                /* \"#utility.yul\":483:488   */\n              dup2\n                /* \"#utility.yul\":480:515   */\n              eq\n                /* \"#utility.yul\":470:533   */\n              tag_147\n              jumpi\n                /* \"#utility.yul\":529:530   */\n              0x00\n                /* \"#utility.yul\":526:527   */\n              dup1\n                /* \"#utility.yul\":519:531   */\n              revert\n                /* \"#utility.yul\":470:533   */\n            tag_147:\n                /* \"#utility.yul\":417:539   */\n              pop\n              jump\t// out\n                /* \"#utility.yul\":545:684   */\n            tag_97:\n                /* \"#utility.yul\":591:596   */\n              0x00\n                /* \"#utility.yul\":629:635   */\n              dup2\n                /* \"#utility.yul\":616:636   */\n              calldataload\n                /* \"#utility.yul\":607:636   */\n              swap1\n              pop\n                /* \"#utility.yul\":645:678   */\n              tag_149\n                /* \"#utility.yul\":672:677   */\n              dup2\n                /* \"#utility.yul\":645:678   */\n              tag_96\n              jump\t// in\n            tag_149:\n                /* \"#utility.yul\":545:684   */\n              swap3\n              swap2\n              pop\n              pop\n              jump\t// out\n                /* \"#utility.yul\":690:1019   */\n            tag_13:\n                /* \"#utility.yul\":749:755   */\n              0x00\n                /* \"#utility.yul\":798:800   */\n              0x20\n                /* \"#utility.yul\":786:795   */\n              dup3\n                /* \"#utility.yul\":777:784   */\n              dup5\n                /* \"#utility.yul\":773:796   */\n              sub\n                /* \"#utility.yul\":769:801   */\n              slt\n                /* \"#utility.yul\":766:885   */\n              iszero\n              tag_151\n              jumpi\n                /* \"#utility.yul\":804:883   */\n              tag_152\n              tag_93\n              jump\t// in\n            tag_152:\n                /* \"#utility.yul\":766:885   */\n            tag_151:\n                /* \"#utility.yul\":924:925   */\n              0x00\n                /* \"#utility.yul\":949:1002   */\n              tag_153\n                /* \"#utility.yul\":994:1001   */\n              dup5\n                /* \"#utility.yul\":985:991   */\n              dup3\n                /* \"#utility.yul\":974:983   */\n              dup6\n                /* \"#utility.yul\":970:992   */\n              add\n                /* \"#utility.yul\":949:1002   */\n              tag_97\n              jump\t// in\n            tag_153:\n                /* \"#utility.yul\":939:1002   */\n              swap2\n              pop\n                /* \"#utility.yul\":895:1012   */\n              pop\n                /* \"#utility.yul\":690:1019   */\n              swap3\n              swap2\n              pop\n              pop\n              jump\t// out\n                /* \"#utility.yul\":1025:1124   */\n            tag_98:\n                /* \"#utility.yul\":1077:1083   */\n              0x00\n                /* \"#utility.yul\":1111:1116   */\n              dup2\n                /* \"#utility.yul\":1105:1117   */\n              mload\n                /* \"#utility.yul\":1095:1117   */\n              swap1\n              pop\n                /* \"#utility.yul\":1025:1124   */\n              swap2\n              swap1\n              pop\n              jump\t// out\n                /* \"#utility.yul\":1130:1299   */\n            tag_99:\n                /* \"#utility.yul\":1214:1225   */\n              0x00\n                /* \"#utility.yul\":1248:1254   */\n              dup3\n                /* \"#utility.yul\":1243:1246   */\n              dup3\n                /* \"#utility.yul\":1236:1255   */\n              mstore\n                /* \"#utility.yul\":1288:1292   */\n              0x20\n                /* \"#utility.yul\":1283:1286   */\n              dup3\n                /* \"#utility.yul\":1279:1293   */\n              add\n                /* \"#utility.yul\":1264:1293   */\n              swap1\n              pop\n                /* \"#utility.yul\":1130:1299   */\n              swap3\n              swap2\n              pop\n              pop\n              jump\t// out\n                /* \"#utility.yul\":1305:1444   */\n            tag_100:\n                /* \"#utility.yul\":1394:1400   */\n              dup3\n                /* \"#utility.yul\":1389:1392   */\n              dup2\n                /* \"#utility.yul\":1384:1387   */\n              dup4\n                /* \"#utility.yul\":1378:1401   */\n              mcopy\n                /* \"#utility.yul\":1435:1436   */\n              0x00\n                /* \"#utility.yul\":1426:1432   */\n              dup4\n                /* \"#utility.yul\":1421:1424   */\n              dup4\n                /* \"#utility.yul\":1417:1433   */\n              add\n                /* \"#utility.yul\":1410:1437   */\n              mstore\n                /* \"#utility.yul\":1305:1444   */\n              pop\n              pop\n              pop\n              jump\t// out\n                /* \"#utility.yul\":1450:1552   */\n            tag_101:\n                /* \"#utility.yul\":1491:1497   */\n              0x00\n                /* \"#utility.yul\":1542:1544   */\n              0x1f\n                /* \"#utility.yul\":1538:1545   */\n              not\n                /* \"#utility.yul\":1533:1535   */\n              0x1f\n                /* \"#utility.yul\":1526:1531   */\n              dup4\n                /* \"#utility.yul\":1522:1536   */\n              add\n                /* \"#utility.yul\":1518:1546   */\n              and\n                /* \"#utility.yul\":1508:1546   */\n              swap1\n              pop\n                /* \"#utility.yul\":1450:1552   */\n              swap2\n              swap1\n              pop\n              jump\t// out\n                /* \"#utility.yul\":1558:1935   */\n            tag_102:\n                /* \"#utility.yul\":1646:1649   */\n              0x00\n                /* \"#utility.yul\":1674:1713   */\n              tag_159\n                /* \"#utility.yul\":1707:1712   */\n              dup3\n                /* \"#utility.yul\":1674:1713   */\n              tag_98\n              jump\t// in\n            tag_159:\n                /* \"#utility.yul\":1729:1800   */\n              tag_160\n                /* \"#utility.yul\":1793:1799   */\n              dup2\n                /* \"#utility.yul\":1788:1791   */\n              dup6\n                /* \"#utility.yul\":1729:1800   */\n              tag_99\n              jump\t// in\n            tag_160:\n                /* \"#utility.yul\":1722:1800   */\n              swap4\n              pop\n                /* \"#utility.yul\":1809:1874   */\n              tag_161\n                /* \"#utility.yul\":1867:1873   */\n              dup2\n                /* \"#utility.yul\":1862:1865   */\n              dup6\n                /* \"#utility.yul\":1855:1859   */\n              0x20\n                /* \"#utility.yul\":1848:1853   */\n              dup7\n                /* \"#utility.yul\":1844:1860   */\n              add\n                /* \"#utility.yul\":1809:1874   */\n              tag_100\n              jump\t// in\n            tag_161:\n                /* \"#utility.yul\":1899:1928   */\n              tag_162\n                /* \"#utility.yul\":1921:1927   */\n              dup2\n                /* \"#utility.yul\":1899:1928   */\n              tag_101\n              jump\t// in\n            tag_162:\n                /* \"#utility.yul\":1894:1897   */\n              dup5\n                /* \"#utility.yul\":1890:1929   */\n              add\n                /* \"#utility.yul\":1883:1929   */\n              swap2\n              pop\n                /* \"#utility.yul\":1650:1935   */\n              pop\n                /* \"#utility.yul\":1558:1935   */\n              swap3\n              swap2\n              pop\n              pop\n              jump\t// out\n                /* \"#utility.yul\":1941:2059   */\n            tag_103:\n                /* \"#utility.yul\":2028:2052   */\n              tag_164\n                /* \"#utility.yul\":2046:2051   */\n              dup2\n                /* \"#utility.yul\":2028:2052   */\n              tag_95\n              jump\t// in\n            tag_164:\n                /* \"#utility.yul\":2023:2026   */\n              dup3\n                /* \"#utility.yul\":2016:2053   */\n              mstore\n                /* \"#utility.yul\":1941:2059   */\n              pop\n              pop\n              jump\t// out\n                /* \"#utility.yul\":2065:2598   */\n            tag_16:\n                /* \"#utility.yul\":2234:2238   */\n              0x00\n                /* \"#utility.yul\":2272:2274   */\n              0x60\n                /* \"#utility.yul\":2261:2270   */\n              dup3\n                /* \"#utility.yul\":2257:2275   */\n              add\n                /* \"#utility.yul\":2249:2275   */\n              swap1\n              pop\n                /* \"#utility.yul\":2321:2330   */\n              dup2\n                /* \"#utility.yul\":2315:2319   */\n              dup2\n                /* \"#utility.yul\":2311:2331   */\n              sub\n                /* \"#utility.yul\":2307:2308   */\n              0x00\n                /* \"#utility.yul\":2296:2305   */\n              dup4\n                /* \"#utility.yul\":2292:2309   */\n              add\n                /* \"#utility.yul\":2285:2332   */\n              mstore\n                /* \"#utility.yul\":2349:2427   */\n              tag_166\n                /* \"#utility.yul\":2422:2426   */\n              dup2\n                /* \"#utility.yul\":2413:2419   */\n              dup7\n                /* \"#utility.yul\":2349:2427   */\n              tag_102\n              jump\t// in\n            tag_166:\n                /* \"#utility.yul\":2341:2427   */\n              swap1\n              pop\n                /* \"#utility.yul\":2437:2509   */\n              tag_167\n                /* \"#utility.yul\":2505:2507   */\n              0x20\n                /* \"#utility.yul\":2494:2503   */\n              dup4\n                /* \"#utility.yul\":2490:2508   */\n              add\n                /* \"#utility.yul\":2481:2487   */\n              dup6\n                /* \"#utility.yul\":2437:2509   */\n              tag_103\n              jump\t// in\n            tag_167:\n                /* \"#utility.yul\":2519:2591   */\n              tag_168\n                /* \"#utility.yul\":2587:2589   */\n              0x40\n                /* \"#utility.yul\":2576:2585   */\n              dup4\n                /* \"#utility.yul\":2572:2590   */\n              add\n                /* \"#utility.yul\":2563:2569   */\n              dup5\n                /* \"#utility.yul\":2519:2591   */\n              tag_103\n              jump\t// in\n            tag_168:\n                /* \"#utility.yul\":2065:2598   */\n              swap5\n              swap4\n              pop\n              pop\n              pop\n              pop\n              jump\t// out\n                /* \"#utility.yul\":2604:2763   */\n            tag_104:\n                /* \"#utility.yul\":2678:2689   */\n              0x00\n                /* \"#utility.yul\":2712:2718   */\n              dup3\n                /* \"#utility.yul\":2707:2710   */\n              dup3\n                /* \"#utility.yul\":2700:2719   */\n              mstore\n                /* \"#utility.yul\":2752:2756   */\n              0x20\n                /* \"#utility.yul\":2747:2750   */\n              dup3\n                /* \"#utility.yul\":2743:2757   */\n              add\n                /* \"#utility.yul\":2728:2757   */\n              swap1\n              pop\n                /* \"#utility.yul\":2604:2763   */\n              swap3\n              swap2\n              pop\n              pop\n              jump\t// out\n                /* \"#utility.yul\":2769:3126   */\n            tag_105:\n                /* \"#utility.yul\":2847:2850   */\n              0x00\n                /* \"#utility.yul\":2875:2914   */\n              tag_171\n                /* \"#utility.yul\":2908:2913   */\n              dup3\n                /* \"#utility.yul\":2875:2914   */\n              tag_98\n              jump\t// in\n            tag_171:\n                /* \"#utility.yul\":2930:2991   */\n              tag_172\n                /* \"#utility.yul\":2984:2990   */\n              dup2\n                /* \"#utility.yul\":2979:2982   */\n              dup6\n                /* \"#utility.yul\":2930:2991   */\n              tag_104\n              jump\t// in\n            tag_172:\n                /* \"#utility.yul\":2923:2991   */\n              swap4\n              pop\n                /* \"#utility.yul\":3000:3065   */\n              tag_173\n                /* \"#utility.yul\":3058:3064   */\n              dup2\n                /* \"#utility.yul\":3053:3056   */\n              dup6\n                /* \"#utility.yul\":3046:3050   */\n              0x20\n                /* \"#utility.yul\":3039:3044   */\n              dup7\n                /* \"#utility.yul\":3035:3051   */\n              add\n                /* \"#utility.yul\":3000:3065   */\n              tag_100\n              jump\t// in\n            tag_173:\n                /* \"#utility.yul\":3090:3119   */\n              tag_174\n                /* \"#utility.yul\":3112:3118   */\n              dup2\n                /* \"#utility.yul\":3090:3119   */\n              tag_101\n              jump\t// in\n            tag_174:\n                /* \"#utility.yul\":3085:3088   */\n              dup5\n                /* \"#utility.yul\":3081:3120   */\n              add\n                /* \"#utility.yul\":3074:3120   */\n              swap2\n              pop\n                /* \"#utility.yul\":2851:3126   */\n              pop\n                /* \"#utility.yul\":2769:3126   */\n              swap3\n              swap2\n              pop\n              pop\n              jump\t// out\n                /* \"#utility.yul\":3132:3240   */\n            tag_106:\n                /* \"#utility.yul\":3209:3233   */\n              tag_176\n                /* \"#utility.yul\":3227:3232   */\n              dup2\n                /* \"#utility.yul\":3209:3233   */\n              tag_95\n              jump\t// in\n            tag_176:\n                /* \"#utility.yul\":3204:3207   */\n              dup3\n                /* \"#utility.yul\":3197:3234   */\n              mstore\n                /* \"#utility.yul\":3132:3240   */\n              pop\n              pop\n              jump\t// out\n                /* \"#utility.yul\":3312:4103   */\n            tag_107:\n                /* \"#utility.yul\":3427:3430   */\n              0x00\n                /* \"#utility.yul\":3463:3467   */\n              0x60\n                /* \"#utility.yul\":3458:3461   */\n              dup4\n                /* \"#utility.yul\":3454:3468   */\n              add\n                /* \"#utility.yul\":3550:3554   */\n              0x00\n                /* \"#utility.yul\":3543:3548   */\n              dup4\n                /* \"#utility.yul\":3539:3555   */\n              add\n                /* \"#utility.yul\":3533:3556   */\n              mload\n                /* \"#utility.yul\":3603:3606   */\n              dup5\n                /* \"#utility.yul\":3597:3601   */\n              dup3\n                /* \"#utility.yul\":3593:3607   */\n              sub\n                /* \"#utility.yul\":3586:3590   */\n              0x00\n                /* \"#utility.yul\":3581:3584   */\n              dup7\n                /* \"#utility.yul\":3577:3591   */\n              add\n                /* \"#utility.yul\":3570:3608   */\n              mstore\n                /* \"#utility.yul\":3629:3702   */\n              tag_178\n                /* \"#utility.yul\":3697:3701   */\n              dup3\n                /* \"#utility.yul\":3683:3695   */\n              dup3\n                /* \"#utility.yul\":3629:3702   */\n              tag_105\n              jump\t// in\n            tag_178:\n                /* \"#utility.yul\":3621:3702   */\n              swap2\n              pop\n                /* \"#utility.yul\":3478:3713   */\n              pop\n                /* \"#utility.yul\":3800:3804   */\n              0x20\n                /* \"#utility.yul\":3793:3798   */\n              dup4\n                /* \"#utility.yul\":3789:3805   */\n              add\n                /* \"#utility.yul\":3783:3806   */\n              mload\n                /* \"#utility.yul\":3819:3882   */\n              tag_179\n                /* \"#utility.yul\":3876:3880   */\n              0x20\n                /* \"#utility.yul\":3871:3874   */\n              dup7\n                /* \"#utility.yul\":3867:3881   */\n              add\n                /* \"#utility.yul\":3853:3865   */\n              dup3\n                /* \"#utility.yul\":3819:3882   */\n              tag_106\n              jump\t// in\n            tag_179:\n                /* \"#utility.yul\":3723:3892   */\n              pop\n                /* \"#utility.yul\":3984:3988   */\n              0x40\n                /* \"#utility.yul\":3977:3982   */\n              dup4\n                /* \"#utility.yul\":3973:3989   */\n              add\n                /* \"#utility.yul\":3967:3990   */\n              mload\n                /* \"#utility.yul\":4003:4066   */\n              tag_180\n                /* \"#utility.yul\":4060:4064   */\n              0x40\n                /* \"#utility.yul\":4055:4058   */\n              dup7\n                /* \"#utility.yul\":4051:4065   */\n              add\n                /* \"#utility.yul\":4037:4049   */\n              dup3\n                /* \"#utility.yul\":4003:4066   */\n              tag_106\n              jump\t// in\n            tag_180:\n                /* \"#utility.yul\":3902:4076   */\n              pop\n                /* \"#utility.yul\":4093:4097   */\n              dup1\n                /* \"#utility.yul\":4086:4097   */\n              swap2\n              pop\n                /* \"#utility.yul\":3432:4103   */\n              pop\n                /* \"#utility.yul\":3312:4103   */\n              swap3\n              swap2\n              pop\n              pop\n              jump\t// out\n                /* \"#utility.yul\":4109:4474   */\n            tag_21:\n                /* \"#utility.yul\":4248:4252   */\n              0x00\n                /* \"#utility.yul\":4286:4288   */\n              0x20\n                /* \"#utility.yul\":4275:4284   */\n              dup3\n                /* \"#utility.yul\":4271:4289   */\n              add\n                /* \"#utility.yul\":4263:4289   */\n              swap1\n              pop\n                /* \"#utility.yul\":4335:4344   */\n              dup2\n                /* \"#utility.yul\":4329:4333   */\n              dup2\n                /* \"#utility.yul\":4325:4345   */\n              sub\n                /* \"#utility.yul\":4321:4322   */\n              0x00\n                /* \"#utility.yul\":4310:4319   */\n              dup4\n                /* \"#utility.yul\":4306:4323   */\n              add\n                /* \"#utility.yul\":4299:4346   */\n              mstore\n                /* \"#utility.yul\":4363:4467   */\n              tag_182\n                /* \"#utility.yul\":4462:4466   */\n              dup2\n                /* \"#utility.yul\":4453:4459   */\n              dup5\n                /* \"#utility.yul\":4363:4467   */\n              tag_107\n              jump\t// in\n            tag_182:\n                /* \"#utility.yul\":4355:4467   */\n              swap1\n              pop\n                /* \"#utility.yul\":4109:4474   */\n              swap3\n              swap2\n              pop\n              pop\n              jump\t// out\n                /* \"#utility.yul\":4480:4793   */\n            tag_26:\n                /* \"#utility.yul\":4593:4597   */\n              0x00\n                /* \"#utility.yul\":4631:4633   */\n              0x20\n                /* \"#utility.yul\":4620:4629   */\n              dup3\n                /* \"#utility.yul\":4616:4634   */\n              add\n                /* \"#utility.yul\":4608:4634   */\n              swap1\n              pop\n                /* \"#utility.yul\":4680:4689   */\n              dup2\n                /* \"#utility.yul\":4674:4678   */\n              dup2\n                /* \"#utility.yul\":4670:4690   */\n              sub\n                /* \"#utility.yul\":4666:4667   */\n              0x00\n                /* \"#utility.yul\":4655:4664   */\n              dup4\n                /* \"#utility.yul\":4651:4668   */\n              add\n                /* \"#utility.yul\":4644:4691   */\n              mstore\n                /* \"#utility.yul\":4708:4786   */\n              tag_184\n                /* \"#utility.yul\":4781:4785   */\n              dup2\n                /* \"#utility.yul\":4772:4778   */\n              dup5\n                /* \"#utility.yul\":4708:4786   */\n              tag_102\n              jump\t// in\n            tag_184:\n                /* \"#utility.yul\":4700:4786   */\n              swap1\n              pop\n                /* \"#utility.yul\":4480:4793   */\n              swap3\n              swap2\n              pop\n              pop\n              jump\t// out\n                /* \"#utility.yul\":4799:5021   */\n            tag_31:\n                /* \"#utility.yul\":4892:4896   */\n              0x00\n                /* \"#utility.yul\":4930:4932   */\n              0x20\n                /* \"#utility.yul\":4919:4928   */\n              dup3\n                /* \"#utility.yul\":4915:4933   */\n              add\n                /* \"#utility.yul\":4907:4933   */\n              swap1\n              pop\n                /* \"#utility.yul\":4943:5014   */\n              tag_186\n                /* \"#utility.yul\":5011:5012   */\n              0x00\n                /* \"#utility.yul\":5000:5009   */\n              dup4\n                /* \"#utility.yul\":4996:5013   */\n              add\n                /* \"#utility.yul\":4987:4993   */\n              dup5\n                /* \"#utility.yul\":4943:5014   */\n              tag_103\n              jump\t// in\n            tag_186:\n                /* \"#utility.yul\":4799:5021   */\n              swap3\n              swap2\n              pop\n              pop\n              jump\t// out\n                /* \"#utility.yul\":5027:5144   */\n            tag_108:\n                /* \"#utility.yul\":5136:5137   */\n              0x00\n                /* \"#utility.yul\":5133:5134   */\n              dup1\n                /* \"#utility.yul\":5126:5138   */\n              revert\n                /* \"#utility.yul\":5150:5267   */\n            tag_109:\n                /* \"#utility.yul\":5259:5260   */\n              0x00\n                /* \"#utility.yul\":5256:5257   */\n              dup1\n                /* \"#utility.yul\":5249:5261   */\n              revert\n                /* \"#utility.yul\":5273:5453   */\n            tag_110:\n                /* \"#utility.yul\":5321:5398   */\n              0x4e487b7100000000000000000000000000000000000000000000000000000000\n                /* \"#utility.yul\":5318:5319   */\n              0x00\n                /* \"#utility.yul\":5311:5399   */\n              mstore\n                /* \"#utility.yul\":5418:5422   */\n              0x41\n                /* \"#utility.yul\":5415:5416   */\n              0x04\n                /* \"#utility.yul\":5408:5423   */\n              mstore\n                /* \"#utility.yul\":5442:5446   */\n              0x24\n                /* \"#utility.yul\":5439:5440   */\n              0x00\n                /* \"#utility.yul\":5432:5447   */\n              revert\n                /* \"#utility.yul\":5459:5740   */\n            tag_111:\n                /* \"#utility.yul\":5542:5569   */\n              tag_191\n                /* \"#utility.yul\":5564:5568   */\n              dup3\n                /* \"#utility.yul\":5542:5569   */\n              tag_101\n              jump\t// in\n            tag_191:\n                /* \"#utility.yul\":5534:5540   */\n              dup2\n                /* \"#utility.yul\":5530:5570   */\n              add\n                /* \"#utility.yul\":5672:5678   */\n              dup2\n                /* \"#utility.yul\":5660:5670   */\n              dup2\n                /* \"#utility.yul\":5657:5679   */\n              lt\n                /* \"#utility.yul\":5636:5654   */\n              0xffffffffffffffff\n                /* \"#utility.yul\":5624:5634   */\n              dup3\n                /* \"#utility.yul\":5621:5655   */\n              gt\n                /* \"#utility.yul\":5618:5680   */\n              or\n                /* \"#utility.yul\":5615:5703   */\n              iszero\n              tag_192\n              jumpi\n                /* \"#utility.yul\":5683:5701   */\n              tag_193\n              tag_110\n              jump\t// in\n            tag_193:\n                /* \"#utility.yul\":5615:5703   */\n            tag_192:\n                /* \"#utility.yul\":5723:5733   */\n              dup1\n                /* \"#utility.yul\":5719:5721   */\n              0x40\n                /* \"#utility.yul\":5712:5734   */\n              mstore\n                /* \"#utility.yul\":5502:5740   */\n              pop\n                /* \"#utility.yul\":5459:5740   */\n              pop\n              pop\n              jump\t// out\n                /* \"#utility.yul\":5746:5875   */\n            tag_112:\n                /* \"#utility.yul\":5780:5786   */\n              0x00\n                /* \"#utility.yul\":5807:5827   */\n              tag_195\n              tag_92\n              jump\t// in\n            tag_195:\n                /* \"#utility.yul\":5797:5827   */\n              swap1\n              pop\n                /* \"#utility.yul\":5836:5869   */\n              tag_196\n                /* \"#utility.yul\":5864:5868   */\n              dup3\n                /* \"#utility.yul\":5856:5862   */\n              dup3\n                /* \"#utility.yul\":5836:5869   */\n              tag_111\n              jump\t// in\n            tag_196:\n                /* \"#utility.yul\":5746:5875   */\n              swap2\n              swap1\n              pop\n              jump\t// out\n                /* \"#utility.yul\":5881:6189   */\n            tag_113:\n                /* \"#utility.yul\":5943:5947   */\n              0x00\n                /* \"#utility.yul\":6033:6051   */\n              0xffffffffffffffff\n                /* \"#utility.yul\":6025:6031   */\n              dup3\n                /* \"#utility.yul\":6022:6052   */\n              gt\n                /* \"#utility.yul\":6019:6075   */\n              iszero\n              tag_198\n              jumpi\n                /* \"#utility.yul\":6055:6073   */\n              tag_199\n              tag_110\n              jump\t// in\n            tag_199:\n                /* \"#utility.yul\":6019:6075   */\n            tag_198:\n                /* \"#utility.yul\":6093:6122   */\n              tag_200\n                /* \"#utility.yul\":6115:6121   */\n              dup3\n                /* \"#utility.yul\":6093:6122   */\n              tag_101\n              jump\t// in\n            tag_200:\n                /* \"#utility.yul\":6085:6122   */\n              swap1\n              pop\n                /* \"#utility.yul\":6177:6181   */\n              0x20\n                /* \"#utility.yul\":6171:6175   */\n              dup2\n                /* \"#utility.yul\":6167:6182   */\n              add\n                /* \"#utility.yul\":6159:6182   */\n              swap1\n              pop\n                /* \"#utility.yul\":5881:6189   */\n              swap2\n              swap1\n              pop\n              jump\t// out\n                /* \"#utility.yul\":6195:6343   */\n            tag_114:\n                /* \"#utility.yul\":6293:6299   */\n              dup3\n                /* \"#utility.yul\":6288:6291   */\n              dup2\n                /* \"#utility.yul\":6283:6286   */\n              dup4\n                /* \"#utility.yul\":6270:6300   */\n              calldatacopy\n                /* \"#utility.yul\":6334:6335   */\n              0x00\n                /* \"#utility.yul\":6325:6331   */\n              dup4\n                /* \"#utility.yul\":6320:6323   */\n              dup4\n                /* \"#utility.yul\":6316:6332   */\n              add\n                /* \"#utility.yul\":6309:6336   */\n              mstore\n                /* \"#utility.yul\":6195:6343   */\n              pop\n              pop\n              pop\n              jump\t// out\n                /* \"#utility.yul\":6349:6774   */\n            tag_115:\n                /* \"#utility.yul\":6427:6432   */\n              0x00\n                /* \"#utility.yul\":6452:6518   */\n              tag_203\n                /* \"#utility.yul\":6468:6517   */\n              tag_204\n                /* \"#utility.yul\":6510:6516   */\n              dup5\n                /* \"#utility.yul\":6468:6517   */\n              tag_113\n              jump\t// in\n            tag_204:\n                /* \"#utility.yul\":6452:6518   */\n              tag_112\n              jump\t// in\n            tag_203:\n                /* \"#utility.yul\":6443:6518   */\n              swap1\n              pop\n                /* \"#utility.yul\":6541:6547   */\n              dup3\n                /* \"#utility.yul\":6534:6539   */\n              dup2\n                /* \"#utility.yul\":6527:6548   */\n              mstore\n                /* \"#utility.yul\":6579:6583   */\n              0x20\n                /* \"#utility.yul\":6572:6577   */\n              dup2\n                /* \"#utility.yul\":6568:6584   */\n              add\n                /* \"#utility.yul\":6617:6620   */\n              dup5\n                /* \"#utility.yul\":6608:6614   */\n              dup5\n                /* \"#utility.yul\":6603:6606   */\n              dup5\n                /* \"#utility.yul\":6599:6615   */\n              add\n                /* \"#utility.yul\":6596:6621   */\n              gt\n                /* \"#utility.yul\":6593:6705   */\n              iszero\n              tag_205\n              jumpi\n                /* \"#utility.yul\":6624:6703   */\n              tag_206\n              tag_109\n              jump\t// in\n            tag_206:\n                /* \"#utility.yul\":6593:6705   */\n            tag_205:\n                /* \"#utility.yul\":6714:6768   */\n              tag_207\n                /* \"#utility.yul\":6761:6767   */\n              dup5\n                /* \"#utility.yul\":6756:6759   */\n              dup3\n                /* \"#utility.yul\":6751:6754   */\n              dup6\n                /* \"#utility.yul\":6714:6768   */\n              tag_114\n              jump\t// in\n            tag_207:\n                /* \"#utility.yul\":6433:6774   */\n              pop\n                /* \"#utility.yul\":6349:6774   */\n              swap4\n              swap3\n              pop\n              pop\n              pop\n              jump\t// out\n                /* \"#utility.yul\":6794:7134   */\n            tag_116:\n                /* \"#utility.yul\":6850:6855   */\n              0x00\n                /* \"#utility.yul\":6899:6902   */\n              dup3\n                /* \"#utility.yul\":6892:6896   */\n              0x1f\n                /* \"#utility.yul\":6884:6890   */\n              dup4\n                /* \"#utility.yul\":6880:6897   */\n              add\n                /* \"#utility.yul\":6876:6903   */\n              slt\n                /* \"#utility.yul\":6866:6988   */\n              tag_209\n              jumpi\n                /* \"#utility.yul\":6907:6986   */\n              tag_210\n              tag_108\n              jump\t// in\n            tag_210:\n                /* \"#utility.yul\":6866:6988   */\n            tag_209:\n                /* \"#utility.yul\":7024:7030   */\n              dup2\n                /* \"#utility.yul\":7011:7031   */\n              calldataload\n                /* \"#utility.yul\":7049:7128   */\n              tag_211\n                /* \"#utility.yul\":7124:7127   */\n              dup5\n                /* \"#utility.yul\":7116:7122   */\n              dup3\n                /* \"#utility.yul\":7109:7113   */\n              0x20\n                /* \"#utility.yul\":7101:7107   */\n              dup7\n                /* \"#utility.yul\":7097:7114   */\n              add\n                /* \"#utility.yul\":7049:7128   */\n              tag_115\n              jump\t// in\n            tag_211:\n                /* \"#utility.yul\":7040:7128   */\n              swap2\n              pop\n                /* \"#utility.yul\":6856:7134   */\n              pop\n                /* \"#utility.yul\":6794:7134   */\n              swap3\n              swap2\n              pop\n              pop\n              jump\t// out\n                /* \"#utility.yul\":7140:7939   */\n            tag_34:\n                /* \"#utility.yul\":7227:7233   */\n              0x00\n                /* \"#utility.yul\":7235:7241   */\n              dup1\n                /* \"#utility.yul\":7243:7249   */\n              0x00\n                /* \"#utility.yul\":7292:7294   */\n              0x60\n                /* \"#utility.yul\":7280:7289   */\n              dup5\n                /* \"#utility.yul\":7271:7278   */\n              dup7\n                /* \"#utility.yul\":7267:7290   */\n              sub\n                /* \"#utility.yul\":7263:7295   */\n              slt\n                /* \"#utility.yul\":7260:7379   */\n              iszero\n              tag_213\n              jumpi\n                /* \"#utility.yul\":7298:7377   */\n              tag_214\n              tag_93\n              jump\t// in\n            tag_214:\n                /* \"#utility.yul\":7260:7379   */\n            tag_213:\n                /* \"#utility.yul\":7446:7447   */\n              0x00\n                /* \"#utility.yul\":7435:7444   */\n              dup5\n                /* \"#utility.yul\":7431:7448   */\n              add\n                /* \"#utility.yul\":7418:7449   */\n              calldataload\n                /* \"#utility.yul\":7476:7494   */\n              0xffffffffffffffff\n                /* \"#utility.yul\":7468:7474   */\n              dup2\n                /* \"#utility.yul\":7465:7495   */\n              gt\n                /* \"#utility.yul\":7462:7579   */\n              iszero\n              tag_215\n              jumpi\n                /* \"#utility.yul\":7498:7577   */\n              tag_216\n              tag_94\n              jump\t// in\n            tag_216:\n                /* \"#utility.yul\":7462:7579   */\n            tag_215:\n                /* \"#utility.yul\":7603:7666   */\n              tag_217\n                /* \"#utility.yul\":7658:7665   */\n              dup7\n                /* \"#utility.yul\":7649:7655   */\n              dup3\n                /* \"#utility.yul\":7638:7647   */\n              dup8\n                /* \"#utility.yul\":7634:7656   */\n              add\n                /* \"#utility.yul\":7603:7666   */\n              tag_116\n              jump\t// in\n            tag_217:\n                /* \"#utility.yul\":7593:7666   */\n              swap4\n              pop\n                /* \"#utility.yul\":7389:7676   */\n              pop\n                /* \"#utility.yul\":7715:7717   */\n              0x20\n                /* \"#utility.yul\":7741:7794   */\n              tag_218\n                /* \"#utility.yul\":7786:7793   */\n              dup7\n                /* \"#utility.yul\":7777:7783   */\n              dup3\n                /* \"#utility.yul\":7766:7775   */\n              dup8\n                /* \"#utility.yul\":7762:7784   */\n              add\n                /* \"#utility.yul\":7741:7794   */\n              tag_97\n              jump\t// in\n            tag_218:\n                /* \"#utility.yul\":7731:7794   */\n              swap3\n              pop\n                /* \"#utility.yul\":7686:7804   */\n              pop\n                /* \"#utility.yul\":7843:7845   */\n              0x40\n                /* \"#utility.yul\":7869:7922   */\n              tag_219\n                /* \"#utility.yul\":7914:7921   */\n              dup7\n                /* \"#utility.yul\":7905:7911   */\n              dup3\n                /* \"#utility.yul\":7894:7903   */\n              dup8\n                /* \"#utility.yul\":7890:7912   */\n              add\n                /* \"#utility.yul\":7869:7922   */\n              tag_97\n              jump\t// in\n            tag_219:\n                /* \"#utility.yul\":7859:7922   */\n              swap2\n              pop\n                /* \"#utility.yul\":7814:7932   */\n              pop\n                /* \"#utility.yul\":7140:7939   */\n              swap3\n              pop\n              swap3\n              pop\n              swap3\n              jump\t// out\n                /* \"#utility.yul\":7945:8035   */\n            tag_117:\n                /* \"#utility.yul\":7979:7986   */\n              0x00\n                /* \"#utility.yul\":8022:8027   */\n              dup2\n                /* \"#utility.yul\":8015:8028   */\n              iszero\n                /* \"#utility.yul\":8008:8029   */\n              iszero\n                /* \"#utility.yul\":7997:8029   */\n              swap1\n              pop\n                /* \"#utility.yul\":7945:8035   */\n              swap2\n              swap1\n              pop\n              jump\t// out\n                /* \"#utility.yul\":8041:8150   */\n            tag_118:\n                /* \"#utility.yul\":8122:8143   */\n              tag_222\n                /* \"#utility.yul\":8137:8142   */\n              dup2\n                /* \"#utility.yul\":8122:8143   */\n              tag_117\n              jump\t// in\n            tag_222:\n                /* \"#utility.yul\":8117:8120   */\n              dup3\n                /* \"#utility.yul\":8110:8144   */\n              mstore\n                /* \"#utility.yul\":8041:8150   */\n              pop\n              pop\n              jump\t// out\n                /* \"#utility.yul\":8156:8366   */\n            tag_40:\n                /* \"#utility.yul\":8243:8247   */\n              0x00\n                /* \"#utility.yul\":8281:8283   */\n              0x20\n                /* \"#utility.yul\":8270:8279   */\n              dup3\n                /* \"#utility.yul\":8266:8284   */\n              add\n                /* \"#utility.yul\":8258:8284   */\n              swap1\n              pop\n                /* \"#utility.yul\":8294:8359   */\n              tag_224\n                /* \"#utility.yul\":8356:8357   */\n              0x00\n                /* \"#utility.yul\":8345:8354   */\n              dup4\n                /* \"#utility.yul\":8341:8358   */\n              add\n                /* \"#utility.yul\":8332:8338   */\n              dup5\n                /* \"#utility.yul\":8294:8359   */\n              tag_118\n              jump\t// in\n            tag_224:\n                /* \"#utility.yul\":8156:8366   */\n              swap3\n              swap2\n              pop\n              pop\n              jump\t// out\n                /* \"#utility.yul\":8372:8846   */\n            tag_43:\n                /* \"#utility.yul\":8440:8446   */\n              0x00\n                /* \"#utility.yul\":8448:8454   */\n              dup1\n                /* \"#utility.yul\":8497:8499   */\n              0x40\n                /* \"#utility.yul\":8485:8494   */\n              dup4\n                /* \"#utility.yul\":8476:8483   */\n              dup6\n                /* \"#utility.yul\":8472:8495   */\n              sub\n                /* \"#utility.yul\":8468:8500   */\n              slt\n                /* \"#utility.yul\":8465:8584   */\n              iszero\n              tag_226\n              jumpi\n                /* \"#utility.yul\":8503:8582   */\n              tag_227\n              tag_93\n              jump\t// in\n            tag_227:\n                /* \"#utility.yul\":8465:8584   */\n            tag_226:\n                /* \"#utility.yul\":8623:8624   */\n              0x00\n                /* \"#utility.yul\":8648:8701   */\n              tag_228\n                /* \"#utility.yul\":8693:8700   */\n              dup6\n                /* \"#utility.yul\":8684:8690   */\n              dup3\n                /* \"#utility.yul\":8673:8682   */\n              dup7\n                /* \"#utility.yul\":8669:8691   */\n              add\n                /* \"#utility.yul\":8648:8701   */\n              tag_97\n              jump\t// in\n            tag_228:\n                /* \"#utility.yul\":8638:8701   */\n              swap3\n              pop\n                /* \"#utility.yul\":8594:8711   */\n              pop\n                /* \"#utility.yul\":8750:8752   */\n              0x20\n                /* \"#utility.yul\":8776:8829   */\n              tag_229\n                /* \"#utility.yul\":8821:8828   */\n              dup6\n                /* \"#utility.yul\":8812:8818   */\n              dup3\n                /* \"#utility.yul\":8801:8810   */\n              dup7\n                /* \"#utility.yul\":8797:8819   */\n              add\n                /* \"#utility.yul\":8776:8829   */\n              tag_97\n              jump\t// in\n            tag_229:\n                /* \"#utility.yul\":8766:8829   */\n              swap2\n              pop\n                /* \"#utility.yul\":8721:8839   */\n              pop\n                /* \"#utility.yul\":8372:8846   */\n              swap3\n              pop\n              swap3\n              swap1\n              pop\n              jump\t// out\n                /* \"#utility.yul\":8852:9032   */\n            tag_119:\n                /* \"#utility.yul\":8900:8977   */\n              0x4e487b7100000000000000000000000000000000000000000000000000000000\n                /* \"#utility.yul\":8897:8898   */\n              0x00\n                /* \"#utility.yul\":8890:8978   */\n              mstore\n                /* \"#utility.yul\":8997:9001   */\n              0x22\n                /* \"#utility.yul\":8994:8995   */\n              0x04\n                /* \"#utility.yul\":8987:9002   */\n              mstore\n                /* \"#utility.yul\":9021:9025   */\n              0x24\n                /* \"#utility.yul\":9018:9019   */\n              0x00\n                /* \"#utility.yul\":9011:9026   */\n              revert\n                /* \"#utility.yul\":9038:9358   */\n            tag_48:\n                /* \"#utility.yul\":9082:9088   */\n              0x00\n                /* \"#utility.yul\":9119:9120   */\n              0x02\n                /* \"#utility.yul\":9113:9117   */\n              dup3\n                /* \"#utility.yul\":9109:9121   */\n              div\n                /* \"#utility.yul\":9099:9121   */\n              swap1\n              pop\n                /* \"#utility.yul\":9166:9167   */\n              0x01\n                /* \"#utility.yul\":9160:9164   */\n              dup3\n                /* \"#utility.yul\":9156:9168   */\n              and\n                /* \"#utility.yul\":9187:9205   */\n              dup1\n                /* \"#utility.yul\":9177:9258   */\n              tag_232\n              jumpi\n                /* \"#utility.yul\":9243:9247   */\n              0x7f\n                /* \"#utility.yul\":9235:9241   */\n              dup3\n                /* \"#utility.yul\":9231:9248   */\n              and\n                /* \"#utility.yul\":9221:9248   */\n              swap2\n              pop\n                /* \"#utility.yul\":9177:9258   */\n            tag_232:\n                /* \"#utility.yul\":9305:9307   */\n              0x20\n                /* \"#utility.yul\":9297:9303   */\n              dup3\n                /* \"#utility.yul\":9294:9308   */\n              lt\n                /* \"#utility.yul\":9274:9292   */\n              dup2\n                /* \"#utility.yul\":9271:9309   */\n              sub\n                /* \"#utility.yul\":9268:9352   */\n              tag_233\n              jumpi\n                /* \"#utility.yul\":9324:9342   */\n              tag_234\n              tag_119\n              jump\t// in\n            tag_234:\n                /* \"#utility.yul\":9268:9352   */\n            tag_233:\n                /* \"#utility.yul\":9089:9358   */\n              pop\n                /* \"#utility.yul\":9038:9358   */\n              swap2\n              swap1\n              pop\n              jump\t// out\n                /* \"#utility.yul\":9364:9536   */\n            tag_120:\n                /* \"#utility.yul\":9504:9528   */\n              0x4163636f756e7420646f6573206e6f7420657869737400000000000000000000\n                /* \"#utility.yul\":9500:9501   */\n              0x00\n                /* \"#utility.yul\":9492:9498   */\n              dup3\n                /* \"#utility.yul\":9488:9502   */\n              add\n                /* \"#utility.yul\":9481:9529   */\n              mstore\n                /* \"#utility.yul\":9364:9536   */\n              pop\n              jump\t// out\n                /* \"#utility.yul\":9542:9908   */\n            tag_121:\n                /* \"#utility.yul\":9684:9687   */\n              0x00\n                /* \"#utility.yul\":9705:9772   */\n              tag_237\n                /* \"#utility.yul\":9769:9771   */\n              0x16\n                /* \"#utility.yul\":9764:9767   */\n              dup4\n                /* \"#utility.yul\":9705:9772   */\n              tag_99\n              jump\t// in\n            tag_237:\n                /* \"#utility.yul\":9698:9772   */\n              swap2\n              pop\n                /* \"#utility.yul\":9781:9874   */\n              tag_238\n                /* \"#utility.yul\":9870:9873   */\n              dup3\n                /* \"#utility.yul\":9781:9874   */\n              tag_120\n              jump\t// in\n            tag_238:\n                /* \"#utility.yul\":9899:9901   */\n              0x20\n                /* \"#utility.yul\":9894:9897   */\n              dup3\n                /* \"#utility.yul\":9890:9902   */\n              add\n                /* \"#utility.yul\":9883:9902   */\n              swap1\n              pop\n                /* \"#utility.yul\":9542:9908   */\n              swap2\n              swap1\n              pop\n              jump\t// out\n                /* \"#utility.yul\":9914:10333   */\n            tag_58:\n                /* \"#utility.yul\":10080:10084   */\n              0x00\n                /* \"#utility.yul\":10118:10120   */\n              0x20\n                /* \"#utility.yul\":10107:10116   */\n              dup3\n                /* \"#utility.yul\":10103:10121   */\n              add\n                /* \"#utility.yul\":10095:10121   */\n              swap1\n              pop\n                /* \"#utility.yul\":10167:10176   */\n              dup2\n                /* \"#utility.yul\":10161:10165   */\n              dup2\n                /* \"#utility.yul\":10157:10177   */\n              sub\n                /* \"#utility.yul\":10153:10154   */\n              0x00\n                /* \"#utility.yul\":10142:10151   */\n              dup4\n                /* \"#utility.yul\":10138:10155   */\n              add\n                /* \"#utility.yul\":10131:10178   */\n              mstore\n                /* \"#utility.yul\":10195:10326   */\n              tag_240\n                /* \"#utility.yul\":10321:10325   */\n              dup2\n                /* \"#utility.yul\":10195:10326   */\n              tag_121\n              jump\t// in\n            tag_240:\n                /* \"#utility.yul\":10187:10326   */\n              swap1\n              pop\n                /* \"#utility.yul\":9914:10333   */\n              swap2\n              swap1\n              pop\n              jump\t// out\n                /* \"#utility.yul\":10339:10519   */\n            tag_61:\n                /* \"#utility.yul\":10387:10464   */\n              0x4e487b7100000000000000000000000000000000000000000000000000000000\n                /* \"#utility.yul\":10384:10385   */\n              0x00\n                /* \"#utility.yul\":10377:10465   */\n              mstore\n                /* \"#utility.yul\":10484:10488   */\n              0x32\n                /* \"#utility.yul\":10481:10482   */\n              0x04\n                /* \"#utility.yul\":10474:10489   */\n              mstore\n                /* \"#utility.yul\":10508:10512   */\n              0x24\n                /* \"#utility.yul\":10505:10506   */\n              0x00\n                /* \"#utility.yul\":10498:10513   */\n              revert\n                /* \"#utility.yul\":10525:10697   */\n            tag_122:\n                /* \"#utility.yul\":10665:10689   */\n              0x4163636f756e7420616c72656164792065786973747300000000000000000000\n                /* \"#utility.yul\":10661:10662   */\n              0x00\n                /* \"#utility.yul\":10653:10659   */\n              dup3\n                /* \"#utility.yul\":10649:10663   */\n              add\n                /* \"#utility.yul\":10642:10690   */\n              mstore\n                /* \"#utility.yul\":10525:10697   */\n              pop\n              jump\t// out\n                /* \"#utility.yul\":10703:11069   */\n            tag_123:\n                /* \"#utility.yul\":10845:10848   */\n              0x00\n                /* \"#utility.yul\":10866:10933   */\n              tag_244\n                /* \"#utility.yul\":10930:10932   */\n              0x16\n                /* \"#utility.yul\":10925:10928   */\n              dup4\n                /* \"#utility.yul\":10866:10933   */\n              tag_99\n              jump\t// in\n            tag_244:\n                /* \"#utility.yul\":10859:10933   */\n              swap2\n              pop\n                /* \"#utility.yul\":10942:11035   */\n              tag_245\n                /* \"#utility.yul\":11031:11034   */\n              dup3\n                /* \"#utility.yul\":10942:11035   */\n              tag_122\n              jump\t// in\n            tag_245:\n                /* \"#utility.yul\":11060:11062   */\n              0x20\n                /* \"#utility.yul\":11055:11058   */\n              dup3\n                /* \"#utility.yul\":11051:11063   */\n              add\n                /* \"#utility.yul\":11044:11063   */\n              swap1\n              pop\n                /* \"#utility.yul\":10703:11069   */\n              swap2\n              swap1\n              pop\n              jump\t// out\n                /* \"#utility.yul\":11075:11494   */\n            tag_76:\n                /* \"#utility.yul\":11241:11245   */\n              0x00\n                /* \"#utility.yul\":11279:11281   */\n              0x20\n                /* \"#utility.yul\":11268:11277   */\n              dup3\n                /* \"#utility.yul\":11264:11282   */\n              add\n                /* \"#utility.yul\":11256:11282   */\n              swap1\n              pop\n                /* \"#utility.yul\":11328:11337   */\n              dup2\n                /* \"#utility.yul\":11322:11326   */\n              dup2\n                /* \"#utility.yul\":11318:11338   */\n              sub\n                /* \"#utility.yul\":11314:11315   */\n              0x00\n                /* \"#utility.yul\":11303:11312   */\n              dup4\n                /* \"#utility.yul\":11299:11316   */\n              add\n                /* \"#utility.yul\":11292:11339   */\n              mstore\n                /* \"#utility.yul\":11356:11487   */\n              tag_247\n                /* \"#utility.yul\":11482:11486   */\n              dup2\n                /* \"#utility.yul\":11356:11487   */\n              tag_123\n              jump\t// in\n            tag_247:\n                /* \"#utility.yul\":11348:11487   */\n              swap1\n              pop\n                /* \"#utility.yul\":11075:11494   */\n              swap2\n              swap1\n              pop\n              jump\t// out\n                /* \"#utility.yul\":11500:11641   */\n            tag_124:\n                /* \"#utility.yul\":11549:11553   */\n              0x00\n                /* \"#utility.yul\":11572:11575   */\n              dup2\n                /* \"#utility.yul\":11564:11575   */\n              swap1\n              pop\n                /* \"#utility.yul\":11595:11598   */\n              dup2\n                /* \"#utility.yul\":11592:11593   */\n              0x00\n                /* \"#utility.yul\":11585:11599   */\n              mstore\n                /* \"#utility.yul\":11629:11633   */\n              0x20\n                /* \"#utility.yul\":11626:11627   */\n              0x00\n                /* \"#utility.yul\":11616:11634   */\n              keccak256\n                /* \"#utility.yul\":11608:11634   */\n              swap1\n              pop\n                /* \"#utility.yul\":11500:11641   */\n              swap2\n              swap1\n              pop\n              jump\t// out\n                /* \"#utility.yul\":11647:11740   */\n            tag_125:\n                /* \"#utility.yul\":11684:11690   */\n              0x00\n                /* \"#utility.yul\":11731:11733   */\n              0x20\n                /* \"#utility.yul\":11726:11728   */\n              0x1f\n                /* \"#utility.yul\":11719:11724   */\n              dup4\n                /* \"#utility.yul\":11715:11729   */\n              add\n                /* \"#utility.yul\":11711:11734   */\n              div\n                /* \"#utility.yul\":11701:11734   */\n              swap1\n              pop\n                /* \"#utility.yul\":11647:11740   */\n              swap2\n              swap1\n              pop\n              jump\t// out\n                /* \"#utility.yul\":11746:11853   */\n            tag_126:\n                /* \"#utility.yul\":11790:11798   */\n              0x00\n                /* \"#utility.yul\":11840:11845   */\n              dup3\n                /* \"#utility.yul\":11834:11838   */\n              dup3\n                /* \"#utility.yul\":11830:11846   */\n              shl\n                /* \"#utility.yul\":11809:11846   */\n              swap1\n              pop\n                /* \"#utility.yul\":11746:11853   */\n              swap3\n              swap2\n              pop\n              pop\n              jump\t// out\n                /* \"#utility.yul\":11859:12252   */\n            tag_127:\n                /* \"#utility.yul\":11928:11934   */\n              0x00\n                /* \"#utility.yul\":11978:11979   */\n              0x08\n                /* \"#utility.yul\":11966:11976   */\n              dup4\n                /* \"#utility.yul\":11962:11980   */\n              mul\n                /* \"#utility.yul\":12001:12098   */\n              tag_252\n                /* \"#utility.yul\":12031:12097   */\n              0xffffffffffffffffffffffffffffffffffffffffffffffffffffffffffffffff\n                /* \"#utility.yul\":12020:12029   */\n              dup3\n                /* \"#utility.yul\":12001:12098   */\n              tag_126\n              jump\t// in\n            tag_252:\n                /* \"#utility.yul\":12119:12158   */\n              tag_253\n                /* \"#utility.yul\":12149:12157   */\n              dup7\n                /* \"#utility.yul\":12138:12147   */\n              dup4\n                /* \"#utility.yul\":12119:12158   */\n              tag_126\n              jump\t// in\n            tag_253:\n                /* \"#utility.yul\":12107:12158   */\n              swap6\n              pop\n                /* \"#utility.yul\":12191:12195   */\n              dup1\n                /* \"#utility.yul\":12187:12196   */\n              not\n                /* \"#utility.yul\":12180:12185   */\n              dup5\n                /* \"#utility.yul\":12176:12197   */\n              and\n                /* \"#utility.yul\":12167:12197   */\n              swap4\n              pop\n                /* \"#utility.yul\":12240:12244   */\n              dup1\n                /* \"#utility.yul\":12230:12238   */\n              dup7\n                /* \"#utility.yul\":12226:12245   */\n              and\n                /* \"#utility.yul\":12219:12224   */\n              dup5\n                /* \"#utility.yul\":12216:12246   */\n              or\n                /* \"#utility.yul\":12206:12246   */\n              swap3\n              pop\n                /* \"#utility.yul\":11935:12252   */\n              pop\n              pop\n                /* \"#utility.yul\":11859:12252   */\n              swap4\n              swap3\n              pop\n              pop\n              pop\n              jump\t// out\n                /* \"#utility.yul\":12258:12318   */\n            tag_128:\n                /* \"#utility.yul\":12286:12289   */\n              0x00\n                /* \"#utility.yul\":12307:12312   */\n              dup2\n                /* \"#utility.yul\":12300:12312   */\n              swap1\n              pop\n                /* \"#utility.yul\":12258:12318   */\n              swap2\n              swap1\n              pop\n              jump\t// out\n                /* \"#utility.yul\":12324:12466   */\n            tag_129:\n                /* \"#utility.yul\":12374:12383   */\n              0x00\n                /* \"#utility.yul\":12407:12460   */\n              tag_256\n                /* \"#utility.yul\":12425:12459   */\n              tag_257\n                /* \"#utility.yul\":12434:12458   */\n              tag_258\n                /* \"#utility.yul\":12452:12457   */\n              dup5\n                /* \"#utility.yul\":12434:12458   */\n              tag_95\n              jump\t// in\n            tag_258:\n                /* \"#utility.yul\":12425:12459   */\n              tag_128\n              jump\t// in\n            tag_257:\n                /* \"#utility.yul\":12407:12460   */\n              tag_95\n              jump\t// in\n            tag_256:\n                /* \"#utility.yul\":12394:12460   */\n              swap1\n              pop\n                /* \"#utility.yul\":12324:12466   */\n              swap2\n              swap1\n              pop\n              jump\t// out\n                /* \"#utility.yul\":12472:12547   */\n            tag_130:\n                /* \"#utility.yul\":12515:12518   */\n              0x00\n                /* \"#utility.yul\":12536:12541   */\n              dup2\n                /* \"#utility.yul\":12529:12541   */\n              swap1\n              pop\n                /* \"#utility.yul\":12472:12547   */\n              swap2\n              swap1\n              pop\n              jump\t// out\n                /* \"#utility.yul\":12553:12822   */\n            tag_131:\n                /* \"#utility.yul\":12663:12702   */\n              tag_261\n                /* \"#utility.yul\":12694:12701   */\n              dup4\n                /* \"#utility.yul\":12663:12702   */\n              tag_129\n              jump\t// in\n            tag_261:\n                /* \"#utility.yul\":12724:12815   */\n              tag_262\n                /* \"#utility.yul\":12773:12814   */\n              tag_263\n                /* \"#utility.yul\":12797:12813   */\n              dup3\n                /* \"#utility.yul\":12773:12814   */\n              tag_130\n              jump\t// in\n            tag_263:\n                /* \"#utility.yul\":12765:12771   */\n              dup5\n                /* \"#utility.yul\":12758:12762   */\n              dup5\n                /* \"#utility.yul\":12752:12763   */\n              sload\n                /* \"#utility.yul\":12724:12815   */\n              tag_127\n              jump\t// in\n            tag_262:\n                /* \"#utility.yul\":12718:12722   */\n              dup3\n                /* \"#utility.yul\":12711:12816   */\n              sstore\n                /* \"#utility.yul\":12629:12822   */\n              pop\n                /* \"#utility.yul\":12553:12822   */\n              pop\n              pop\n              pop\n              jump\t// out\n                /* \"#utility.yul\":12828:12901   */\n            tag_132:\n                /* \"#utility.yul\":12873:12876   */\n              0x00\n                /* \"#utility.yul\":12828:12901   */\n              swap1\n              jump\t// out\n                /* \"#utility.yul\":12907:13096   */\n            tag_133:\n                /* \"#utility.yul\":12984:13016   */\n              tag_266\n              tag_132\n              jump\t// in\n            tag_266:\n                /* \"#utility.yul\":13025:13090   */\n              tag_267\n                /* \"#utility.yul\":13083:13089   */\n              dup2\n                /* \"#utility.yul\":13075:13081   */\n              dup5\n                /* \"#utility.yul\":13069:13073   */\n              dup5\n                /* \"#utility.yul\":13025:13090   */\n              tag_131\n              jump\t// in\n            tag_267:\n                /* \"#utility.yul\":12960:13096   */\n              pop\n                /* \"#utility.yul\":12907:13096   */\n              pop\n              pop\n              jump\t// out\n                /* \"#utility.yul\":13102:13288   */\n            tag_134:\n                /* \"#utility.yul\":13162:13282   */\n            tag_269:\n                /* \"#utility.yul\":13179:13182   */\n              dup2\n                /* \"#utility.yul\":13172:13177   */\n              dup2\n                /* \"#utility.yul\":13169:13183   */\n              lt\n                /* \"#utility.yul\":13162:13282   */\n              iszero\n              tag_271\n              jumpi\n                /* \"#utility.yul\":13233:13272   */\n              tag_272\n                /* \"#utility.yul\":13270:13271   */\n              0x00\n                /* \"#utility.yul\":13263:13268   */\n              dup3\n                /* \"#utility.yul\":13233:13272   */\n              tag_133\n              jump\t// in\n            tag_272:\n                /* \"#utility.yul\":13206:13207   */\n              0x01\n                /* \"#utility.yul\":13199:13204   */\n              dup2\n                /* \"#utility.yul\":13195:13208   */\n              add\n                /* \"#utility.yul\":13186:13208   */\n              swap1\n              pop\n                /* \"#utility.yul\":13162:13282   */\n              jump(tag_269)\n            tag_271:\n                /* \"#utility.yul\":13102:13288   */\n              pop\n              pop\n              jump\t// out\n                /* \"#utility.yul\":13294:13837   */\n            tag_135:\n                /* \"#utility.yul\":13395:13397   */\n              0x1f\n                /* \"#utility.yul\":13390:13393   */\n              dup3\n                /* \"#utility.yul\":13387:13398   */\n              gt\n                /* \"#utility.yul\":13384:13830   */\n              iszero\n              tag_274\n              jumpi\n                /* \"#utility.yul\":13429:13467   */\n              tag_275\n                /* \"#utility.yul\":13461:13466   */\n              dup2\n                /* \"#utility.yul\":13429:13467   */\n              tag_124\n              jump\t// in\n            tag_275:\n                /* \"#utility.yul\":13513:13542   */\n              tag_276\n                /* \"#utility.yul\":13531:13541   */\n              dup5\n                /* \"#utility.yul\":13513:13542   */\n              tag_125\n              jump\t// in\n            tag_276:\n                /* \"#utility.yul\":13503:13511   */\n              dup2\n                /* \"#utility.yul\":13499:13543   */\n              add\n                /* \"#utility.yul\":13696:13698   */\n              0x20\n                /* \"#utility.yul\":13684:13694   */\n              dup6\n                /* \"#utility.yul\":13681:13699   */\n              lt\n                /* \"#utility.yul\":13678:13727   */\n              iszero\n              tag_277\n              jumpi\n                /* \"#utility.yul\":13717:13725   */\n              dup2\n                /* \"#utility.yul\":13702:13725   */\n              swap1\n              pop\n                /* \"#utility.yul\":13678:13727   */\n            tag_277:\n                /* \"#utility.yul\":13740:13820   */\n              tag_278\n                /* \"#utility.yul\":13796:13818   */\n              tag_279\n                /* \"#utility.yul\":13814:13817   */\n              dup6\n                /* \"#utility.yul\":13796:13818   */\n              tag_125\n              jump\t// in\n            tag_279:\n                /* \"#utility.yul\":13786:13794   */\n              dup4\n                /* \"#utility.yul\":13782:13819   */\n              add\n                /* \"#utility.yul\":13769:13780   */\n              dup3\n                /* \"#utility.yul\":13740:13820   */\n              tag_134\n              jump\t// in\n            tag_278:\n                /* \"#utility.yul\":13399:13830   */\n              pop\n              pop\n                /* \"#utility.yul\":13384:13830   */\n            tag_274:\n                /* \"#utility.yul\":13294:13837   */\n              pop\n              pop\n              pop\n              jump\t// out\n                /* \"#utility.yul\":13843:13960   */\n            tag_136:\n                /* \"#utility.yul\":13897:13905   */\n              0x00\n                /* \"#utility.yul\":13947:13952   */\n              dup3\n                /* \"#utility.yul\":13941:13945   */\n              dup3\n                /* \"#utility.yul\":13937:13953   */\n              shr\n                /* \"#utility.yul\":13916:13953   */\n              swap1\n              pop\n                /* \"#utility.yul\":13843:13960   */\n              swap3\n              swap2\n              pop\n              pop\n              jump\t// out\n                /* \"#utility.yul\":13966:14135   */\n            tag_137:\n                /* \"#utility.yul\":14010:14016   */\n              0x00\n                /* \"#utility.yul\":14043:14094   */\n              tag_282\n                /* \"#utility.yul\":14091:14092   */\n              0x00\n                /* \"#utility.yul\":14087:14093   */\n              not\n                /* \"#utility.yul\":14079:14084   */\n              dup5\n                /* \"#utility.yul\":14076:14077   */\n              0x08\n                /* \"#utility.yul\":14072:14085   */\n              mul\n                /* \"#utility.yul\":14043:14094   */\n              tag_136\n              jump\t// in\n            tag_282:\n                /* \"#utility.yul\":14039:14095   */\n              not\n                /* \"#utility.yul\":14124:14128   */\n              dup1\n                /* \"#utility.yul\":14118:14122   */\n              dup4\n                /* \"#utility.yul\":14114:14129   */\n              and\n                /* \"#utility.yul\":14104:14129   */\n              swap2\n              pop\n                /* \"#utility.yul\":14017:14135   */\n              pop\n                /* \"#utility.yul\":13966:14135   */\n              swap3\n              swap2\n              pop\n              pop\n              jump\t// out\n                /* \"#utility.yul\":14140:14435   */\n            tag_138:\n                /* \"#utility.yul\":14216:14220   */\n              0x00\n                /* \"#utility.yul\":14362:14391   */\n              tag_284\n                /* \"#utility.yul\":14387:14390   */\n              dup4\n                /* \"#utility.yul\":14381:14385   */\n              dup4\n                /* \"#utility.yul\":14362:14391   */\n              tag_137\n              jump\t// in\n            tag_284:\n                /* \"#utility.yul\":14354:14391   */\n              swap2\n              pop\n                /* \"#utility.yul\":14424:14427   */\n              dup3\n                /* \"#utility.yul\":14421:14422   */\n              0x02\n                /* \"#utility.yul\":14417:14428   */\n              mul\n                /* \"#utility.yul\":14411:14415   */\n              dup3\n                /* \"#utility.yul\":14408:14429   */\n              or\n                /* \"#utility.yul\":14400:14429   */\n              swap1\n              pop\n                /* \"#utility.yul\":14140:14435   */\n              swap3\n              swap2\n              pop\n              pop\n              jump\t// out\n                /* \"#utility.yul\":14440:15835   */\n            tag_79:\n                /* \"#utility.yul\":14557:14594   */\n              tag_286\n                /* \"#utility.yul\":14590:14593   */\n              dup3\n                /* \"#utility.yul\":14557:14594   */\n              tag_98\n              jump\t// in\n            tag_286:\n                /* \"#utility.yul\":14659:14677   */\n              0xffffffffffffffff\n                /* \"#utility.yul\":14651:14657   */\n              dup2\n                /* \"#utility.yul\":14648:14678   */\n              gt\n                /* \"#utility.yul\":14645:14701   */\n              iszero\n              tag_287\n              jumpi\n                /* \"#utility.yul\":14681:14699   */\n              tag_288\n              tag_110\n              jump\t// in\n            tag_288:\n                /* \"#utility.yul\":14645:14701   */\n            tag_287:\n                /* \"#utility.yul\":14725:14763   */\n              tag_289\n                /* \"#utility.yul\":14757:14761   */\n              dup3\n                /* \"#utility.yul\":14751:14762   */\n              sload\n                /* \"#utility.yul\":14725:14763   */\n              tag_48\n              jump\t// in\n            tag_289:\n                /* \"#utility.yul\":14810:14877   */\n              tag_290\n                /* \"#utility.yul\":14870:14876   */\n              dup3\n                /* \"#utility.yul\":14862:14868   */\n              dup3\n                /* \"#utility.yul\":14856:14860   */\n              dup6\n                /* \"#utility.yul\":14810:14877   */\n              tag_135\n              jump\t// in\n            tag_290:\n                /* \"#utility.yul\":14904:14905   */\n              0x00\n                /* \"#utility.yul\":14928:14932   */\n              0x20\n                /* \"#utility.yul\":14915:14932   */\n              swap1\n              pop\n                /* \"#utility.yul\":14960:14962   */\n              0x1f\n                /* \"#utility.yul\":14952:14958   */\n              dup4\n                /* \"#utility.yul\":14949:14963   */\n              gt\n                /* \"#utility.yul\":14977:14978   */\n              0x01\n                /* \"#utility.yul\":14972:15590   */\n              dup2\n              eq\n              tag_292\n              jumpi\n                /* \"#utility.yul\":15634:15635   */\n              0x00\n                /* \"#utility.yul\":15651:15657   */\n              dup5\n                /* \"#utility.yul\":15648:15725   */\n              iszero\n              tag_293\n              jumpi\n                /* \"#utility.yul\":15700:15709   */\n              dup3\n                /* \"#utility.yul\":15695:15698   */\n              dup8\n                /* \"#utility.yul\":15691:15710   */\n              add\n                /* \"#utility.yul\":15685:15711   */\n              mload\n                /* \"#utility.yul\":15676:15711   */\n              swap1\n              pop\n                /* \"#utility.yul\":15648:15725   */\n            tag_293:\n                /* \"#utility.yul\":15751:15818   */\n              tag_294\n                /* \"#utility.yul\":15811:15817   */\n              dup6\n                /* \"#utility.yul\":15804:15809   */\n              dup3\n                /* \"#utility.yul\":15751:15818   */\n              tag_138\n              jump\t// in\n            tag_294:\n                /* \"#utility.yul\":15745:15749   */\n              dup7\n                /* \"#utility.yul\":15738:15819   */\n              sstore\n                /* \"#utility.yul\":15607:15829   */\n              pop\n                /* \"#utility.yul\":14942:15829   */\n              jump(tag_291)\n                /* \"#utility.yul\":14972:15590   */\n            tag_292:\n                /* \"#utility.yul\":15024:15028   */\n              0x1f\n                /* \"#utility.yul\":15020:15029   */\n              not\n                /* \"#utility.yul\":15012:15018   */\n              dup5\n                /* \"#utility.yul\":15008:15030   */\n              and\n                /* \"#utility.yul\":15058:15095   */\n              tag_295\n                /* \"#utility.yul\":15090:15094   */\n              dup7\n                /* \"#utility.yul\":15058:15095   */\n              tag_124\n              jump\t// in\n            tag_295:\n                /* \"#utility.yul\":15117:15118   */\n              0x00\n                /* \"#utility.yul\":15131:15339   */\n            tag_296:\n                /* \"#utility.yul\":15145:15152   */\n              dup3\n                /* \"#utility.yul\":15142:15143   */\n              dup2\n                /* \"#utility.yul\":15139:15153   */\n              lt\n                /* \"#utility.yul\":15131:15339   */\n              iszero\n              tag_298\n              jumpi\n                /* \"#utility.yul\":15224:15233   */\n              dup5\n                /* \"#utility.yul\":15219:15222   */\n              dup10\n                /* \"#utility.yul\":15215:15234   */\n              add\n                /* \"#utility.yul\":15209:15235   */\n              mload\n                /* \"#utility.yul\":15201:15207   */\n              dup3\n                /* \"#utility.yul\":15194:15236   */\n              sstore\n                /* \"#utility.yul\":15275:15276   */\n              0x01\n                /* \"#utility.yul\":15267:15273   */\n              dup3\n                /* \"#utility.yul\":15263:15277   */\n              add\n                /* \"#utility.yul\":15253:15277   */\n              swap2\n              pop\n                /* \"#utility.yul\":15322:15324   */\n              0x20\n                /* \"#utility.yul\":15311:15320   */\n              dup6\n                /* \"#utility.yul\":15307:15325   */\n              add\n                /* \"#utility.yul\":15294:15325   */\n              swap5\n              pop\n                /* \"#utility.yul\":15168:15172   */\n              0x20\n                /* \"#utility.yul\":15165:15166   */\n              dup2\n                /* \"#utility.yul\":15161:15173   */\n              add\n                /* \"#utility.yul\":15156:15173   */\n              swap1\n              pop\n                /* \"#utility.yul\":15131:15339   */\n              jump(tag_296)\n            tag_298:\n                /* \"#utility.yul\":15367:15373   */\n              dup7\n                /* \"#utility.yul\":15358:15365   */\n              dup4\n                /* \"#utility.yul\":15355:15374   */\n              lt\n                /* \"#utility.yul\":15352:15531   */\n              iszero\n              tag_299\n              jumpi\n                /* \"#utility.yul\":15425:15434   */\n              dup5\n                /* \"#utility.yul\":15420:15423   */\n              dup10\n                /* \"#utility.yul\":15416:15435   */\n              add\n                /* \"#utility.yul\":15410:15436   */\n              mload\n                /* \"#utility.yul\":15468:15516   */\n              tag_300\n                /* \"#utility.yul\":15510:15514   */\n              0x1f\n                /* \"#utility.yul\":15502:15508   */\n              dup10\n                /* \"#utility.yul\":15498:15515   */\n              and\n                /* \"#utility.yul\":15487:15496   */\n              dup3\n                /* \"#utility.yul\":15468:15516   */\n              tag_137\n              jump\t// in\n            tag_300:\n                /* \"#utility.yul\":15460:15466   */\n              dup4\n                /* \"#utility.yul\":15453:15517   */\n              sstore\n                /* \"#utility.yul\":15375:15531   */\n              pop\n                /* \"#utility.yul\":15352:15531   */\n            tag_299:\n                /* \"#utility.yul\":15577:15578   */\n              0x01\n                /* \"#utility.yul\":15573:15574   */\n              0x02\n                /* \"#utility.yul\":15565:15571   */\n              dup9\n                /* \"#utility.yul\":15561:15575   */\n              mul\n                /* \"#utility.yul\":15557:15579   */\n              add\n                /* \"#utility.yul\":15551:15555   */\n              dup9\n                /* \"#utility.yul\":15544:15580   */\n              sstore\n                /* \"#utility.yul\":14979:15590   */\n              pop\n              pop\n              pop\n                /* \"#utility.yul\":14942:15829   */\n            tag_291:\n              pop\n                /* \"#utility.yul\":14532:15835   */\n              pop\n              pop\n              pop\n                /* \"#utility.yul\":14440:15835   */\n              pop\n              pop\n              jump\t// out\n                /* \"#utility.yul\":15841:16021   */\n            tag_139:\n                /* \"#utility.yul\":15889:15966   */\n              0x4e487b7100000000000000000000000000000000000000000000000000000000\n                /* \"#utility.yul\":15886:15887   */\n              0x00\n                /* \"#utility.yul\":15879:15967   */\n              mstore\n                /* \"#utility.yul\":15986:15990   */\n              0x11\n                /* \"#utility.yul\":15983:15984   */\n              0x04\n                /* \"#utility.yul\":15976:15991   */\n              mstore\n                /* \"#utility.yul\":16010:16014   */\n              0x24\n                /* \"#utility.yul\":16007:16008   */\n              0x00\n                /* \"#utility.yul\":16000:16015   */\n              revert\n                /* \"#utility.yul\":16027:16221   */\n            tag_82:\n                /* \"#utility.yul\":16067:16071   */\n              0x00\n                /* \"#utility.yul\":16087:16107   */\n              tag_303\n                /* \"#utility.yul\":16105:16106   */\n              dup3\n                /* \"#utility.yul\":16087:16107   */\n              tag_95\n              jump\t// in\n            tag_303:\n                /* \"#utility.yul\":16082:16107   */\n              swap2\n              pop\n                /* \"#utility.yul\":16121:16141   */\n              tag_304\n                /* \"#utility.yul\":16139:16140   */\n              dup4\n                /* \"#utility.yul\":16121:16141   */\n              tag_95\n              jump\t// in\n            tag_304:\n                /* \"#utility.yul\":16116:16141   */\n              swap3\n              pop\n                /* \"#utility.yul\":16165:16166   */\n              dup3\n                /* \"#utility.yul\":16162:16163   */\n              dup3\n                /* \"#utility.yul\":16158:16167   */\n              sub\n                /* \"#utility.yul\":16150:16167   */\n              swap1\n              pop\n                /* \"#utility.yul\":16189:16190   */\n              dup2\n                /* \"#utility.yul\":16183:16187   */\n              dup2\n                /* \"#utility.yul\":16180:16191   */\n              gt\n                /* \"#utility.yul\":16177:16214   */\n              iszero\n              tag_305\n              jumpi\n                /* \"#utility.yul\":16194:16212   */\n              tag_306\n              tag_139\n              jump\t// in\n            tag_306:\n                /* \"#utility.yul\":16177:16214   */\n            tag_305:\n                /* \"#utility.yul\":16027:16221   */\n              swap3\n              swap2\n              pop\n              pop\n              jump\t// out\n                /* \"#utility.yul\":16227:16418   */\n            tag_87:\n                /* \"#utility.yul\":16267:16270   */\n              0x00\n                /* \"#utility.yul\":16286:16306   */\n              tag_308\n                /* \"#utility.yul\":16304:16305   */\n              dup3\n                /* \"#utility.yul\":16286:16306   */\n              tag_95\n              jump\t// in\n            tag_308:\n                /* \"#utility.yul\":16281:16306   */\n              swap2\n              pop\n                /* \"#utility.yul\":16320:16340   */\n              tag_309\n                /* \"#utility.yul\":16338:16339   */\n              dup4\n                /* \"#utility.yul\":16320:16340   */\n              tag_95\n              jump\t// in\n            tag_309:\n                /* \"#utility.yul\":16315:16340   */\n              swap3\n              pop\n                /* \"#utility.yul\":16363:16364   */\n              dup3\n                /* \"#utility.yul\":16360:16361   */\n              dup3\n                /* \"#utility.yul\":16356:16365   */\n              add\n                /* \"#utility.yul\":16349:16365   */\n              swap1\n              pop\n                /* \"#utility.yul\":16384:16387   */\n              dup1\n                /* \"#utility.yul\":16381:16382   */\n              dup3\n                /* \"#utility.yul\":16378:16388   */\n              gt\n                /* \"#utility.yul\":16375:16411   */\n              iszero\n              tag_310\n              jumpi\n                /* \"#utility.yul\":16391:16409   */\n              tag_311\n              tag_139\n              jump\t// in\n            tag_311:\n                /* \"#utility.yul\":16375:16411   */\n            tag_310:\n                /* \"#utility.yul\":16227:16418   */\n              swap3\n              swap2\n              pop\n              pop\n              jump\t// out\n\n            auxdata: 0xa2646970667358221220852b7151f6a96040ce02eec22b523092fcd0c4a6b7d2e29f948e881286b17ee164736f6c634300081a0033\n        }\n    }\n\n    auxdata: 0xa26469706673582212209a98cb3869bda907eb84042f970e6dd95351d40065197040b431b6e3736d9db764736f6c634300081a0033\n}\n",
				"bytecode": {
					"linkReferences": {},
					"object": "6080604052348015600e575f80fd5b5061191d8061001c5f395ff3fe608060405234801561000f575f80fd5b5060043610610055575f3560e01c80631d5d36791461005957806381deb00d1461008957806393312ff014610093578063dee01b05146100af578063e1a7e3de146100cd575b5f80fd5b610073600480360381019061006e91906103a4565b6100e9565b604051610080919061049b565b60405180910390f35b610091610192565b005b6100ad60048036038101906100a891906104bb565b6101f8565b005b6100b7610283565b6040516100c49190610573565b60405180910390f35b6100e760048036038101906100e291906106b8565b6102a6565b005b6100f1610334565b5f8054906101000a900473ffffffffffffffffffffffffffffffffffffffff1673ffffffffffffffffffffffffffffffffffffffff16632c4ae716836040518263ffffffff1660e01b81526004016101499190610733565b5f60405180830381865afa158015610163573d5f803e3d5ffd5b505050506040513d5f823e3d601f19601f8201168201806040525081019061018b9190610853565b9050919050565b60405161019e90610353565b604051809103905ff0801580156101b7573d5f803e3d5ffd5b505f806101000a81548173ffffffffffffffffffffffffffffffffffffffff021916908373ffffffffffffffffffffffffffffffffffffffff160217905550565b5f8054906101000a900473ffffffffffffffffffffffffffffffffffffffff1673ffffffffffffffffffffffffffffffffffffffff1663e2bbb15883836040518363ffffffff1660e01b815260040161025292919061089a565b5f604051808303815f87803b158015610269575f80fd5b505af115801561027b573d5f803e3d5ffd5b505050505050565b5f8054906101000a900473ffffffffffffffffffffffffffffffffffffffff1681565b5f8054906101000a900473ffffffffffffffffffffffffffffffffffffffff1673ffffffffffffffffffffffffffffffffffffffff16638b16652e8484846040518463ffffffff1660e01b815260040161030293929190610909565b5f604051808303815f87803b158015610319575f80fd5b505af115801561032b573d5f803e3d5ffd5b50505050505050565b6040518060600160405280606081526020015f81526020015f81525090565b610fa28061094683390190565b5f604051905090565b5f80fd5b5f80fd5b5f819050919050565b61038381610371565b811461038d575f80fd5b50565b5f8135905061039e8161037a565b92915050565b5f602082840312156103b9576103b8610369565b5b5f6103c684828501610390565b91505092915050565b5f81519050919050565b5f82825260208201905092915050565b8281835e5f83830152505050565b5f601f19601f8301169050919050565b5f610411826103cf565b61041b81856103d9565b935061042b8185602086016103e9565b610434816103f7565b840191505092915050565b61044881610371565b82525050565b5f606083015f8301518482035f8601526104688282610407565b915050602083015161047d602086018261043f565b506040830151610490604086018261043f565b508091505092915050565b5f6020820190508181035f8301526104b3818461044e565b905092915050565b5f80604083850312156104d1576104d0610369565b5b5f6104de85828601610390565b92505060206104ef85828601610390565b9150509250929050565b5f73ffffffffffffffffffffffffffffffffffffffff82169050919050565b5f819050919050565b5f61053b610536610531846104f9565b610518565b6104f9565b9050919050565b5f61054c82610521565b9050919050565b5f61055d82610542565b9050919050565b61056d81610553565b82525050565b5f6020820190506105865f830184610564565b92915050565b5f80fd5b5f80fd5b7f4e487b71000000000000000000000000000000000000000000000000000000005f52604160045260245ffd5b6105ca826103f7565b810181811067ffffffffffffffff821117156105e9576105e8610594565b5b80604052505050565b5f6105fb610360565b905061060782826105c1565b919050565b5f67ffffffffffffffff82111561062657610625610594565b5b61062f826103f7565b9050602081019050919050565b828183375f83830152505050565b5f61065c6106578461060c565b6105f2565b90508281526020810184848401111561067857610677610590565b5b61068384828561063c565b509392505050565b5f82601f83011261069f5761069e61058c565b5b81356106af84826020860161064a565b91505092915050565b5f805f606084860312156106cf576106ce610369565b5b5f84013567ffffffffffffffff8111156106ec576106eb61036d565b5b6106f88682870161068b565b935050602061070986828701610390565b925050604061071a86828701610390565b9150509250925092565b61072d81610371565b82525050565b5f6020820190506107465f830184610724565b92915050565b5f80fd5b5f80fd5b5f6107666107618461060c565b6105f2565b90508281526020810184848401111561078257610781610590565b5b61078d8482856103e9565b509392505050565b5f82601f8301126107a9576107a861058c565b5b81516107b9848260208601610754565b91505092915050565b5f815190506107d08161037a565b92915050565b5f606082840312156107eb576107ea61074c565b5b6107f560606105f2565b90505f82015167ffffffffffffffff81111561081457610813610750565b5b61082084828501610795565b5f830152506020610833848285016107c2565b6020830152506040610847848285016107c2565b60408301525092915050565b5f6020828403121561086857610867610369565b5b5f82015167ffffffffffffffff8111156108855761088461036d565b5b610891848285016107d6565b91505092915050565b5f6040820190506108ad5f830185610724565b6108ba6020830184610724565b9392505050565b5f82825260208201905092915050565b5f6108db826103cf565b6108e581856108c1565b93506108f58185602086016103e9565b6108fe816103f7565b840191505092915050565b5f6060820190508181035f83015261092181866108d1565b90506109306020830185610724565b61093d6040830184610724565b94935050505056fe6080604052348015600e575f80fd5b50610f868061001c5f395ff3fe608060405234801561000f575f80fd5b506004361061007b575f3560e01c806383b9ae271161005957806383b9ae27146101115780638b16652e14610141578063c219563f1461015d578063e2bbb1581461018d5761007b565b806328a404f31461007f5780632c4ae716146100b15780634445030d146100e1575b5f80fd5b6100996004803603810190610094919061070b565b6101a9565b6040516100a8939291906107b5565b60405180910390f35b6100cb60048036038101906100c6919061070b565b610263565b6040516100d89190610895565b60405180910390f35b6100fb60048036038101906100f6919061070b565b6103b2565b60405161010891906108b5565b60405180910390f35b61012b6004803603810190610126919061070b565b61044d565b60405161013891906108d5565b60405180910390f35b61015b60048036038101906101569190610a1a565b610462565b005b6101776004803603810190610172919061070b565b6105b5565b6040516101849190610aa0565b60405180910390f35b6101a760048036038101906101a29190610ab9565b6105d2565b005b5f81815481106101b7575f80fd5b905f5260205f2090600302015f91509050805f0180546101d690610b24565b80601f016020809104026020016040519081016040528092919081815260200182805461020290610b24565b801561024d5780601f106102245761010080835404028352916020019161024d565b820191905f5260205f20905b81548152906001019060200180831161023057829003601f168201915b5050505050908060010154908060020154905083565b61026b6106a8565b60035f8381526020019081526020015f205f9054906101000a900460ff166102c8576040517f08c379a00000000000000000000000000000000000000000000000000000000081526004016102bf90610b9e565b60405180910390fd5b5f60045f8481526020019081526020015f205490505f81815481106102f0576102ef610bbc565b5b905f5260205f2090600302016040518060600160405290815f8201805461031690610b24565b80601f016020809104026020016040519081016040528092919081815260200182805461034290610b24565b801561038d5780601f106103645761010080835404028352916020019161038d565b820191905f5260205f20905b81548152906001019060200180831161037057829003601f168201915b5050505050815260200160018201548152602001600282015481525050915050919050565b6001602052805f5260405f205f9150905080546103ce90610b24565b80601f01602080910402602001604051908101604052809291908181526020018280546103fa90610b24565b80156104455780601f1061041c57610100808354040283529160200191610445565b820191905f5260205f20905b81548152906001019060200180831161042857829003601f168201915b505050505081565b6002602052805f5260405f205f915090505481565b60035f8381526020019081526020015f205f9054906101000a900460ff16156104c0576040517f08c379a00000000000000000000000000000000000000000000000000000000081526004016104b790610c33565b60405180910390fd5b5f604051806060016040528085815260200184815260200183815250908060018154018082558091505060019003905f5260205f2090600302015f909190919091505f820151815f0190816105159190610dee565b50602082015181600101556040820151816002015550508260015f8481526020019081526020015f20908161054a9190610dee565b508060025f8481526020019081526020015f2081905550600160035f8481526020019081526020015f205f6101000a81548160ff02191690831515021790555060015f8054905061059b9190610eea565b60045f8481526020019081526020015f2081905550505050565b6003602052805f5260405f205f915054906101000a900460ff1681565b60035f8381526020019081526020015f205f9054906101000a900460ff1661062f576040517f08c379a000000000000000000000000000000000000000000000000000000000815260040161062690610b9e565b60405180910390fd5b8060025f8481526020019081526020015f205f82825461064f9190610f1d565b925050819055505f60045f8481526020019081526020015f20549050815f828154811061067f5761067e610bbc565b5b905f5260205f2090600302016002015f82825461069c9190610f1d565b92505081905550505050565b6040518060600160405280606081526020015f81526020015f81525090565b5f604051905090565b5f80fd5b5f80fd5b5f819050919050565b6106ea816106d8565b81146106f4575f80fd5b50565b5f81359050610705816106e1565b92915050565b5f602082840312156107205761071f6106d0565b5b5f61072d848285016106f7565b91505092915050565b5f81519050919050565b5f82825260208201905092915050565b8281835e5f83830152505050565b5f601f19601f8301169050919050565b5f61077882610736565b6107828185610740565b9350610792818560208601610750565b61079b8161075e565b840191505092915050565b6107af816106d8565b82525050565b5f6060820190508181035f8301526107cd818661076e565b90506107dc60208301856107a6565b6107e960408301846107a6565b949350505050565b5f82825260208201905092915050565b5f61080b82610736565b61081581856107f1565b9350610825818560208601610750565b61082e8161075e565b840191505092915050565b610842816106d8565b82525050565b5f606083015f8301518482035f8601526108628282610801565b91505060208301516108776020860182610839565b50604083015161088a6040860182610839565b508091505092915050565b5f6020820190508181035f8301526108ad8184610848565b905092915050565b5f6020820190508181035f8301526108cd818461076e565b905092915050565b5f6020820190506108e85f8301846107a6565b92915050565b5f80fd5b5f80fd5b7f4e487b71000000000000000000000000000000000000000000000000000000005f52604160045260245ffd5b61092c8261075e565b810181811067ffffffffffffffff8211171561094b5761094a6108f6565b5b80604052505050565b5f61095d6106c7565b90506109698282610923565b919050565b5f67ffffffffffffffff821115610988576109876108f6565b5b6109918261075e565b9050602081019050919050565b828183375f83830152505050565b5f6109be6109b98461096e565b610954565b9050828152602081018484840111156109da576109d96108f2565b5b6109e584828561099e565b509392505050565b5f82601f830112610a0157610a006108ee565b5b8135610a118482602086016109ac565b91505092915050565b5f805f60608486031215610a3157610a306106d0565b5b5f84013567ffffffffffffffff811115610a4e57610a4d6106d4565b5b610a5a868287016109ed565b9350506020610a6b868287016106f7565b9250506040610a7c868287016106f7565b9150509250925092565b5f8115159050919050565b610a9a81610a86565b82525050565b5f602082019050610ab35f830184610a91565b92915050565b5f8060408385031215610acf57610ace6106d0565b5b5f610adc858286016106f7565b9250506020610aed858286016106f7565b9150509250929050565b7f4e487b71000000000000000000000000000000000000000000000000000000005f52602260045260245ffd5b5f6002820490506001821680610b3b57607f821691505b602082108103610b4e57610b4d610af7565b5b50919050565b7f4163636f756e7420646f6573206e6f74206578697374000000000000000000005f82015250565b5f610b88601683610740565b9150610b9382610b54565b602082019050919050565b5f6020820190508181035f830152610bb581610b7c565b9050919050565b7f4e487b71000000000000000000000000000000000000000000000000000000005f52603260045260245ffd5b7f4163636f756e7420616c726561647920657869737473000000000000000000005f82015250565b5f610c1d601683610740565b9150610c2882610be9565b602082019050919050565b5f6020820190508181035f830152610c4a81610c11565b9050919050565b5f819050815f5260205f209050919050565b5f6020601f8301049050919050565b5f82821b905092915050565b5f60088302610cad7fffffffffffffffffffffffffffffffffffffffffffffffffffffffffffffffff82610c72565b610cb78683610c72565b95508019841693508086168417925050509392505050565b5f819050919050565b5f610cf2610ced610ce8846106d8565b610ccf565b6106d8565b9050919050565b5f819050919050565b610d0b83610cd8565b610d1f610d1782610cf9565b848454610c7e565b825550505050565b5f90565b610d33610d27565b610d3e818484610d02565b505050565b5b81811015610d6157610d565f82610d2b565b600181019050610d44565b5050565b601f821115610da657610d7781610c51565b610d8084610c63565b81016020851015610d8f578190505b610da3610d9b85610c63565b830182610d43565b50505b505050565b5f82821c905092915050565b5f610dc65f1984600802610dab565b1980831691505092915050565b5f610dde8383610db7565b9150826002028217905092915050565b610df782610736565b67ffffffffffffffff811115610e1057610e0f6108f6565b5b610e1a8254610b24565b610e25828285610d65565b5f60209050601f831160018114610e56575f8415610e44578287015190505b610e4e8582610dd3565b865550610eb5565b601f198416610e6486610c51565b5f5b82811015610e8b57848901518255600182019150602085019450602081019050610e66565b86831015610ea85784890151610ea4601f891682610db7565b8355505b6001600288020188555050505b505050505050565b7f4e487b71000000000000000000000000000000000000000000000000000000005f52601160045260245ffd5b5f610ef4826106d8565b9150610eff836106d8565b9250828203905081811115610f1757610f16610ebd565b5b92915050565b5f610f27826106d8565b9150610f32836106d8565b9250828201905080821115610f4a57610f49610ebd565b5b9291505056fea2646970667358221220852b7151f6a96040ce02eec22b523092fcd0c4a6b7d2e29f948e881286b17ee164736f6c634300081a0033a26469706673582212209a98cb3869bda907eb84042f970e6dd95351d40065197040b431b6e3736d9db764736f6c634300081a0033",
					"opcodes": "PUSH1 0x80 PUSH1 0x40 MSTORE CALLVALUE DUP1 ISZERO PUSH1 0xE JUMPI PUSH0 DUP1 REVERT JUMPDEST POP PUSH2 0x191D DUP1 PUSH2 0x1C PUSH0 CODECOPY PUSH0 RETURN INVALID PUSH1 0x80 PUSH1 0x40 MSTORE CALLVALUE DUP1 ISZERO PUSH2 0xF JUMPI PUSH0 DUP1 REVERT JUMPDEST POP PUSH1 0x4 CALLDATASIZE LT PUSH2 0x55 JUMPI PUSH0 CALLDATALOAD PUSH1 0xE0 SHR DUP1 PUSH4 0x1D5D3679 EQ PUSH2 0x59 JUMPI DUP1 PUSH4 0x81DEB00D EQ PUSH2 0x89 JUMPI DUP1 PUSH4 0x93312FF0 EQ PUSH2 0x93 JUMPI DUP1 PUSH4 0xDEE01B05 EQ PUSH2 0xAF JUMPI DUP1 PUSH4 0xE1A7E3DE EQ PUSH2 0xCD JUMPI JUMPDEST PUSH0 DUP1 REVERT JUMPDEST PUSH2 0x73 PUSH1 0x4 DUP1 CALLDATASIZE SUB DUP2 ADD SWAP1 PUSH2 0x6E SWAP2 SWAP1 PUSH2 0x3A4 JUMP JUMPDEST PUSH2 0xE9 JUMP JUMPDEST PUSH1 0x40 MLOAD PUSH2 0x80 SWAP2 SWAP1 PUSH2 0x49B JUMP JUMPDEST PUSH1 0x40 MLOAD DUP1 SWAP2 SUB SWAP1 RETURN JUMPDEST PUSH2 0x91 PUSH2 0x192 JUMP JUMPDEST STOP JUMPDEST PUSH2 0xAD PUSH1 0x4 DUP1 CALLDATASIZE SUB DUP2 ADD SWAP1 PUSH2 0xA8 SWAP2 SWAP1 PUSH2 0x4BB JUMP JUMPDEST PUSH2 0x1F8 JUMP JUMPDEST STOP JUMPDEST PUSH2 0xB7 PUSH2 0x283 JUMP JUMPDEST PUSH1 0x40 MLOAD PUSH2 0xC4 SWAP2 SWAP1 PUSH2 0x573 JUMP JUMPDEST PUSH1 0x40 MLOAD DUP1 SWAP2 SUB SWAP1 RETURN JUMPDEST PUSH2 0xE7 PUSH1 0x4 DUP1 CALLDATASIZE SUB DUP2 ADD SWAP1 PUSH2 0xE2 SWAP2 SWAP1 PUSH2 0x6B8 JUMP JUMPDEST PUSH2 0x2A6 JUMP JUMPDEST STOP JUMPDEST PUSH2 0xF1 PUSH2 0x334 JUMP JUMPDEST PUSH0 DUP1 SLOAD SWAP1 PUSH2 0x100 EXP SWAP1 DIV PUSH20 0xFFFFFFFFFFFFFFFFFFFFFFFFFFFFFFFFFFFFFFFF AND PUSH20 0xFFFFFFFFFFFFFFFFFFFFFFFFFFFFFFFFFFFFFFFF AND PUSH4 0x2C4AE716 DUP4 PUSH1 0x40 MLOAD DUP3 PUSH4 0xFFFFFFFF AND PUSH1 0xE0 SHL DUP2 MSTORE PUSH1 0x4 ADD PUSH2 0x149 SWAP2 SWAP1 PUSH2 0x733 JUMP JUMPDEST PUSH0 PUSH1 0x40 MLOAD DUP1 DUP4 SUB DUP2 DUP7 GAS STATICCALL ISZERO DUP1 ISZERO PUSH2 0x163 JUMPI RETURNDATASIZE PUSH0 DUP1 RETURNDATACOPY RETURNDATASIZE PUSH0 REVERT JUMPDEST POP POP POP POP PUSH1 0x40 MLOAD RETURNDATASIZE PUSH0 DUP3 RETURNDATACOPY RETURNDATASIZE PUSH1 0x1F NOT PUSH1 0x1F DUP3 ADD AND DUP3 ADD DUP1 PUSH1 0x40 MSTORE POP DUP2 ADD SWAP1 PUSH2 0x18B SWAP2 SWAP1 PUSH2 0x853 JUMP JUMPDEST SWAP1 POP SWAP2 SWAP1 POP JUMP JUMPDEST PUSH1 0x40 MLOAD PUSH2 0x19E SWAP1 PUSH2 0x353 JUMP JUMPDEST PUSH1 0x40 MLOAD DUP1 SWAP2 SUB SWAP1 PUSH0 CREATE DUP1 ISZERO DUP1 ISZERO PUSH2 0x1B7 JUMPI RETURNDATASIZE PUSH0 DUP1 RETURNDATACOPY RETURNDATASIZE PUSH0 REVERT JUMPDEST POP PUSH0 DUP1 PUSH2 0x100 EXP DUP2 SLOAD DUP2 PUSH20 0xFFFFFFFFFFFFFFFFFFFFFFFFFFFFFFFFFFFFFFFF MUL NOT AND SWAP1 DUP4 PUSH20 0xFFFFFFFFFFFFFFFFFFFFFFFFFFFFFFFFFFFFFFFF AND MUL OR SWAP1 SSTORE POP JUMP JUMPDEST PUSH0 DUP1 SLOAD SWAP1 PUSH2 0x100 EXP SWAP1 DIV PUSH20 0xFFFFFFFFFFFFFFFFFFFFFFFFFFFFFFFFFFFFFFFF AND PUSH20 0xFFFFFFFFFFFFFFFFFFFFFFFFFFFFFFFFFFFFFFFF AND PUSH4 0xE2BBB158 DUP4 DUP4 PUSH1 0x40 MLOAD DUP4 PUSH4 0xFFFFFFFF AND PUSH1 0xE0 SHL DUP2 MSTORE PUSH1 0x4 ADD PUSH2 0x252 SWAP3 SWAP2 SWAP1 PUSH2 0x89A JUMP JUMPDEST PUSH0 PUSH1 0x40 MLOAD DUP1 DUP4 SUB DUP2 PUSH0 DUP8 DUP1 EXTCODESIZE ISZERO DUP1 ISZERO PUSH2 0x269 JUMPI PUSH0 DUP1 REVERT JUMPDEST POP GAS CALL ISZERO DUP1 ISZERO PUSH2 0x27B JUMPI RETURNDATASIZE PUSH0 DUP1 RETURNDATACOPY RETURNDATASIZE PUSH0 REVERT JUMPDEST POP POP POP POP POP POP JUMP JUMPDEST PUSH0 DUP1 SLOAD SWAP1 PUSH2 0x100 EXP SWAP1 DIV PUSH20 0xFFFFFFFFFFFFFFFFFFFFFFFFFFFFFFFFFFFFFFFF AND DUP2 JUMP JUMPDEST PUSH0 DUP1 SLOAD SWAP1 PUSH2 0x100 EXP SWAP1 DIV PUSH20 0xFFFFFFFFFFFFFFFFFFFFFFFFFFFFFFFFFFFFFFFF AND PUSH20 0xFFFFFFFFFFFFFFFFFFFFFFFFFFFFFFFFFFFFFFFF AND PUSH4 0x8B16652E DUP5 DUP5 DUP5 PUSH1 0x40 MLOAD DUP5 PUSH4 0xFFFFFFFF AND PUSH1 0xE0 SHL DUP2 MSTORE PUSH1 0x4 ADD PUSH2 0x302 SWAP4 SWAP3 SWAP2 SWAP1 PUSH2 0x909 JUMP JUMPDEST PUSH0 PUSH1 0x40 MLOAD DUP1 DUP4 SUB DUP2 PUSH0 DUP8 DUP1 EXTCODESIZE ISZERO DUP1 ISZERO PUSH2 0x319 JUMPI PUSH0 DUP1 REVERT JUMPDEST POP GAS CALL ISZERO DUP1 ISZERO PUSH2 0x32B JUMPI RETURNDATASIZE PUSH0 DUP1 RETURNDATACOPY RETURNDATASIZE PUSH0 REVERT JUMPDEST POP POP POP POP POP POP POP JUMP JUMPDEST PUSH1 0x40 MLOAD DUP1 PUSH1 0x60 ADD PUSH1 0x40 MSTORE DUP1 PUSH1 0x60 DUP2 MSTORE PUSH1 0x20 ADD PUSH0 DUP2 MSTORE PUSH1 0x20 ADD PUSH0 DUP2 MSTORE POP SWAP1 JUMP JUMPDEST PUSH2 0xFA2 DUP1 PUSH2 0x946 DUP4 CODECOPY ADD SWAP1 JUMP JUMPDEST PUSH0 PUSH1 0x40 MLOAD SWAP1 POP SWAP1 JUMP JUMPDEST PUSH0 DUP1 REVERT JUMPDEST PUSH0 DUP1 REVERT JUMPDEST PUSH0 DUP2 SWAP1 POP SWAP2 SWAP1 POP JUMP JUMPDEST PUSH2 0x383 DUP2 PUSH2 0x371 JUMP JUMPDEST DUP2 EQ PUSH2 0x38D JUMPI PUSH0 DUP1 REVERT JUMPDEST POP JUMP JUMPDEST PUSH0 DUP2 CALLDATALOAD SWAP1 POP PUSH2 0x39E DUP2 PUSH2 0x37A JUMP JUMPDEST SWAP3 SWAP2 POP POP JUMP JUMPDEST PUSH0 PUSH1 0x20 DUP3 DUP5 SUB SLT ISZERO PUSH2 0x3B9 JUMPI PUSH2 0x3B8 PUSH2 0x369 JUMP JUMPDEST JUMPDEST PUSH0 PUSH2 0x3C6 DUP5 DUP3 DUP6 ADD PUSH2 0x390 JUMP JUMPDEST SWAP2 POP POP SWAP3 SWAP2 POP POP JUMP JUMPDEST PUSH0 DUP2 MLOAD SWAP1 POP SWAP2 SWAP1 POP JUMP JUMPDEST PUSH0 DUP3 DUP3 MSTORE PUSH1 0x20 DUP3 ADD SWAP1 POP SWAP3 SWAP2 POP POP JUMP JUMPDEST DUP3 DUP2 DUP4 MCOPY PUSH0 DUP4 DUP4 ADD MSTORE POP POP POP JUMP JUMPDEST PUSH0 PUSH1 0x1F NOT PUSH1 0x1F DUP4 ADD AND SWAP1 POP SWAP2 SWAP1 POP JUMP JUMPDEST PUSH0 PUSH2 0x411 DUP3 PUSH2 0x3CF JUMP JUMPDEST PUSH2 0x41B DUP2 DUP6 PUSH2 0x3D9 JUMP JUMPDEST SWAP4 POP PUSH2 0x42B DUP2 DUP6 PUSH1 0x20 DUP7 ADD PUSH2 0x3E9 JUMP JUMPDEST PUSH2 0x434 DUP2 PUSH2 0x3F7 JUMP JUMPDEST DUP5 ADD SWAP2 POP POP SWAP3 SWAP2 POP POP JUMP JUMPDEST PUSH2 0x448 DUP2 PUSH2 0x371 JUMP JUMPDEST DUP3 MSTORE POP POP JUMP JUMPDEST PUSH0 PUSH1 0x60 DUP4 ADD PUSH0 DUP4 ADD MLOAD DUP5 DUP3 SUB PUSH0 DUP7 ADD MSTORE PUSH2 0x468 DUP3 DUP3 PUSH2 0x407 JUMP JUMPDEST SWAP2 POP POP PUSH1 0x20 DUP4 ADD MLOAD PUSH2 0x47D PUSH1 0x20 DUP7 ADD DUP3 PUSH2 0x43F JUMP JUMPDEST POP PUSH1 0x40 DUP4 ADD MLOAD PUSH2 0x490 PUSH1 0x40 DUP7 ADD DUP3 PUSH2 0x43F JUMP JUMPDEST POP DUP1 SWAP2 POP POP SWAP3 SWAP2 POP POP JUMP JUMPDEST PUSH0 PUSH1 0x20 DUP3 ADD SWAP1 POP DUP2 DUP2 SUB PUSH0 DUP4 ADD MSTORE PUSH2 0x4B3 DUP2 DUP5 PUSH2 0x44E JUMP JUMPDEST SWAP1 POP SWAP3 SWAP2 POP POP JUMP JUMPDEST PUSH0 DUP1 PUSH1 0x40 DUP4 DUP6 SUB SLT ISZERO PUSH2 0x4D1 JUMPI PUSH2 0x4D0 PUSH2 0x369 JUMP JUMPDEST JUMPDEST PUSH0 PUSH2 0x4DE DUP6 DUP3 DUP7 ADD PUSH2 0x390 JUMP JUMPDEST SWAP3 POP POP PUSH1 0x20 PUSH2 0x4EF DUP6 DUP3 DUP7 ADD PUSH2 0x390 JUMP JUMPDEST SWAP2 POP POP SWAP3 POP SWAP3 SWAP1 POP JUMP JUMPDEST PUSH0 PUSH20 0xFFFFFFFFFFFFFFFFFFFFFFFFFFFFFFFFFFFFFFFF DUP3 AND SWAP1 POP SWAP2 SWAP1 POP JUMP JUMPDEST PUSH0 DUP2 SWAP1 POP SWAP2 SWAP1 POP JUMP JUMPDEST PUSH0 PUSH2 0x53B PUSH2 0x536 PUSH2 0x531 DUP5 PUSH2 0x4F9 JUMP JUMPDEST PUSH2 0x518 JUMP JUMPDEST PUSH2 0x4F9 JUMP JUMPDEST SWAP1 POP SWAP2 SWAP1 POP JUMP JUMPDEST PUSH0 PUSH2 0x54C DUP3 PUSH2 0x521 JUMP JUMPDEST SWAP1 POP SWAP2 SWAP1 POP JUMP JUMPDEST PUSH0 PUSH2 0x55D DUP3 PUSH2 0x542 JUMP JUMPDEST SWAP1 POP SWAP2 SWAP1 POP JUMP JUMPDEST PUSH2 0x56D DUP2 PUSH2 0x553 JUMP JUMPDEST DUP3 MSTORE POP POP JUMP JUMPDEST PUSH0 PUSH1 0x20 DUP3 ADD SWAP1 POP PUSH2 0x586 PUSH0 DUP4 ADD DUP5 PUSH2 0x564 JUMP JUMPDEST SWAP3 SWAP2 POP POP JUMP JUMPDEST PUSH0 DUP1 REVERT JUMPDEST PUSH0 DUP1 REVERT JUMPDEST PUSH32 0x4E487B7100000000000000000000000000000000000000000000000000000000 PUSH0 MSTORE PUSH1 0x41 PUSH1 0x4 MSTORE PUSH1 0x24 PUSH0 REVERT JUMPDEST PUSH2 0x5CA DUP3 PUSH2 0x3F7 JUMP JUMPDEST DUP2 ADD DUP2 DUP2 LT PUSH8 0xFFFFFFFFFFFFFFFF DUP3 GT OR ISZERO PUSH2 0x5E9 JUMPI PUSH2 0x5E8 PUSH2 0x594 JUMP JUMPDEST JUMPDEST DUP1 PUSH1 0x40 MSTORE POP POP POP JUMP JUMPDEST PUSH0 PUSH2 0x5FB PUSH2 0x360 JUMP JUMPDEST SWAP1 POP PUSH2 0x607 DUP3 DUP3 PUSH2 0x5C1 JUMP JUMPDEST SWAP2 SWAP1 POP JUMP JUMPDEST PUSH0 PUSH8 0xFFFFFFFFFFFFFFFF DUP3 GT ISZERO PUSH2 0x626 JUMPI PUSH2 0x625 PUSH2 0x594 JUMP JUMPDEST JUMPDEST PUSH2 0x62F DUP3 PUSH2 0x3F7 JUMP JUMPDEST SWAP1 POP PUSH1 0x20 DUP2 ADD SWAP1 POP SWAP2 SWAP1 POP JUMP JUMPDEST DUP3 DUP2 DUP4 CALLDATACOPY PUSH0 DUP4 DUP4 ADD MSTORE POP POP POP JUMP JUMPDEST PUSH0 PUSH2 0x65C PUSH2 0x657 DUP5 PUSH2 0x60C JUMP JUMPDEST PUSH2 0x5F2 JUMP JUMPDEST SWAP1 POP DUP3 DUP2 MSTORE PUSH1 0x20 DUP2 ADD DUP5 DUP5 DUP5 ADD GT ISZERO PUSH2 0x678 JUMPI PUSH2 0x677 PUSH2 0x590 JUMP JUMPDEST JUMPDEST PUSH2 0x683 DUP5 DUP3 DUP6 PUSH2 0x63C JUMP JUMPDEST POP SWAP4 SWAP3 POP POP POP JUMP JUMPDEST PUSH0 DUP3 PUSH1 0x1F DUP4 ADD SLT PUSH2 0x69F JUMPI PUSH2 0x69E PUSH2 0x58C JUMP JUMPDEST JUMPDEST DUP2 CALLDATALOAD PUSH2 0x6AF DUP5 DUP3 PUSH1 0x20 DUP7 ADD PUSH2 0x64A JUMP JUMPDEST SWAP2 POP POP SWAP3 SWAP2 POP POP JUMP JUMPDEST PUSH0 DUP1 PUSH0 PUSH1 0x60 DUP5 DUP7 SUB SLT ISZERO PUSH2 0x6CF JUMPI PUSH2 0x6CE PUSH2 0x369 JUMP JUMPDEST JUMPDEST PUSH0 DUP5 ADD CALLDATALOAD PUSH8 0xFFFFFFFFFFFFFFFF DUP2 GT ISZERO PUSH2 0x6EC JUMPI PUSH2 0x6EB PUSH2 0x36D JUMP JUMPDEST JUMPDEST PUSH2 0x6F8 DUP7 DUP3 DUP8 ADD PUSH2 0x68B JUMP JUMPDEST SWAP4 POP POP PUSH1 0x20 PUSH2 0x709 DUP7 DUP3 DUP8 ADD PUSH2 0x390 JUMP JUMPDEST SWAP3 POP POP PUSH1 0x40 PUSH2 0x71A DUP7 DUP3 DUP8 ADD PUSH2 0x390 JUMP JUMPDEST SWAP2 POP POP SWAP3 POP SWAP3 POP SWAP3 JUMP JUMPDEST PUSH2 0x72D DUP2 PUSH2 0x371 JUMP JUMPDEST DUP3 MSTORE POP POP JUMP JUMPDEST PUSH0 PUSH1 0x20 DUP3 ADD SWAP1 POP PUSH2 0x746 PUSH0 DUP4 ADD DUP5 PUSH2 0x724 JUMP JUMPDEST SWAP3 SWAP2 POP POP JUMP JUMPDEST PUSH0 DUP1 REVERT JUMPDEST PUSH0 DUP1 REVERT JUMPDEST PUSH0 PUSH2 0x766 PUSH2 0x761 DUP5 PUSH2 0x60C JUMP JUMPDEST PUSH2 0x5F2 JUMP JUMPDEST SWAP1 POP DUP3 DUP2 MSTORE PUSH1 0x20 DUP2 ADD DUP5 DUP5 DUP5 ADD GT ISZERO PUSH2 0x782 JUMPI PUSH2 0x781 PUSH2 0x590 JUMP JUMPDEST JUMPDEST PUSH2 0x78D DUP5 DUP3 DUP6 PUSH2 0x3E9 JUMP JUMPDEST POP SWAP4 SWAP3 POP POP POP JUMP JUMPDEST PUSH0 DUP3 PUSH1 0x1F DUP4 ADD SLT PUSH2 0x7A9 JUMPI PUSH2 0x7A8 PUSH2 0x58C JUMP JUMPDEST JUMPDEST DUP2 MLOAD PUSH2 0x7B9 DUP5 DUP3 PUSH1 0x20 DUP7 ADD PUSH2 0x754 JUMP JUMPDEST SWAP2 POP POP SWAP3 SWAP2 POP POP JUMP JUMPDEST PUSH0 DUP2 MLOAD SWAP1 POP PUSH2 0x7D0 DUP2 PUSH2 0x37A JUMP JUMPDEST SWAP3 SWAP2 POP POP JUMP JUMPDEST PUSH0 PUSH1 0x60 DUP3 DUP5 SUB SLT ISZERO PUSH2 0x7EB JUMPI PUSH2 0x7EA PUSH2 0x74C JUMP JUMPDEST JUMPDEST PUSH2 0x7F5 PUSH1 0x60 PUSH2 0x5F2 JUMP JUMPDEST SWAP1 POP PUSH0 DUP3 ADD MLOAD PUSH8 0xFFFFFFFFFFFFFFFF DUP2 GT ISZERO PUSH2 0x814 JUMPI PUSH2 0x813 PUSH2 0x750 JUMP JUMPDEST JUMPDEST PUSH2 0x820 DUP5 DUP3 DUP6 ADD PUSH2 0x795 JUMP JUMPDEST PUSH0 DUP4 ADD MSTORE POP PUSH1 0x20 PUSH2 0x833 DUP5 DUP3 DUP6 ADD PUSH2 0x7C2 JUMP JUMPDEST PUSH1 0x20 DUP4 ADD MSTORE POP PUSH1 0x40 PUSH2 0x847 DUP5 DUP3 DUP6 ADD PUSH2 0x7C2 JUMP JUMPDEST PUSH1 0x40 DUP4 ADD MSTORE POP SWAP3 SWAP2 POP POP JUMP JUMPDEST PUSH0 PUSH1 0x20 DUP3 DUP5 SUB SLT ISZERO PUSH2 0x868 JUMPI PUSH2 0x867 PUSH2 0x369 JUMP JUMPDEST JUMPDEST PUSH0 DUP3 ADD MLOAD PUSH8 0xFFFFFFFFFFFFFFFF DUP2 GT ISZERO PUSH2 0x885 JUMPI PUSH2 0x884 PUSH2 0x36D JUMP JUMPDEST JUMPDEST PUSH2 0x891 DUP5 DUP3 DUP6 ADD PUSH2 0x7D6 JUMP JUMPDEST SWAP2 POP POP SWAP3 SWAP2 POP POP JUMP JUMPDEST PUSH0 PUSH1 0x40 DUP3 ADD SWAP1 POP PUSH2 0x8AD PUSH0 DUP4 ADD DUP6 PUSH2 0x724 JUMP JUMPDEST PUSH2 0x8BA PUSH1 0x20 DUP4 ADD DUP5 PUSH2 0x724 JUMP JUMPDEST SWAP4 SWAP3 POP POP POP JUMP JUMPDEST PUSH0 DUP3 DUP3 MSTORE PUSH1 0x20 DUP3 ADD SWAP1 POP SWAP3 SWAP2 POP POP JUMP JUMPDEST PUSH0 PUSH2 0x8DB DUP3 PUSH2 0x3CF JUMP JUMPDEST PUSH2 0x8E5 DUP2 DUP6 PUSH2 0x8C1 JUMP JUMPDEST SWAP4 POP PUSH2 0x8F5 DUP2 DUP6 PUSH1 0x20 DUP7 ADD PUSH2 0x3E9 JUMP JUMPDEST PUSH2 0x8FE DUP2 PUSH2 0x3F7 JUMP JUMPDEST DUP5 ADD SWAP2 POP POP SWAP3 SWAP2 POP POP JUMP JUMPDEST PUSH0 PUSH1 0x60 DUP3 ADD SWAP1 POP DUP2 DUP2 SUB PUSH0 DUP4 ADD MSTORE PUSH2 0x921 DUP2 DUP7 PUSH2 0x8D1 JUMP JUMPDEST SWAP1 POP PUSH2 0x930 PUSH1 0x20 DUP4 ADD DUP6 PUSH2 0x724 JUMP JUMPDEST PUSH2 0x93D PUSH1 0x40 DUP4 ADD DUP5 PUSH2 0x724 JUMP JUMPDEST SWAP5 SWAP4 POP POP POP POP JUMP INVALID PUSH1 0x80 PUSH1 0x40 MSTORE CALLVALUE DUP1 ISZERO PUSH1 0xE JUMPI PUSH0 DUP1 REVERT JUMPDEST POP PUSH2 0xF86 DUP1 PUSH2 0x1C PUSH0 CODECOPY PUSH0 RETURN INVALID PUSH1 0x80 PUSH1 0x40 MSTORE CALLVALUE DUP1 ISZERO PUSH2 0xF JUMPI PUSH0 DUP1 REVERT JUMPDEST POP PUSH1 0x4 CALLDATASIZE LT PUSH2 0x7B JUMPI PUSH0 CALLDATALOAD PUSH1 0xE0 SHR DUP1 PUSH4 0x83B9AE27 GT PUSH2 0x59 JUMPI DUP1 PUSH4 0x83B9AE27 EQ PUSH2 0x111 JUMPI DUP1 PUSH4 0x8B16652E EQ PUSH2 0x141 JUMPI DUP1 PUSH4 0xC219563F EQ PUSH2 0x15D JUMPI DUP1 PUSH4 0xE2BBB158 EQ PUSH2 0x18D JUMPI PUSH2 0x7B JUMP JUMPDEST DUP1 PUSH4 0x28A404F3 EQ PUSH2 0x7F JUMPI DUP1 PUSH4 0x2C4AE716 EQ PUSH2 0xB1 JUMPI DUP1 PUSH4 0x4445030D EQ PUSH2 0xE1 JUMPI JUMPDEST PUSH0 DUP1 REVERT JUMPDEST PUSH2 0x99 PUSH1 0x4 DUP1 CALLDATASIZE SUB DUP2 ADD SWAP1 PUSH2 0x94 SWAP2 SWAP1 PUSH2 0x70B JUMP JUMPDEST PUSH2 0x1A9 JUMP JUMPDEST PUSH1 0x40 MLOAD PUSH2 0xA8 SWAP4 SWAP3 SWAP2 SWAP1 PUSH2 0x7B5 JUMP JUMPDEST PUSH1 0x40 MLOAD DUP1 SWAP2 SUB SWAP1 RETURN JUMPDEST PUSH2 0xCB PUSH1 0x4 DUP1 CALLDATASIZE SUB DUP2 ADD SWAP1 PUSH2 0xC6 SWAP2 SWAP1 PUSH2 0x70B JUMP JUMPDEST PUSH2 0x263 JUMP JUMPDEST PUSH1 0x40 MLOAD PUSH2 0xD8 SWAP2 SWAP1 PUSH2 0x895 JUMP JUMPDEST PUSH1 0x40 MLOAD DUP1 SWAP2 SUB SWAP1 RETURN JUMPDEST PUSH2 0xFB PUSH1 0x4 DUP1 CALLDATASIZE SUB DUP2 ADD SWAP1 PUSH2 0xF6 SWAP2 SWAP1 PUSH2 0x70B JUMP JUMPDEST PUSH2 0x3B2 JUMP JUMPDEST PUSH1 0x40 MLOAD PUSH2 0x108 SWAP2 SWAP1 PUSH2 0x8B5 JUMP JUMPDEST PUSH1 0x40 MLOAD DUP1 SWAP2 SUB SWAP1 RETURN JUMPDEST PUSH2 0x12B PUSH1 0x4 DUP1 CALLDATASIZE SUB DUP2 ADD SWAP1 PUSH2 0x126 SWAP2 SWAP1 PUSH2 0x70B JUMP JUMPDEST PUSH2 0x44D JUMP JUMPDEST PUSH1 0x40 MLOAD PUSH2 0x138 SWAP2 SWAP1 PUSH2 0x8D5 JUMP JUMPDEST PUSH1 0x40 MLOAD DUP1 SWAP2 SUB SWAP1 RETURN JUMPDEST PUSH2 0x15B PUSH1 0x4 DUP1 CALLDATASIZE SUB DUP2 ADD SWAP1 PUSH2 0x156 SWAP2 SWAP1 PUSH2 0xA1A JUMP JUMPDEST PUSH2 0x462 JUMP JUMPDEST STOP JUMPDEST PUSH2 0x177 PUSH1 0x4 DUP1 CALLDATASIZE SUB DUP2 ADD SWAP1 PUSH2 0x172 SWAP2 SWAP1 PUSH2 0x70B JUMP JUMPDEST PUSH2 0x5B5 JUMP JUMPDEST PUSH1 0x40 MLOAD PUSH2 0x184 SWAP2 SWAP1 PUSH2 0xAA0 JUMP JUMPDEST PUSH1 0x40 MLOAD DUP1 SWAP2 SUB SWAP1 RETURN JUMPDEST PUSH2 0x1A7 PUSH1 0x4 DUP1 CALLDATASIZE SUB DUP2 ADD SWAP1 PUSH2 0x1A2 SWAP2 SWAP1 PUSH2 0xAB9 JUMP JUMPDEST PUSH2 0x5D2 JUMP JUMPDEST STOP JUMPDEST PUSH0 DUP2 DUP2 SLOAD DUP2 LT PUSH2 0x1B7 JUMPI PUSH0 DUP1 REVERT JUMPDEST SWAP1 PUSH0 MSTORE PUSH1 0x20 PUSH0 KECCAK256 SWAP1 PUSH1 0x3 MUL ADD PUSH0 SWAP2 POP SWAP1 POP DUP1 PUSH0 ADD DUP1 SLOAD PUSH2 0x1D6 SWAP1 PUSH2 0xB24 JUMP JUMPDEST DUP1 PUSH1 0x1F ADD PUSH1 0x20 DUP1 SWAP2 DIV MUL PUSH1 0x20 ADD PUSH1 0x40 MLOAD SWAP1 DUP2 ADD PUSH1 0x40 MSTORE DUP1 SWAP3 SWAP2 SWAP1 DUP2 DUP2 MSTORE PUSH1 0x20 ADD DUP3 DUP1 SLOAD PUSH2 0x202 SWAP1 PUSH2 0xB24 JUMP JUMPDEST DUP1 ISZERO PUSH2 0x24D JUMPI DUP1 PUSH1 0x1F LT PUSH2 0x224 JUMPI PUSH2 0x100 DUP1 DUP4 SLOAD DIV MUL DUP4 MSTORE SWAP2 PUSH1 0x20 ADD SWAP2 PUSH2 0x24D JUMP JUMPDEST DUP3 ADD SWAP2 SWAP1 PUSH0 MSTORE PUSH1 0x20 PUSH0 KECCAK256 SWAP1 JUMPDEST DUP2 SLOAD DUP2 MSTORE SWAP1 PUSH1 0x1 ADD SWAP1 PUSH1 0x20 ADD DUP1 DUP4 GT PUSH2 0x230 JUMPI DUP3 SWAP1 SUB PUSH1 0x1F AND DUP3 ADD SWAP2 JUMPDEST POP POP POP POP POP SWAP1 DUP1 PUSH1 0x1 ADD SLOAD SWAP1 DUP1 PUSH1 0x2 ADD SLOAD SWAP1 POP DUP4 JUMP JUMPDEST PUSH2 0x26B PUSH2 0x6A8 JUMP JUMPDEST PUSH1 0x3 PUSH0 DUP4 DUP2 MSTORE PUSH1 0x20 ADD SWAP1 DUP2 MSTORE PUSH1 0x20 ADD PUSH0 KECCAK256 PUSH0 SWAP1 SLOAD SWAP1 PUSH2 0x100 EXP SWAP1 DIV PUSH1 0xFF AND PUSH2 0x2C8 JUMPI PUSH1 0x40 MLOAD PUSH32 0x8C379A000000000000000000000000000000000000000000000000000000000 DUP2 MSTORE PUSH1 0x4 ADD PUSH2 0x2BF SWAP1 PUSH2 0xB9E JUMP JUMPDEST PUSH1 0x40 MLOAD DUP1 SWAP2 SUB SWAP1 REVERT JUMPDEST PUSH0 PUSH1 0x4 PUSH0 DUP5 DUP2 MSTORE PUSH1 0x20 ADD SWAP1 DUP2 MSTORE PUSH1 0x20 ADD PUSH0 KECCAK256 SLOAD SWAP1 POP PUSH0 DUP2 DUP2 SLOAD DUP2 LT PUSH2 0x2F0 JUMPI PUSH2 0x2EF PUSH2 0xBBC JUMP JUMPDEST JUMPDEST SWAP1 PUSH0 MSTORE PUSH1 0x20 PUSH0 KECCAK256 SWAP1 PUSH1 0x3 MUL ADD PUSH1 0x40 MLOAD DUP1 PUSH1 0x60 ADD PUSH1 0x40 MSTORE SWAP1 DUP2 PUSH0 DUP3 ADD DUP1 SLOAD PUSH2 0x316 SWAP1 PUSH2 0xB24 JUMP JUMPDEST DUP1 PUSH1 0x1F ADD PUSH1 0x20 DUP1 SWAP2 DIV MUL PUSH1 0x20 ADD PUSH1 0x40 MLOAD SWAP1 DUP2 ADD PUSH1 0x40 MSTORE DUP1 SWAP3 SWAP2 SWAP1 DUP2 DUP2 MSTORE PUSH1 0x20 ADD DUP3 DUP1 SLOAD PUSH2 0x342 SWAP1 PUSH2 0xB24 JUMP JUMPDEST DUP1 ISZERO PUSH2 0x38D JUMPI DUP1 PUSH1 0x1F LT PUSH2 0x364 JUMPI PUSH2 0x100 DUP1 DUP4 SLOAD DIV MUL DUP4 MSTORE SWAP2 PUSH1 0x20 ADD SWAP2 PUSH2 0x38D JUMP JUMPDEST DUP3 ADD SWAP2 SWAP1 PUSH0 MSTORE PUSH1 0x20 PUSH0 KECCAK256 SWAP1 JUMPDEST DUP2 SLOAD DUP2 MSTORE SWAP1 PUSH1 0x1 ADD SWAP1 PUSH1 0x20 ADD DUP1 DUP4 GT PUSH2 0x370 JUMPI DUP3 SWAP1 SUB PUSH1 0x1F AND DUP3 ADD SWAP2 JUMPDEST POP POP POP POP POP DUP2 MSTORE PUSH1 0x20 ADD PUSH1 0x1 DUP3 ADD SLOAD DUP2 MSTORE PUSH1 0x20 ADD PUSH1 0x2 DUP3 ADD SLOAD DUP2 MSTORE POP POP SWAP2 POP POP SWAP2 SWAP1 POP JUMP JUMPDEST PUSH1 0x1 PUSH1 0x20 MSTORE DUP1 PUSH0 MSTORE PUSH1 0x40 PUSH0 KECCAK256 PUSH0 SWAP2 POP SWAP1 POP DUP1 SLOAD PUSH2 0x3CE SWAP1 PUSH2 0xB24 JUMP JUMPDEST DUP1 PUSH1 0x1F ADD PUSH1 0x20 DUP1 SWAP2 DIV MUL PUSH1 0x20 ADD PUSH1 0x40 MLOAD SWAP1 DUP2 ADD PUSH1 0x40 MSTORE DUP1 SWAP3 SWAP2 SWAP1 DUP2 DUP2 MSTORE PUSH1 0x20 ADD DUP3 DUP1 SLOAD PUSH2 0x3FA SWAP1 PUSH2 0xB24 JUMP JUMPDEST DUP1 ISZERO PUSH2 0x445 JUMPI DUP1 PUSH1 0x1F LT PUSH2 0x41C JUMPI PUSH2 0x100 DUP1 DUP4 SLOAD DIV MUL DUP4 MSTORE SWAP2 PUSH1 0x20 ADD SWAP2 PUSH2 0x445 JUMP JUMPDEST DUP3 ADD SWAP2 SWAP1 PUSH0 MSTORE PUSH1 0x20 PUSH0 KECCAK256 SWAP1 JUMPDEST DUP2 SLOAD DUP2 MSTORE SWAP1 PUSH1 0x1 ADD SWAP1 PUSH1 0x20 ADD DUP1 DUP4 GT PUSH2 0x428 JUMPI DUP3 SWAP1 SUB PUSH1 0x1F AND DUP3 ADD SWAP2 JUMPDEST POP POP POP POP POP DUP2 JUMP JUMPDEST PUSH1 0x2 PUSH1 0x20 MSTORE DUP1 PUSH0 MSTORE PUSH1 0x40 PUSH0 KECCAK256 PUSH0 SWAP2 POP SWAP1 POP SLOAD DUP2 JUMP JUMPDEST PUSH1 0x3 PUSH0 DUP4 DUP2 MSTORE PUSH1 0x20 ADD SWAP1 DUP2 MSTORE PUSH1 0x20 ADD PUSH0 KECCAK256 PUSH0 SWAP1 SLOAD SWAP1 PUSH2 0x100 EXP SWAP1 DIV PUSH1 0xFF AND ISZERO PUSH2 0x4C0 JUMPI PUSH1 0x40 MLOAD PUSH32 0x8C379A000000000000000000000000000000000000000000000000000000000 DUP2 MSTORE PUSH1 0x4 ADD PUSH2 0x4B7 SWAP1 PUSH2 0xC33 JUMP JUMPDEST PUSH1 0x40 MLOAD DUP1 SWAP2 SUB SWAP1 REVERT JUMPDEST PUSH0 PUSH1 0x40 MLOAD DUP1 PUSH1 0x60 ADD PUSH1 0x40 MSTORE DUP1 DUP6 DUP2 MSTORE PUSH1 0x20 ADD DUP5 DUP2 MSTORE PUSH1 0x20 ADD DUP4 DUP2 MSTORE POP SWAP1 DUP1 PUSH1 0x1 DUP2 SLOAD ADD DUP1 DUP3 SSTORE DUP1 SWAP2 POP POP PUSH1 0x1 SWAP1 SUB SWAP1 PUSH0 MSTORE PUSH1 0x20 PUSH0 KECCAK256 SWAP1 PUSH1 0x3 MUL ADD PUSH0 SWAP1 SWAP2 SWAP1 SWAP2 SWAP1 SWAP2 POP PUSH0 DUP3 ADD MLOAD DUP2 PUSH0 ADD SWAP1 DUP2 PUSH2 0x515 SWAP2 SWAP1 PUSH2 0xDEE JUMP JUMPDEST POP PUSH1 0x20 DUP3 ADD MLOAD DUP2 PUSH1 0x1 ADD SSTORE PUSH1 0x40 DUP3 ADD MLOAD DUP2 PUSH1 0x2 ADD SSTORE POP POP DUP3 PUSH1 0x1 PUSH0 DUP5 DUP2 MSTORE PUSH1 0x20 ADD SWAP1 DUP2 MSTORE PUSH1 0x20 ADD PUSH0 KECCAK256 SWAP1 DUP2 PUSH2 0x54A SWAP2 SWAP1 PUSH2 0xDEE JUMP JUMPDEST POP DUP1 PUSH1 0x2 PUSH0 DUP5 DUP2 MSTORE PUSH1 0x20 ADD SWAP1 DUP2 MSTORE PUSH1 0x20 ADD PUSH0 KECCAK256 DUP2 SWAP1 SSTORE POP PUSH1 0x1 PUSH1 0x3 PUSH0 DUP5 DUP2 MSTORE PUSH1 0x20 ADD SWAP1 DUP2 MSTORE PUSH1 0x20 ADD PUSH0 KECCAK256 PUSH0 PUSH2 0x100 EXP DUP2 SLOAD DUP2 PUSH1 0xFF MUL NOT AND SWAP1 DUP4 ISZERO ISZERO MUL OR SWAP1 SSTORE POP PUSH1 0x1 PUSH0 DUP1 SLOAD SWAP1 POP PUSH2 0x59B SWAP2 SWAP1 PUSH2 0xEEA JUMP JUMPDEST PUSH1 0x4 PUSH0 DUP5 DUP2 MSTORE PUSH1 0x20 ADD SWAP1 DUP2 MSTORE PUSH1 0x20 ADD PUSH0 KECCAK256 DUP2 SWAP1 SSTORE POP POP POP POP JUMP JUMPDEST PUSH1 0x3 PUSH1 0x20 MSTORE DUP1 PUSH0 MSTORE PUSH1 0x40 PUSH0 KECCAK256 PUSH0 SWAP2 POP SLOAD SWAP1 PUSH2 0x100 EXP SWAP1 DIV PUSH1 0xFF AND DUP2 JUMP JUMPDEST PUSH1 0x3 PUSH0 DUP4 DUP2 MSTORE PUSH1 0x20 ADD SWAP1 DUP2 MSTORE PUSH1 0x20 ADD PUSH0 KECCAK256 PUSH0 SWAP1 SLOAD SWAP1 PUSH2 0x100 EXP SWAP1 DIV PUSH1 0xFF AND PUSH2 0x62F JUMPI PUSH1 0x40 MLOAD PUSH32 0x8C379A000000000000000000000000000000000000000000000000000000000 DUP2 MSTORE PUSH1 0x4 ADD PUSH2 0x626 SWAP1 PUSH2 0xB9E JUMP JUMPDEST PUSH1 0x40 MLOAD DUP1 SWAP2 SUB SWAP1 REVERT JUMPDEST DUP1 PUSH1 0x2 PUSH0 DUP5 DUP2 MSTORE PUSH1 0x20 ADD SWAP1 DUP2 MSTORE PUSH1 0x20 ADD PUSH0 KECCAK256 PUSH0 DUP3 DUP3 SLOAD PUSH2 0x64F SWAP2 SWAP1 PUSH2 0xF1D JUMP JUMPDEST SWAP3 POP POP DUP2 SWAP1 SSTORE POP PUSH0 PUSH1 0x4 PUSH0 DUP5 DUP2 MSTORE PUSH1 0x20 ADD SWAP1 DUP2 MSTORE PUSH1 0x20 ADD PUSH0 KECCAK256 SLOAD SWAP1 POP DUP2 PUSH0 DUP3 DUP2 SLOAD DUP2 LT PUSH2 0x67F JUMPI PUSH2 0x67E PUSH2 0xBBC JUMP JUMPDEST JUMPDEST SWAP1 PUSH0 MSTORE PUSH1 0x20 PUSH0 KECCAK256 SWAP1 PUSH1 0x3 MUL ADD PUSH1 0x2 ADD PUSH0 DUP3 DUP3 SLOAD PUSH2 0x69C SWAP2 SWAP1 PUSH2 0xF1D JUMP JUMPDEST SWAP3 POP POP DUP2 SWAP1 SSTORE POP POP POP POP JUMP JUMPDEST PUSH1 0x40 MLOAD DUP1 PUSH1 0x60 ADD PUSH1 0x40 MSTORE DUP1 PUSH1 0x60 DUP2 MSTORE PUSH1 0x20 ADD PUSH0 DUP2 MSTORE PUSH1 0x20 ADD PUSH0 DUP2 MSTORE POP SWAP1 JUMP JUMPDEST PUSH0 PUSH1 0x40 MLOAD SWAP1 POP SWAP1 JUMP JUMPDEST PUSH0 DUP1 REVERT JUMPDEST PUSH0 DUP1 REVERT JUMPDEST PUSH0 DUP2 SWAP1 POP SWAP2 SWAP1 POP JUMP JUMPDEST PUSH2 0x6EA DUP2 PUSH2 0x6D8 JUMP JUMPDEST DUP2 EQ PUSH2 0x6F4 JUMPI PUSH0 DUP1 REVERT JUMPDEST POP JUMP JUMPDEST PUSH0 DUP2 CALLDATALOAD SWAP1 POP PUSH2 0x705 DUP2 PUSH2 0x6E1 JUMP JUMPDEST SWAP3 SWAP2 POP POP JUMP JUMPDEST PUSH0 PUSH1 0x20 DUP3 DUP5 SUB SLT ISZERO PUSH2 0x720 JUMPI PUSH2 0x71F PUSH2 0x6D0 JUMP JUMPDEST JUMPDEST PUSH0 PUSH2 0x72D DUP5 DUP3 DUP6 ADD PUSH2 0x6F7 JUMP JUMPDEST SWAP2 POP POP SWAP3 SWAP2 POP POP JUMP JUMPDEST PUSH0 DUP2 MLOAD SWAP1 POP SWAP2 SWAP1 POP JUMP JUMPDEST PUSH0 DUP3 DUP3 MSTORE PUSH1 0x20 DUP3 ADD SWAP1 POP SWAP3 SWAP2 POP POP JUMP JUMPDEST DUP3 DUP2 DUP4 MCOPY PUSH0 DUP4 DUP4 ADD MSTORE POP POP POP JUMP JUMPDEST PUSH0 PUSH1 0x1F NOT PUSH1 0x1F DUP4 ADD AND SWAP1 POP SWAP2 SWAP1 POP JUMP JUMPDEST PUSH0 PUSH2 0x778 DUP3 PUSH2 0x736 JUMP JUMPDEST PUSH2 0x782 DUP2 DUP6 PUSH2 0x740 JUMP JUMPDEST SWAP4 POP PUSH2 0x792 DUP2 DUP6 PUSH1 0x20 DUP7 ADD PUSH2 0x750 JUMP JUMPDEST PUSH2 0x79B DUP2 PUSH2 0x75E JUMP JUMPDEST DUP5 ADD SWAP2 POP POP SWAP3 SWAP2 POP POP JUMP JUMPDEST PUSH2 0x7AF DUP2 PUSH2 0x6D8 JUMP JUMPDEST DUP3 MSTORE POP POP JUMP JUMPDEST PUSH0 PUSH1 0x60 DUP3 ADD SWAP1 POP DUP2 DUP2 SUB PUSH0 DUP4 ADD MSTORE PUSH2 0x7CD DUP2 DUP7 PUSH2 0x76E JUMP JUMPDEST SWAP1 POP PUSH2 0x7DC PUSH1 0x20 DUP4 ADD DUP6 PUSH2 0x7A6 JUMP JUMPDEST PUSH2 0x7E9 PUSH1 0x40 DUP4 ADD DUP5 PUSH2 0x7A6 JUMP JUMPDEST SWAP5 SWAP4 POP POP POP POP JUMP JUMPDEST PUSH0 DUP3 DUP3 MSTORE PUSH1 0x20 DUP3 ADD SWAP1 POP SWAP3 SWAP2 POP POP JUMP JUMPDEST PUSH0 PUSH2 0x80B DUP3 PUSH2 0x736 JUMP JUMPDEST PUSH2 0x815 DUP2 DUP6 PUSH2 0x7F1 JUMP JUMPDEST SWAP4 POP PUSH2 0x825 DUP2 DUP6 PUSH1 0x20 DUP7 ADD PUSH2 0x750 JUMP JUMPDEST PUSH2 0x82E DUP2 PUSH2 0x75E JUMP JUMPDEST DUP5 ADD SWAP2 POP POP SWAP3 SWAP2 POP POP JUMP JUMPDEST PUSH2 0x842 DUP2 PUSH2 0x6D8 JUMP JUMPDEST DUP3 MSTORE POP POP JUMP JUMPDEST PUSH0 PUSH1 0x60 DUP4 ADD PUSH0 DUP4 ADD MLOAD DUP5 DUP3 SUB PUSH0 DUP7 ADD MSTORE PUSH2 0x862 DUP3 DUP3 PUSH2 0x801 JUMP JUMPDEST SWAP2 POP POP PUSH1 0x20 DUP4 ADD MLOAD PUSH2 0x877 PUSH1 0x20 DUP7 ADD DUP3 PUSH2 0x839 JUMP JUMPDEST POP PUSH1 0x40 DUP4 ADD MLOAD PUSH2 0x88A PUSH1 0x40 DUP7 ADD DUP3 PUSH2 0x839 JUMP JUMPDEST POP DUP1 SWAP2 POP POP SWAP3 SWAP2 POP POP JUMP JUMPDEST PUSH0 PUSH1 0x20 DUP3 ADD SWAP1 POP DUP2 DUP2 SUB PUSH0 DUP4 ADD MSTORE PUSH2 0x8AD DUP2 DUP5 PUSH2 0x848 JUMP JUMPDEST SWAP1 POP SWAP3 SWAP2 POP POP JUMP JUMPDEST PUSH0 PUSH1 0x20 DUP3 ADD SWAP1 POP DUP2 DUP2 SUB PUSH0 DUP4 ADD MSTORE PUSH2 0x8CD DUP2 DUP5 PUSH2 0x76E JUMP JUMPDEST SWAP1 POP SWAP3 SWAP2 POP POP JUMP JUMPDEST PUSH0 PUSH1 0x20 DUP3 ADD SWAP1 POP PUSH2 0x8E8 PUSH0 DUP4 ADD DUP5 PUSH2 0x7A6 JUMP JUMPDEST SWAP3 SWAP2 POP POP JUMP JUMPDEST PUSH0 DUP1 REVERT JUMPDEST PUSH0 DUP1 REVERT JUMPDEST PUSH32 0x4E487B7100000000000000000000000000000000000000000000000000000000 PUSH0 MSTORE PUSH1 0x41 PUSH1 0x4 MSTORE PUSH1 0x24 PUSH0 REVERT JUMPDEST PUSH2 0x92C DUP3 PUSH2 0x75E JUMP JUMPDEST DUP2 ADD DUP2 DUP2 LT PUSH8 0xFFFFFFFFFFFFFFFF DUP3 GT OR ISZERO PUSH2 0x94B JUMPI PUSH2 0x94A PUSH2 0x8F6 JUMP JUMPDEST JUMPDEST DUP1 PUSH1 0x40 MSTORE POP POP POP JUMP JUMPDEST PUSH0 PUSH2 0x95D PUSH2 0x6C7 JUMP JUMPDEST SWAP1 POP PUSH2 0x969 DUP3 DUP3 PUSH2 0x923 JUMP JUMPDEST SWAP2 SWAP1 POP JUMP JUMPDEST PUSH0 PUSH8 0xFFFFFFFFFFFFFFFF DUP3 GT ISZERO PUSH2 0x988 JUMPI PUSH2 0x987 PUSH2 0x8F6 JUMP JUMPDEST JUMPDEST PUSH2 0x991 DUP3 PUSH2 0x75E JUMP JUMPDEST SWAP1 POP PUSH1 0x20 DUP2 ADD SWAP1 POP SWAP2 SWAP1 POP JUMP JUMPDEST DUP3 DUP2 DUP4 CALLDATACOPY PUSH0 DUP4 DUP4 ADD MSTORE POP POP POP JUMP JUMPDEST PUSH0 PUSH2 0x9BE PUSH2 0x9B9 DUP5 PUSH2 0x96E JUMP JUMPDEST PUSH2 0x954 JUMP JUMPDEST SWAP1 POP DUP3 DUP2 MSTORE PUSH1 0x20 DUP2 ADD DUP5 DUP5 DUP5 ADD GT ISZERO PUSH2 0x9DA JUMPI PUSH2 0x9D9 PUSH2 0x8F2 JUMP JUMPDEST JUMPDEST PUSH2 0x9E5 DUP5 DUP3 DUP6 PUSH2 0x99E JUMP JUMPDEST POP SWAP4 SWAP3 POP POP POP JUMP JUMPDEST PUSH0 DUP3 PUSH1 0x1F DUP4 ADD SLT PUSH2 0xA01 JUMPI PUSH2 0xA00 PUSH2 0x8EE JUMP JUMPDEST JUMPDEST DUP2 CALLDATALOAD PUSH2 0xA11 DUP5 DUP3 PUSH1 0x20 DUP7 ADD PUSH2 0x9AC JUMP JUMPDEST SWAP2 POP POP SWAP3 SWAP2 POP POP JUMP JUMPDEST PUSH0 DUP1 PUSH0 PUSH1 0x60 DUP5 DUP7 SUB SLT ISZERO PUSH2 0xA31 JUMPI PUSH2 0xA30 PUSH2 0x6D0 JUMP JUMPDEST JUMPDEST PUSH0 DUP5 ADD CALLDATALOAD PUSH8 0xFFFFFFFFFFFFFFFF DUP2 GT ISZERO PUSH2 0xA4E JUMPI PUSH2 0xA4D PUSH2 0x6D4 JUMP JUMPDEST JUMPDEST PUSH2 0xA5A DUP7 DUP3 DUP8 ADD PUSH2 0x9ED JUMP JUMPDEST SWAP4 POP POP PUSH1 0x20 PUSH2 0xA6B DUP7 DUP3 DUP8 ADD PUSH2 0x6F7 JUMP JUMPDEST SWAP3 POP POP PUSH1 0x40 PUSH2 0xA7C DUP7 DUP3 DUP8 ADD PUSH2 0x6F7 JUMP JUMPDEST SWAP2 POP POP SWAP3 POP SWAP3 POP SWAP3 JUMP JUMPDEST PUSH0 DUP2 ISZERO ISZERO SWAP1 POP SWAP2 SWAP1 POP JUMP JUMPDEST PUSH2 0xA9A DUP2 PUSH2 0xA86 JUMP JUMPDEST DUP3 MSTORE POP POP JUMP JUMPDEST PUSH0 PUSH1 0x20 DUP3 ADD SWAP1 POP PUSH2 0xAB3 PUSH0 DUP4 ADD DUP5 PUSH2 0xA91 JUMP JUMPDEST SWAP3 SWAP2 POP POP JUMP JUMPDEST PUSH0 DUP1 PUSH1 0x40 DUP4 DUP6 SUB SLT ISZERO PUSH2 0xACF JUMPI PUSH2 0xACE PUSH2 0x6D0 JUMP JUMPDEST JUMPDEST PUSH0 PUSH2 0xADC DUP6 DUP3 DUP7 ADD PUSH2 0x6F7 JUMP JUMPDEST SWAP3 POP POP PUSH1 0x20 PUSH2 0xAED DUP6 DUP3 DUP7 ADD PUSH2 0x6F7 JUMP JUMPDEST SWAP2 POP POP SWAP3 POP SWAP3 SWAP1 POP JUMP JUMPDEST PUSH32 0x4E487B7100000000000000000000000000000000000000000000000000000000 PUSH0 MSTORE PUSH1 0x22 PUSH1 0x4 MSTORE PUSH1 0x24 PUSH0 REVERT JUMPDEST PUSH0 PUSH1 0x2 DUP3 DIV SWAP1 POP PUSH1 0x1 DUP3 AND DUP1 PUSH2 0xB3B JUMPI PUSH1 0x7F DUP3 AND SWAP2 POP JUMPDEST PUSH1 0x20 DUP3 LT DUP2 SUB PUSH2 0xB4E JUMPI PUSH2 0xB4D PUSH2 0xAF7 JUMP JUMPDEST JUMPDEST POP SWAP2 SWAP1 POP JUMP JUMPDEST PUSH32 0x4163636F756E7420646F6573206E6F7420657869737400000000000000000000 PUSH0 DUP3 ADD MSTORE POP JUMP JUMPDEST PUSH0 PUSH2 0xB88 PUSH1 0x16 DUP4 PUSH2 0x740 JUMP JUMPDEST SWAP2 POP PUSH2 0xB93 DUP3 PUSH2 0xB54 JUMP JUMPDEST PUSH1 0x20 DUP3 ADD SWAP1 POP SWAP2 SWAP1 POP JUMP JUMPDEST PUSH0 PUSH1 0x20 DUP3 ADD SWAP1 POP DUP2 DUP2 SUB PUSH0 DUP4 ADD MSTORE PUSH2 0xBB5 DUP2 PUSH2 0xB7C JUMP JUMPDEST SWAP1 POP SWAP2 SWAP1 POP JUMP JUMPDEST PUSH32 0x4E487B7100000000000000000000000000000000000000000000000000000000 PUSH0 MSTORE PUSH1 0x32 PUSH1 0x4 MSTORE PUSH1 0x24 PUSH0 REVERT JUMPDEST PUSH32 0x4163636F756E7420616C72656164792065786973747300000000000000000000 PUSH0 DUP3 ADD MSTORE POP JUMP JUMPDEST PUSH0 PUSH2 0xC1D PUSH1 0x16 DUP4 PUSH2 0x740 JUMP JUMPDEST SWAP2 POP PUSH2 0xC28 DUP3 PUSH2 0xBE9 JUMP JUMPDEST PUSH1 0x20 DUP3 ADD SWAP1 POP SWAP2 SWAP1 POP JUMP JUMPDEST PUSH0 PUSH1 0x20 DUP3 ADD SWAP1 POP DUP2 DUP2 SUB PUSH0 DUP4 ADD MSTORE PUSH2 0xC4A DUP2 PUSH2 0xC11 JUMP JUMPDEST SWAP1 POP SWAP2 SWAP1 POP JUMP JUMPDEST PUSH0 DUP2 SWAP1 POP DUP2 PUSH0 MSTORE PUSH1 0x20 PUSH0 KECCAK256 SWAP1 POP SWAP2 SWAP1 POP JUMP JUMPDEST PUSH0 PUSH1 0x20 PUSH1 0x1F DUP4 ADD DIV SWAP1 POP SWAP2 SWAP1 POP JUMP JUMPDEST PUSH0 DUP3 DUP3 SHL SWAP1 POP SWAP3 SWAP2 POP POP JUMP JUMPDEST PUSH0 PUSH1 0x8 DUP4 MUL PUSH2 0xCAD PUSH32 0xFFFFFFFFFFFFFFFFFFFFFFFFFFFFFFFFFFFFFFFFFFFFFFFFFFFFFFFFFFFFFFFF DUP3 PUSH2 0xC72 JUMP JUMPDEST PUSH2 0xCB7 DUP7 DUP4 PUSH2 0xC72 JUMP JUMPDEST SWAP6 POP DUP1 NOT DUP5 AND SWAP4 POP DUP1 DUP7 AND DUP5 OR SWAP3 POP POP POP SWAP4 SWAP3 POP POP POP JUMP JUMPDEST PUSH0 DUP2 SWAP1 POP SWAP2 SWAP1 POP JUMP JUMPDEST PUSH0 PUSH2 0xCF2 PUSH2 0xCED PUSH2 0xCE8 DUP5 PUSH2 0x6D8 JUMP JUMPDEST PUSH2 0xCCF JUMP JUMPDEST PUSH2 0x6D8 JUMP JUMPDEST SWAP1 POP SWAP2 SWAP1 POP JUMP JUMPDEST PUSH0 DUP2 SWAP1 POP SWAP2 SWAP1 POP JUMP JUMPDEST PUSH2 0xD0B DUP4 PUSH2 0xCD8 JUMP JUMPDEST PUSH2 0xD1F PUSH2 0xD17 DUP3 PUSH2 0xCF9 JUMP JUMPDEST DUP5 DUP5 SLOAD PUSH2 0xC7E JUMP JUMPDEST DUP3 SSTORE POP POP POP POP JUMP JUMPDEST PUSH0 SWAP1 JUMP JUMPDEST PUSH2 0xD33 PUSH2 0xD27 JUMP JUMPDEST PUSH2 0xD3E DUP2 DUP5 DUP5 PUSH2 0xD02 JUMP JUMPDEST POP POP POP JUMP JUMPDEST JUMPDEST DUP2 DUP2 LT ISZERO PUSH2 0xD61 JUMPI PUSH2 0xD56 PUSH0 DUP3 PUSH2 0xD2B JUMP JUMPDEST PUSH1 0x1 DUP2 ADD SWAP1 POP PUSH2 0xD44 JUMP JUMPDEST POP POP JUMP JUMPDEST PUSH1 0x1F DUP3 GT ISZERO PUSH2 0xDA6 JUMPI PUSH2 0xD77 DUP2 PUSH2 0xC51 JUMP JUMPDEST PUSH2 0xD80 DUP5 PUSH2 0xC63 JUMP JUMPDEST DUP2 ADD PUSH1 0x20 DUP6 LT ISZERO PUSH2 0xD8F JUMPI DUP2 SWAP1 POP JUMPDEST PUSH2 0xDA3 PUSH2 0xD9B DUP6 PUSH2 0xC63 JUMP JUMPDEST DUP4 ADD DUP3 PUSH2 0xD43 JUMP JUMPDEST POP POP JUMPDEST POP POP POP JUMP JUMPDEST PUSH0 DUP3 DUP3 SHR SWAP1 POP SWAP3 SWAP2 POP POP JUMP JUMPDEST PUSH0 PUSH2 0xDC6 PUSH0 NOT DUP5 PUSH1 0x8 MUL PUSH2 0xDAB JUMP JUMPDEST NOT DUP1 DUP4 AND SWAP2 POP POP SWAP3 SWAP2 POP POP JUMP JUMPDEST PUSH0 PUSH2 0xDDE DUP4 DUP4 PUSH2 0xDB7 JUMP JUMPDEST SWAP2 POP DUP3 PUSH1 0x2 MUL DUP3 OR SWAP1 POP SWAP3 SWAP2 POP POP JUMP JUMPDEST PUSH2 0xDF7 DUP3 PUSH2 0x736 JUMP JUMPDEST PUSH8 0xFFFFFFFFFFFFFFFF DUP2 GT ISZERO PUSH2 0xE10 JUMPI PUSH2 0xE0F PUSH2 0x8F6 JUMP JUMPDEST JUMPDEST PUSH2 0xE1A DUP3 SLOAD PUSH2 0xB24 JUMP JUMPDEST PUSH2 0xE25 DUP3 DUP3 DUP6 PUSH2 0xD65 JUMP JUMPDEST PUSH0 PUSH1 0x20 SWAP1 POP PUSH1 0x1F DUP4 GT PUSH1 0x1 DUP2 EQ PUSH2 0xE56 JUMPI PUSH0 DUP5 ISZERO PUSH2 0xE44 JUMPI DUP3 DUP8 ADD MLOAD SWAP1 POP JUMPDEST PUSH2 0xE4E DUP6 DUP3 PUSH2 0xDD3 JUMP JUMPDEST DUP7 SSTORE POP PUSH2 0xEB5 JUMP JUMPDEST PUSH1 0x1F NOT DUP5 AND PUSH2 0xE64 DUP7 PUSH2 0xC51 JUMP JUMPDEST PUSH0 JUMPDEST DUP3 DUP2 LT ISZERO PUSH2 0xE8B JUMPI DUP5 DUP10 ADD MLOAD DUP3 SSTORE PUSH1 0x1 DUP3 ADD SWAP2 POP PUSH1 0x20 DUP6 ADD SWAP5 POP PUSH1 0x20 DUP2 ADD SWAP1 POP PUSH2 0xE66 JUMP JUMPDEST DUP7 DUP4 LT ISZERO PUSH2 0xEA8 JUMPI DUP5 DUP10 ADD MLOAD PUSH2 0xEA4 PUSH1 0x1F DUP10 AND DUP3 PUSH2 0xDB7 JUMP JUMPDEST DUP4 SSTORE POP JUMPDEST PUSH1 0x1 PUSH1 0x2 DUP9 MUL ADD DUP9 SSTORE POP POP POP JUMPDEST POP POP POP POP POP POP JUMP JUMPDEST PUSH32 0x4E487B7100000000000000000000000000000000000000000000000000000000 PUSH0 MSTORE PUSH1 0x11 PUSH1 0x4 MSTORE PUSH1 0x24 PUSH0 REVERT JUMPDEST PUSH0 PUSH2 0xEF4 DUP3 PUSH2 0x6D8 JUMP JUMPDEST SWAP2 POP PUSH2 0xEFF DUP4 PUSH2 0x6D8 JUMP JUMPDEST SWAP3 POP DUP3 DUP3 SUB SWAP1 POP DUP2 DUP2 GT ISZERO PUSH2 0xF17 JUMPI PUSH2 0xF16 PUSH2 0xEBD JUMP JUMPDEST JUMPDEST SWAP3 SWAP2 POP POP JUMP JUMPDEST PUSH0 PUSH2 0xF27 DUP3 PUSH2 0x6D8 JUMP JUMPDEST SWAP2 POP PUSH2 0xF32 DUP4 PUSH2 0x6D8 JUMP JUMPDEST SWAP3 POP DUP3 DUP3 ADD SWAP1 POP DUP1 DUP3 GT ISZERO PUSH2 0xF4A JUMPI PUSH2 0xF49 PUSH2 0xEBD JUMP JUMPDEST JUMPDEST SWAP3 SWAP2 POP POP JUMP INVALID LOG2 PUSH5 0x6970667358 0x22 SLT KECCAK256 DUP6 0x2B PUSH18 0x51F6A96040CE02EEC22B523092FCD0C4A6B7 0xD2 0xE2 SWAP16 SWAP5 DUP15 DUP9 SLT DUP7 0xB1 PUSH31 0xE164736F6C634300081A0033A26469706673582212209A98CB3869BDA907EB DUP5 DIV 0x2F SWAP8 0xE PUSH14 0xD95351D40065197040B431B6E373 PUSH14 0x9DB764736F6C634300081A003300 "
				},
				"gasEstimates": {
					"creation": {
						"codeDepositCost": "1285800",
						"executionCost": "1333",
						"totalCost": "1287133"
					},
					"external": {
						"BankContract()": "infinite",
						"bfDepositFund(uint256,uint256)": "infinite",
						"bfGet(uint256)": "infinite",
						"bfStoreDetails(string,uint256,uint256)": "infinite",
						"deployBankContract()": "infinite"
					}
				},
				"methodIdentifiers": {
					"BankContract()": "dee01b05",
					"bfDepositFund(uint256,uint256)": "93312ff0",
					"bfGet(uint256)": "1d5d3679",
					"bfStoreDetails(string,uint256,uint256)": "e1a7e3de",
					"deployBankContract()": "81deb00d"
				}
			},
			"storageLayout": {
				"storage": [
					{
						"astId": 151,
						"contract": "BankFactory.sol:BankFactory",
						"label": "BankContract",
						"offset": 0,
						"slot": "0",
						"type": "t_contract(BankDetails)144"
					}
				],
				"types": {
					"t_contract(BankDetails)144": {
						"encoding": "inplace",
						"label": "contract BankDetails",
						"numberOfBytes": "20"
					}
				}
			},
			"userdoc": {
				"kind": "user",
				"methods": {},
				"version": 1
			}
		}
	}
}